{
  "_format": "hh-sol-artifact-1",
  "contractName": "ArkaMaster",
  "sourceName": "contracts/ArkaMaster.sol",
  "abi": [
    {
      "inputs": [
        {
          "internalType": "address",
          "name": "_arkaToken",
          "type": "address"
        }
      ],
      "stateMutability": "nonpayable",
      "type": "constructor"
    },
    {
      "anonymous": false,
      "inputs": [
        {
          "indexed": true,
          "internalType": "address",
          "name": "previousOwner",
          "type": "address"
        },
        {
          "indexed": true,
          "internalType": "address",
          "name": "newOwner",
          "type": "address"
        }
      ],
      "name": "OwnershipTransferred",
      "type": "event"
    },
    {
      "inputs": [],
      "name": "arkaToken",
      "outputs": [
        {
          "internalType": "contract ArkaERC20",
          "name": "",
          "type": "address"
        }
      ],
      "stateMutability": "view",
      "type": "function"
    },
    {
      "inputs": [
        {
          "internalType": "uint256",
          "name": "idResource",
          "type": "uint256"
        },
        {
          "internalType": "enum ArkaMaster.InteractType",
          "name": "interaction",
          "type": "uint8"
        }
      ],
      "name": "interact",
      "outputs": [],
      "stateMutability": "nonpayable",
      "type": "function"
    },
    {
      "inputs": [
        {
          "internalType": "uint256",
          "name": "",
          "type": "uint256"
        },
        {
          "internalType": "address",
          "name": "",
          "type": "address"
        }
      ],
      "name": "interactions",
      "outputs": [
        {
          "internalType": "enum ArkaMaster.InteractType",
          "name": "",
          "type": "uint8"
        }
      ],
      "stateMutability": "view",
      "type": "function"
    },
    {
      "inputs": [],
      "name": "owner",
      "outputs": [
        {
          "internalType": "address",
          "name": "",
          "type": "address"
        }
      ],
      "stateMutability": "view",
      "type": "function"
    },
    {
      "inputs": [
        {
          "internalType": "string",
          "name": "_description",
          "type": "string"
        },
        {
          "internalType": "string",
          "name": "_url",
          "type": "string"
        }
      ],
      "name": "proposeResource",
      "outputs": [],
      "stateMutability": "payable",
      "type": "function"
    },
    {
      "inputs": [],
      "name": "renounceOwnership",
      "outputs": [],
      "stateMutability": "nonpayable",
      "type": "function"
    },
    {
      "inputs": [
        {
          "internalType": "uint256",
          "name": "",
          "type": "uint256"
        }
      ],
      "name": "resources",
      "outputs": [
        {
          "internalType": "string",
          "name": "description",
          "type": "string"
        },
        {
          "internalType": "string",
          "name": "url",
          "type": "string"
        }
      ],
      "stateMutability": "view",
      "type": "function"
    },
    {
      "inputs": [
        {
          "internalType": "address",
          "name": "newOwner",
          "type": "address"
        }
      ],
      "name": "transferOwnership",
      "outputs": [],
      "stateMutability": "nonpayable",
      "type": "function"
    }
  ],
  "bytecode": "0x60a0604052660221b262dd80006002553480156200001c57600080fd5b5060405162001694380380620016948339818101604052810190620000429190620001d3565b62000062620000566200009d60201b60201c565b620000a560201b60201c565b8073ffffffffffffffffffffffffffffffffffffffff1660808173ffffffffffffffffffffffffffffffffffffffff16815250505062000205565b600033905090565b60008060009054906101000a900473ffffffffffffffffffffffffffffffffffffffff169050816000806101000a81548173ffffffffffffffffffffffffffffffffffffffff021916908373ffffffffffffffffffffffffffffffffffffffff1602179055508173ffffffffffffffffffffffffffffffffffffffff168173ffffffffffffffffffffffffffffffffffffffff167f8be0079c531659141344cd1fd0a4f28419497f9722a3daafe3b4186f6b6457e060405160405180910390a35050565b600080fd5b600073ffffffffffffffffffffffffffffffffffffffff82169050919050565b60006200019b826200016e565b9050919050565b620001ad816200018e565b8114620001b957600080fd5b50565b600081519050620001cd81620001a2565b92915050565b600060208284031215620001ec57620001eb62000169565b5b6000620001fc84828501620001bc565b91505092915050565b60805161146c62000228600039600081816105100152610670015261146c6000f3fe60806040526004361061007b5760003560e01c8063701d8ef81161004e578063701d8ef814610142578063715018a61461016b5780638da5cb5b14610182578063f2fde38b146101ad5761007b565b8063244d6daa146100805780632c5e1aab146100be578063530cde9a146100fb5780636d153cb114610117575b600080fd5b34801561008c57600080fd5b506100a760048036038101906100a29190610a19565b6101d6565b6040516100b5929190610ad6565b60405180910390f35b3480156100ca57600080fd5b506100e560048036038101906100e09190610b6b565b61031a565b6040516100f29190610c22565b60405180910390f35b61011560048036038101906101109190610ca2565b610349565b005b34801561012357600080fd5b5061012c61050e565b6040516101399190610d82565b60405180910390f35b34801561014e57600080fd5b5061016960048036038101906101649190610dc2565b610532565b005b34801561017757600080fd5b50610180610707565b005b34801561018e57600080fd5b5061019761071b565b6040516101a49190610e11565b60405180910390f35b3480156101b957600080fd5b506101d460048036038101906101cf9190610e2c565b610744565b005b600381815481106101e657600080fd5b906000526020600020906002020160009150905080600001805461020990610e88565b80601f016020809104026020016040519081016040528092919081815260200182805461023590610e88565b80156102825780601f1061025757610100808354040283529160200191610282565b820191906000526020600020905b81548152906001019060200180831161026557829003601f168201915b50505050509080600101805461029790610e88565b80601f01602080910402602001604051908101604052809291908181526020018280546102c390610e88565b80156103105780601f106102e557610100808354040283529160200191610310565b820191906000526020600020905b8154815290600101906020018083116102f357829003601f168201915b5050505050905082565b60016020528160005260406000206020528060005260406000206000915091509054906101000a900460ff1681565b6103cd6040518060400160405280601481526020017f64616e732050726f706f73655265736f7572636500000000000000000000000081525085858080601f016020809104026020016040519081016040528093929190818152602001838380828437600081840152601f19601f82011690508083019250505050505050346107c7565b600254341015610412576040517f08c379a000000000000000000000000000000000000000000000000000000000815260040161040990610f2b565b60405180910390fd5b6003604051806040016040528086868080601f016020809104026020016040519081016040528093929190818152602001838380828437600081840152601f19601f82011690508083019250505050505050815260200184848080601f016020809104026020016040519081016040528093929190818152602001838380828437600081840152601f19601f82011690508083019250505050505050815250908060018154018082558091505060019003906000526020600020906002020160009091909190915060008201518160000190816104ef919061111c565b506020820151816001019081610505919061111c565b50505050505050565b7f000000000000000000000000000000000000000000000000000000000000000081565b6000600481111561054657610545610bab565b5b6001600084815260200190815260200160002060003373ffffffffffffffffffffffffffffffffffffffff1673ffffffffffffffffffffffffffffffffffffffff16815260200190815260200160002060009054906101000a900460ff1660048111156105b6576105b5610bab565b5b146105f6576040517f08c379a00000000000000000000000000000000000000000000000000000000081526004016105ed90611260565b60405180910390fd5b806001600084815260200190815260200160002060003373ffffffffffffffffffffffffffffffffffffffff1673ffffffffffffffffffffffffffffffffffffffff16815260200190815260200160002060006101000a81548160ff0219169083600481111561066957610668610bab565b5b02179055507f000000000000000000000000000000000000000000000000000000000000000073ffffffffffffffffffffffffffffffffffffffff1663b1501e3b33671bc16d674ec800006040518363ffffffff1660e01b81526004016106d19291906112bb565b600060405180830381600087803b1580156106eb57600080fd5b505af11580156106ff573d6000803e3d6000fd5b505050505050565b61070f610866565b61071960006108e4565b565b60008060009054906101000a900473ffffffffffffffffffffffffffffffffffffffff16905090565b61074c610866565b600073ffffffffffffffffffffffffffffffffffffffff168173ffffffffffffffffffffffffffffffffffffffff16036107bb576040517f08c379a00000000000000000000000000000000000000000000000000000000081526004016107b290611356565b60405180910390fd5b6107c4816108e4565b50565b6108618383836040516024016107df93929190611385565b6040516020818303038152906040527f5821efa1000000000000000000000000000000000000000000000000000000007bffffffffffffffffffffffffffffffffffffffffffffffffffffffff19166020820180517bffffffffffffffffffffffffffffffffffffffffffffffffffffffff83818316178352505050506109a8565b505050565b61086e6109d1565b73ffffffffffffffffffffffffffffffffffffffff1661088c61071b565b73ffffffffffffffffffffffffffffffffffffffff16146108e2576040517f08c379a00000000000000000000000000000000000000000000000000000000081526004016108d990611416565b60405180910390fd5b565b60008060009054906101000a900473ffffffffffffffffffffffffffffffffffffffff169050816000806101000a81548173ffffffffffffffffffffffffffffffffffffffff021916908373ffffffffffffffffffffffffffffffffffffffff1602179055508173ffffffffffffffffffffffffffffffffffffffff168173ffffffffffffffffffffffffffffffffffffffff167f8be0079c531659141344cd1fd0a4f28419497f9722a3daafe3b4186f6b6457e060405160405180910390a35050565b60008151905060006a636f6e736f6c652e6c6f679050602083016000808483855afa5050505050565b600033905090565b600080fd5b600080fd5b6000819050919050565b6109f6816109e3565b8114610a0157600080fd5b50565b600081359050610a13816109ed565b92915050565b600060208284031215610a2f57610a2e6109d9565b5b6000610a3d84828501610a04565b91505092915050565b600081519050919050565b600082825260208201905092915050565b60005b83811015610a80578082015181840152602081019050610a65565b60008484015250505050565b6000601f19601f8301169050919050565b6000610aa882610a46565b610ab28185610a51565b9350610ac2818560208601610a62565b610acb81610a8c565b840191505092915050565b60006040820190508181036000830152610af08185610a9d565b90508181036020830152610b048184610a9d565b90509392505050565b600073ffffffffffffffffffffffffffffffffffffffff82169050919050565b6000610b3882610b0d565b9050919050565b610b4881610b2d565b8114610b5357600080fd5b50565b600081359050610b6581610b3f565b92915050565b60008060408385031215610b8257610b816109d9565b5b6000610b9085828601610a04565b9250506020610ba185828601610b56565b9150509250929050565b7f4e487b7100000000000000000000000000000000000000000000000000000000600052602160045260246000fd5b60058110610beb57610bea610bab565b5b50565b6000819050610bfc82610bda565b919050565b6000610c0c82610bee565b9050919050565b610c1c81610c01565b82525050565b6000602082019050610c376000830184610c13565b92915050565b600080fd5b600080fd5b600080fd5b60008083601f840112610c6257610c61610c3d565b5b8235905067ffffffffffffffff811115610c7f57610c7e610c42565b5b602083019150836001820283011115610c9b57610c9a610c47565b5b9250929050565b60008060008060408587031215610cbc57610cbb6109d9565b5b600085013567ffffffffffffffff811115610cda57610cd96109de565b5b610ce687828801610c4c565b9450945050602085013567ffffffffffffffff811115610d0957610d086109de565b5b610d1587828801610c4c565b925092505092959194509250565b6000819050919050565b6000610d48610d43610d3e84610b0d565b610d23565b610b0d565b9050919050565b6000610d5a82610d2d565b9050919050565b6000610d6c82610d4f565b9050919050565b610d7c81610d61565b82525050565b6000602082019050610d976000830184610d73565b92915050565b60058110610daa57600080fd5b50565b600081359050610dbc81610d9d565b92915050565b60008060408385031215610dd957610dd86109d9565b5b6000610de785828601610a04565b9250506020610df885828601610dad565b9150509250929050565b610e0b81610b2d565b82525050565b6000602082019050610e266000830184610e02565b92915050565b600060208284031215610e4257610e416109d9565b5b6000610e5084828501610b56565b91505092915050565b7f4e487b7100000000000000000000000000000000000000000000000000000000600052602260045260246000fd5b60006002820490506001821680610ea057607f821691505b602082108103610eb357610eb2610e59565b5b50919050565b7f596f75206e65656420746f2070617920746865207072696365206f662037206460008201527f617973206f6620686f7374696e67000000000000000000000000000000000000602082015250565b6000610f15602e83610a51565b9150610f2082610eb9565b604082019050919050565b60006020820190508181036000830152610f4481610f08565b9050919050565b7f4e487b7100000000000000000000000000000000000000000000000000000000600052604160045260246000fd5b60008190508160005260206000209050919050565b60006020601f8301049050919050565b600082821b905092915050565b600060088302610fdc7fffffffffffffffffffffffffffffffffffffffffffffffffffffffffffffffff82610f9f565b610fe68683610f9f565b95508019841693508086168417925050509392505050565b600061101961101461100f846109e3565b610d23565b6109e3565b9050919050565b6000819050919050565b61103383610ffe565b61104761103f82611020565b848454610fac565b825550505050565b600090565b61105c61104f565b61106781848461102a565b505050565b5b8181101561108b57611080600082611054565b60018101905061106d565b5050565b601f8211156110d0576110a181610f7a565b6110aa84610f8f565b810160208510156110b9578190505b6110cd6110c585610f8f565b83018261106c565b50505b505050565b600082821c905092915050565b60006110f3600019846008026110d5565b1980831691505092915050565b600061110c83836110e2565b9150826002028217905092915050565b61112582610a46565b67ffffffffffffffff81111561113e5761113d610f4b565b5b6111488254610e88565b61115382828561108f565b600060209050601f8311600181146111865760008415611174578287015190505b61117e8582611100565b8655506111e6565b601f19841661119486610f7a565b60005b828110156111bc57848901518255600182019150602085019450602081019050611197565b868310156111d957848901516111d5601f8916826110e2565b8355505b6001600288020188555050505b505050505050565b7f596f7520616c726561647920696e74657261637465642077697468207468697360008201527f207265736f757263650000000000000000000000000000000000000000000000602082015250565b600061124a602983610a51565b9150611255826111ee565b604082019050919050565b600060208201905081810360008301526112798161123d565b9050919050565b6000819050919050565b60006112a56112a061129b84611280565b610d23565b6109e3565b9050919050565b6112b58161128a565b82525050565b60006040820190506112d06000830185610e02565b6112dd60208301846112ac565b9392505050565b7f4f776e61626c653a206e6577206f776e657220697320746865207a65726f206160008201527f6464726573730000000000000000000000000000000000000000000000000000602082015250565b6000611340602683610a51565b915061134b826112e4565b604082019050919050565b6000602082019050818103600083015261136f81611333565b9050919050565b61137f816109e3565b82525050565b6000606082019050818103600083015261139f8186610a9d565b905081810360208301526113b38185610a9d565b90506113c26040830184611376565b949350505050565b7f4f776e61626c653a2063616c6c6572206973206e6f7420746865206f776e6572600082015250565b6000611400602083610a51565b915061140b826113ca565b602082019050919050565b6000602082019050818103600083015261142f816113f3565b905091905056fea26469706673582212202bac409b298283048c7e5dff48b91d9270712476aca96c00044b6f0db0aa9e2364736f6c63430008120033",
  "linkReferences": {},
  "deployedLinkReferences": {}
}