{
  "_format": "hh-sol-artifact-1",
  "contractName": "ArkaMaster",
  "sourceName": "contracts/ArkaMaster.sol",
  "abi": [
    {
      "inputs": [
        {
          "internalType": "address",
          "name": "_arkaToken",
          "type": "address"
        }
      ],
      "stateMutability": "nonpayable",
      "type": "constructor"
    },
    {
      "anonymous": false,
      "inputs": [
        {
          "indexed": true,
          "internalType": "address",
          "name": "previousOwner",
          "type": "address"
        },
        {
          "indexed": true,
          "internalType": "address",
          "name": "newOwner",
          "type": "address"
        }
      ],
      "name": "OwnershipTransferred",
      "type": "event"
    },
    {
      "inputs": [],
      "name": "arkaToken",
      "outputs": [
        {
          "internalType": "contract ArkaERC20",
          "name": "",
          "type": "address"
        }
      ],
      "stateMutability": "view",
      "type": "function"
    },
    {
      "inputs": [
        {
          "internalType": "uint256",
          "name": "idResource",
          "type": "uint256"
        },
        {
          "internalType": "enum ArkaMaster.InteractType",
          "name": "interaction",
          "type": "uint8"
        }
      ],
      "name": "interact",
      "outputs": [],
      "stateMutability": "nonpayable",
      "type": "function"
    },
    {
      "inputs": [
        {
          "internalType": "uint256",
          "name": "",
          "type": "uint256"
        },
        {
          "internalType": "address",
          "name": "",
          "type": "address"
        }
      ],
      "name": "interactions",
      "outputs": [
        {
          "internalType": "enum ArkaMaster.InteractType",
          "name": "",
          "type": "uint8"
        }
      ],
      "stateMutability": "view",
      "type": "function"
    },
    {
      "inputs": [],
      "name": "owner",
      "outputs": [
        {
          "internalType": "address",
          "name": "",
          "type": "address"
        }
      ],
      "stateMutability": "view",
      "type": "function"
    },
    {
      "inputs": [],
      "name": "renounceOwnership",
      "outputs": [],
      "stateMutability": "nonpayable",
      "type": "function"
    },
    {
      "inputs": [
        {
          "internalType": "address",
          "name": "newOwner",
          "type": "address"
        }
      ],
      "name": "transferOwnership",
      "outputs": [],
      "stateMutability": "nonpayable",
      "type": "function"
    }
  ],
  "bytecode": "0x60a060405234801561001057600080fd5b50604051610c29380380610c29833981810160405281019061003291906101b7565b61004e61004361008860201b60201c565b61009060201b60201c565b8073ffffffffffffffffffffffffffffffffffffffff1660808173ffffffffffffffffffffffffffffffffffffffff1681525050506101e4565b600033905090565b60008060009054906101000a900473ffffffffffffffffffffffffffffffffffffffff169050816000806101000a81548173ffffffffffffffffffffffffffffffffffffffff021916908373ffffffffffffffffffffffffffffffffffffffff1602179055508173ffffffffffffffffffffffffffffffffffffffff168173ffffffffffffffffffffffffffffffffffffffff167f8be0079c531659141344cd1fd0a4f28419497f9722a3daafe3b4186f6b6457e060405160405180910390a35050565b600080fd5b600073ffffffffffffffffffffffffffffffffffffffff82169050919050565b600061018482610159565b9050919050565b61019481610179565b811461019f57600080fd5b50565b6000815190506101b18161018b565b92915050565b6000602082840312156101cd576101cc610154565b5b60006101db848285016101a2565b91505092915050565b608051610a236102066000396000818161014601526102a60152610a236000f3fe608060405234801561001057600080fd5b50600436106100625760003560e01c80632c5e1aab146100675780636d153cb114610097578063701d8ef8146100b5578063715018a6146100d15780638da5cb5b146100db578063f2fde38b146100f9575b600080fd5b610081600480360381019061007c91906105e0565b610115565b60405161008e9190610697565b60405180910390f35b61009f610144565b6040516100ac9190610711565b60405180910390f35b6100cf60048036038101906100ca9190610751565b610168565b005b6100d961033d565b005b6100e3610351565b6040516100f091906107a0565b60405180910390f35b610113600480360381019061010e91906107bb565b61037a565b005b60016020528160005260406000206020528060005260406000206000915091509054906101000a900460ff1681565b7f000000000000000000000000000000000000000000000000000000000000000081565b6000600481111561017c5761017b610620565b5b6001600084815260200190815260200160002060003373ffffffffffffffffffffffffffffffffffffffff1673ffffffffffffffffffffffffffffffffffffffff16815260200190815260200160002060009054906101000a900460ff1660048111156101ec576101eb610620565b5b1461022c576040517f08c379a00000000000000000000000000000000000000000000000000000000081526004016102239061086b565b60405180910390fd5b806001600084815260200190815260200160002060003373ffffffffffffffffffffffffffffffffffffffff1673ffffffffffffffffffffffffffffffffffffffff16815260200190815260200160002060006101000a81548160ff0219169083600481111561029f5761029e610620565b5b02179055507f000000000000000000000000000000000000000000000000000000000000000073ffffffffffffffffffffffffffffffffffffffff1663b1501e3b33671bc16d674ec800006040518363ffffffff1660e01b81526004016103079291906108c6565b600060405180830381600087803b15801561032157600080fd5b505af1158015610335573d6000803e3d6000fd5b505050505050565b6103456103fd565b61034f600061047b565b565b60008060009054906101000a900473ffffffffffffffffffffffffffffffffffffffff16905090565b6103826103fd565b600073ffffffffffffffffffffffffffffffffffffffff168173ffffffffffffffffffffffffffffffffffffffff16036103f1576040517f08c379a00000000000000000000000000000000000000000000000000000000081526004016103e890610961565b60405180910390fd5b6103fa8161047b565b50565b61040561053f565b73ffffffffffffffffffffffffffffffffffffffff16610423610351565b73ffffffffffffffffffffffffffffffffffffffff1614610479576040517f08c379a0000000000000000000000000000000000000000000000000000000008152600401610470906109cd565b60405180910390fd5b565b60008060009054906101000a900473ffffffffffffffffffffffffffffffffffffffff169050816000806101000a81548173ffffffffffffffffffffffffffffffffffffffff021916908373ffffffffffffffffffffffffffffffffffffffff1602179055508173ffffffffffffffffffffffffffffffffffffffff168173ffffffffffffffffffffffffffffffffffffffff167f8be0079c531659141344cd1fd0a4f28419497f9722a3daafe3b4186f6b6457e060405160405180910390a35050565b600033905090565b600080fd5b6000819050919050565b61055f8161054c565b811461056a57600080fd5b50565b60008135905061057c81610556565b92915050565b600073ffffffffffffffffffffffffffffffffffffffff82169050919050565b60006105ad82610582565b9050919050565b6105bd816105a2565b81146105c857600080fd5b50565b6000813590506105da816105b4565b92915050565b600080604083850312156105f7576105f6610547565b5b60006106058582860161056d565b9250506020610616858286016105cb565b9150509250929050565b7f4e487b7100000000000000000000000000000000000000000000000000000000600052602160045260246000fd5b600581106106605761065f610620565b5b50565b60008190506106718261064f565b919050565b600061068182610663565b9050919050565b61069181610676565b82525050565b60006020820190506106ac6000830184610688565b92915050565b6000819050919050565b60006106d76106d26106cd84610582565b6106b2565b610582565b9050919050565b60006106e9826106bc565b9050919050565b60006106fb826106de565b9050919050565b61070b816106f0565b82525050565b60006020820190506107266000830184610702565b92915050565b6005811061073957600080fd5b50565b60008135905061074b8161072c565b92915050565b6000806040838503121561076857610767610547565b5b60006107768582860161056d565b92505060206107878582860161073c565b9150509250929050565b61079a816105a2565b82525050565b60006020820190506107b56000830184610791565b92915050565b6000602082840312156107d1576107d0610547565b5b60006107df848285016105cb565b91505092915050565b600082825260208201905092915050565b7f596f7520616c726561647920696e74657261637465642077697468207468697360008201527f207265736f757263650000000000000000000000000000000000000000000000602082015250565b60006108556029836107e8565b9150610860826107f9565b604082019050919050565b6000602082019050818103600083015261088481610848565b9050919050565b6000819050919050565b60006108b06108ab6108a68461088b565b6106b2565b61054c565b9050919050565b6108c081610895565b82525050565b60006040820190506108db6000830185610791565b6108e860208301846108b7565b9392505050565b7f4f776e61626c653a206e6577206f776e657220697320746865207a65726f206160008201527f6464726573730000000000000000000000000000000000000000000000000000602082015250565b600061094b6026836107e8565b9150610956826108ef565b604082019050919050565b6000602082019050818103600083015261097a8161093e565b9050919050565b7f4f776e61626c653a2063616c6c6572206973206e6f7420746865206f776e6572600082015250565b60006109b76020836107e8565b91506109c282610981565b602082019050919050565b600060208201905081810360008301526109e6816109aa565b905091905056fea26469706673582212206009c0a53823b9e0e7e8c5ac8d39afbd1cc7810280fab874aca1126ab1ce04c464736f6c63430008120033",
  "linkReferences": {},
  "deployedLinkReferences": {}
}