{
  "_format": "hh-sol-artifact-1",
  "contractName": "ArkaMaster",
  "sourceName": "contracts/ArkaMaster.sol",
  "abi": [
    {
      "inputs": [
        {
          "internalType": "address",
          "name": "_arkaToken",
          "type": "address"
        }
      ],
      "stateMutability": "nonpayable",
      "type": "constructor"
    },
    {
      "anonymous": false,
      "inputs": [
        {
          "indexed": false,
          "internalType": "uint256",
          "name": "idResource",
          "type": "uint256"
        },
        {
          "indexed": false,
          "internalType": "address",
          "name": "user",
          "type": "address"
        },
        {
          "indexed": false,
          "internalType": "enum ArkaMaster.InteractType",
          "name": "interaction",
          "type": "uint8"
        }
      ],
      "name": "Interaction",
      "type": "event"
    },
    {
      "anonymous": false,
      "inputs": [
        {
          "indexed": true,
          "internalType": "address",
          "name": "previousOwner",
          "type": "address"
        },
        {
          "indexed": true,
          "internalType": "address",
          "name": "newOwner",
          "type": "address"
        }
      ],
      "name": "OwnershipTransferred",
      "type": "event"
    },
    {
      "anonymous": false,
      "inputs": [
        {
          "indexed": false,
          "internalType": "string",
          "name": "description",
          "type": "string"
        },
        {
          "indexed": false,
          "internalType": "string",
          "name": "url",
          "type": "string"
        },
        {
          "indexed": false,
          "internalType": "uint256",
          "name": "endDate",
          "type": "uint256"
        }
      ],
      "name": "ResourceProposed",
      "type": "event"
    },
    {
      "inputs": [],
      "name": "arkaToken",
      "outputs": [
        {
          "internalType": "contract ArkaERC20",
          "name": "",
          "type": "address"
        }
      ],
      "stateMutability": "view",
      "type": "function"
    },
    {
      "inputs": [
        {
          "internalType": "uint256",
          "name": "_idResource",
          "type": "uint256"
        },
        {
          "internalType": "address",
          "name": "_user",
          "type": "address"
        }
      ],
      "name": "getInteraction",
      "outputs": [
        {
          "internalType": "enum ArkaMaster.InteractType",
          "name": "",
          "type": "uint8"
        }
      ],
      "stateMutability": "view",
      "type": "function"
    },
    {
      "inputs": [
        {
          "internalType": "uint256",
          "name": "_idResource",
          "type": "uint256"
        },
        {
          "internalType": "enum ArkaMaster.InteractType",
          "name": "_interaction",
          "type": "uint8"
        }
      ],
      "name": "interact",
      "outputs": [],
      "stateMutability": "nonpayable",
      "type": "function"
    },
    {
      "inputs": [
        {
          "internalType": "uint256",
          "name": "",
          "type": "uint256"
        },
        {
          "internalType": "address",
          "name": "",
          "type": "address"
        }
      ],
      "name": "interactions",
      "outputs": [
        {
          "internalType": "enum ArkaMaster.InteractType",
          "name": "",
          "type": "uint8"
        }
      ],
      "stateMutability": "view",
      "type": "function"
    },
    {
      "inputs": [],
      "name": "owner",
      "outputs": [
        {
          "internalType": "address",
          "name": "",
          "type": "address"
        }
      ],
      "stateMutability": "view",
      "type": "function"
    },
    {
      "inputs": [
        {
          "internalType": "string",
          "name": "_description",
          "type": "string"
        },
        {
          "internalType": "string",
          "name": "_url",
          "type": "string"
        }
      ],
      "name": "proposeResource",
      "outputs": [],
      "stateMutability": "payable",
      "type": "function"
    },
    {
      "inputs": [],
      "name": "renounceOwnership",
      "outputs": [],
      "stateMutability": "nonpayable",
      "type": "function"
    },
    {
      "inputs": [
        {
          "internalType": "uint256",
          "name": "",
          "type": "uint256"
        }
      ],
      "name": "resources",
      "outputs": [
        {
          "internalType": "string",
          "name": "description",
          "type": "string"
        },
        {
          "internalType": "string",
          "name": "url",
          "type": "string"
        },
        {
          "internalType": "uint256",
          "name": "endDate",
          "type": "uint256"
        }
      ],
      "stateMutability": "view",
      "type": "function"
    },
    {
      "inputs": [
        {
          "internalType": "address",
          "name": "newOwner",
          "type": "address"
        }
      ],
      "name": "transferOwnership",
      "outputs": [],
      "stateMutability": "nonpayable",
      "type": "function"
    }
  ],
  "bytecode": "0x60a0604052660221b262dd8000600155671bc16d674ec800006002553480156200002857600080fd5b506040516200190e3803806200190e83398181016040528101906200004e9190620001df565b6200006e62000062620000a960201b60201c565b620000b160201b60201c565b8073ffffffffffffffffffffffffffffffffffffffff1660808173ffffffffffffffffffffffffffffffffffffffff16815250505062000211565b600033905090565b60008060009054906101000a900473ffffffffffffffffffffffffffffffffffffffff169050816000806101000a81548173ffffffffffffffffffffffffffffffffffffffff021916908373ffffffffffffffffffffffffffffffffffffffff1602179055508173ffffffffffffffffffffffffffffffffffffffff168173ffffffffffffffffffffffffffffffffffffffff167f8be0079c531659141344cd1fd0a4f28419497f9722a3daafe3b4186f6b6457e060405160405180910390a35050565b600080fd5b600073ffffffffffffffffffffffffffffffffffffffff82169050919050565b6000620001a7826200017a565b9050919050565b620001b9816200019a565b8114620001c557600080fd5b50565b600081519050620001d981620001ae565b92915050565b600060208284031215620001f857620001f762000175565b5b60006200020884828501620001c8565b91505092915050565b6080516116da6200023460003960008181610632015261079201526116da6000f3fe6080604052600436106100865760003560e01c80636d153cb1116100595780636d153cb114610160578063701d8ef81461018b578063715018a6146101b45780638da5cb5b146101cb578063f2fde38b146101f657610086565b806304d6d9271461008b578063244d6daa146100c85780632c5e1aab14610107578063530cde9a14610144575b600080fd5b34801561009757600080fd5b506100b260048036038101906100ad9190610c38565b61021f565b6040516100bf9190610cef565b60405180910390f35b3480156100d457600080fd5b506100ef60048036038101906100ea9190610d0a565b610287565b6040516100fe93929190610dd6565b60405180910390f35b34801561011357600080fd5b5061012e60048036038101906101299190610c38565b6103d1565b60405161013b9190610cef565b60405180910390f35b61015e60048036038101906101599190610e80565b610400565b005b34801561016c57600080fd5b50610175610630565b6040516101829190610f60565b60405180910390f35b34801561019757600080fd5b506101b260048036038101906101ad9190610fa0565b610654565b005b3480156101c057600080fd5b506101c961085e565b005b3480156101d757600080fd5b506101e06108e6565b6040516101ed9190610fef565b60405180910390f35b34801561020257600080fd5b5061021d6004803603810190610218919061100a565b61090f565b005b60006004600084815260200190815260200160002060008373ffffffffffffffffffffffffffffffffffffffff1673ffffffffffffffffffffffffffffffffffffffff16815260200190815260200160002060009054906101000a900460ff16905092915050565b6003818154811061029757600080fd5b90600052602060002090600302016000915090508060000180546102ba90611066565b80601f01602080910402602001604051908101604052809291908181526020018280546102e690611066565b80156103335780601f1061030857610100808354040283529160200191610333565b820191906000526020600020905b81548152906001019060200180831161031657829003601f168201915b50505050509080600101805461034890611066565b80601f016020809104026020016040519081016040528092919081815260200182805461037490611066565b80156103c15780601f10610396576101008083540402835291602001916103c1565b820191906000526020600020905b8154815290600101906020018083116103a457829003601f168201915b5050505050908060020154905083565b60046020528160005260406000206020528060005260406000206000915091509054906101000a900460ff1681565b6104846040518060400160405280601481526020017f64616e732050726f706f73655265736f7572636500000000000000000000000081525085858080601f016020809104026020016040519081016040528093929190818152602001838380828437600081840152601f19601f8201169050808301925050505050505034610a06565b6001543410156104c9576040517f08c379a00000000000000000000000000000000000000000000000000000000081526004016104c090611109565b60405180910390fd5b6003604051806060016040528086868080601f016020809104026020016040519081016040528093929190818152602001838380828437600081840152601f19601f82011690508083019250505050505050815260200184848080601f016020809104026020016040519081016040528093929190818152602001838380828437600081840152601f19601f82011690508083019250505050505050815260200162093a80426105799190611158565b815250908060018154018082558091505060019003906000526020600020906003020160009091909190915060008201518160000190816105ba919061135d565b5060208201518160010190816105d0919061135d565b506040820151816002015550507fe1ab0213ff2d77b7c42142733c8e3966eb10397cb692040c8c054a01473ca4ef8484848462093a80426106119190611158565b60405161062295949392919061146b565b60405180910390a150505050565b7f000000000000000000000000000000000000000000000000000000000000000081565b6000600481111561066857610667610c78565b5b6004600084815260200190815260200160002060003373ffffffffffffffffffffffffffffffffffffffff1673ffffffffffffffffffffffffffffffffffffffff16815260200190815260200160002060009054906101000a900460ff1660048111156106d8576106d7610c78565b5b14610718576040517f08c379a000000000000000000000000000000000000000000000000000000000815260040161070f90611526565b60405180910390fd5b806004600084815260200190815260200160002060003373ffffffffffffffffffffffffffffffffffffffff1673ffffffffffffffffffffffffffffffffffffffff16815260200190815260200160002060006101000a81548160ff0219169083600481111561078b5761078a610c78565b5b02179055507f000000000000000000000000000000000000000000000000000000000000000073ffffffffffffffffffffffffffffffffffffffff1663b1501e3b336002546040518363ffffffff1660e01b81526004016107ed929190611546565b600060405180830381600087803b15801561080757600080fd5b505af115801561081b573d6000803e3d6000fd5b505050507f8b50b93dfb989b74b4ba087c1e13209a66a1d5c0bb792c70f4c4cf637cf1fc948233836040516108529392919061156f565b60405180910390a15050565b610866610aa5565b73ffffffffffffffffffffffffffffffffffffffff166108846108e6565b73ffffffffffffffffffffffffffffffffffffffff16146108da576040517f08c379a00000000000000000000000000000000000000000000000000000000081526004016108d1906115f2565b60405180910390fd5b6108e46000610aad565b565b60008060009054906101000a900473ffffffffffffffffffffffffffffffffffffffff16905090565b610917610aa5565b73ffffffffffffffffffffffffffffffffffffffff166109356108e6565b73ffffffffffffffffffffffffffffffffffffffff161461098b576040517f08c379a0000000000000000000000000000000000000000000000000000000008152600401610982906115f2565b60405180910390fd5b600073ffffffffffffffffffffffffffffffffffffffff168173ffffffffffffffffffffffffffffffffffffffff16036109fa576040517f08c379a00000000000000000000000000000000000000000000000000000000081526004016109f190611684565b60405180910390fd5b610a0381610aad565b50565b610aa0838383604051602401610a1e93929190610dd6565b6040516020818303038152906040527f5821efa1000000000000000000000000000000000000000000000000000000007bffffffffffffffffffffffffffffffffffffffffffffffffffffffff19166020820180517bffffffffffffffffffffffffffffffffffffffffffffffffffffffff8381831617835250505050610b71565b505050565b600033905090565b60008060009054906101000a900473ffffffffffffffffffffffffffffffffffffffff169050816000806101000a81548173ffffffffffffffffffffffffffffffffffffffff021916908373ffffffffffffffffffffffffffffffffffffffff1602179055508173ffffffffffffffffffffffffffffffffffffffff168173ffffffffffffffffffffffffffffffffffffffff167f8be0079c531659141344cd1fd0a4f28419497f9722a3daafe3b4186f6b6457e060405160405180910390a35050565b60008151905060006a636f6e736f6c652e6c6f679050602083016000808483855afa5050505050565b600080fd5b600080fd5b6000819050919050565b610bb781610ba4565b8114610bc257600080fd5b50565b600081359050610bd481610bae565b92915050565b600073ffffffffffffffffffffffffffffffffffffffff82169050919050565b6000610c0582610bda565b9050919050565b610c1581610bfa565b8114610c2057600080fd5b50565b600081359050610c3281610c0c565b92915050565b60008060408385031215610c4f57610c4e610b9a565b5b6000610c5d85828601610bc5565b9250506020610c6e85828601610c23565b9150509250929050565b7f4e487b7100000000000000000000000000000000000000000000000000000000600052602160045260246000fd5b60058110610cb857610cb7610c78565b5b50565b6000819050610cc982610ca7565b919050565b6000610cd982610cbb565b9050919050565b610ce981610cce565b82525050565b6000602082019050610d046000830184610ce0565b92915050565b600060208284031215610d2057610d1f610b9a565b5b6000610d2e84828501610bc5565b91505092915050565b600081519050919050565b600082825260208201905092915050565b60005b83811015610d71578082015181840152602081019050610d56565b60008484015250505050565b6000601f19601f8301169050919050565b6000610d9982610d37565b610da38185610d42565b9350610db3818560208601610d53565b610dbc81610d7d565b840191505092915050565b610dd081610ba4565b82525050565b60006060820190508181036000830152610df08186610d8e565b90508181036020830152610e048185610d8e565b9050610e136040830184610dc7565b949350505050565b600080fd5b600080fd5b600080fd5b60008083601f840112610e4057610e3f610e1b565b5b8235905067ffffffffffffffff811115610e5d57610e5c610e20565b5b602083019150836001820283011115610e7957610e78610e25565b5b9250929050565b60008060008060408587031215610e9a57610e99610b9a565b5b600085013567ffffffffffffffff811115610eb857610eb7610b9f565b5b610ec487828801610e2a565b9450945050602085013567ffffffffffffffff811115610ee757610ee6610b9f565b5b610ef387828801610e2a565b925092505092959194509250565b6000819050919050565b6000610f26610f21610f1c84610bda565b610f01565b610bda565b9050919050565b6000610f3882610f0b565b9050919050565b6000610f4a82610f2d565b9050919050565b610f5a81610f3f565b82525050565b6000602082019050610f756000830184610f51565b92915050565b60058110610f8857600080fd5b50565b600081359050610f9a81610f7b565b92915050565b60008060408385031215610fb757610fb6610b9a565b5b6000610fc585828601610bc5565b9250506020610fd685828601610f8b565b9150509250929050565b610fe981610bfa565b82525050565b60006020820190506110046000830184610fe0565b92915050565b6000602082840312156110205761101f610b9a565b5b600061102e84828501610c23565b91505092915050565b7f4e487b7100000000000000000000000000000000000000000000000000000000600052602260045260246000fd5b6000600282049050600182168061107e57607f821691505b60208210810361109157611090611037565b5b50919050565b7f596f75206e65656420746f2070617920746865207072696365206f662037206460008201527f617973206f6620686f7374696e67000000000000000000000000000000000000602082015250565b60006110f3602e83610d42565b91506110fe82611097565b604082019050919050565b60006020820190508181036000830152611122816110e6565b9050919050565b7f4e487b7100000000000000000000000000000000000000000000000000000000600052601160045260246000fd5b600061116382610ba4565b915061116e83610ba4565b925082820190508082111561118657611185611129565b5b92915050565b7f4e487b7100000000000000000000000000000000000000000000000000000000600052604160045260246000fd5b60008190508160005260206000209050919050565b60006020601f8301049050919050565b600082821b905092915050565b60006008830261121d7fffffffffffffffffffffffffffffffffffffffffffffffffffffffffffffffff826111e0565b61122786836111e0565b95508019841693508086168417925050509392505050565b600061125a61125561125084610ba4565b610f01565b610ba4565b9050919050565b6000819050919050565b6112748361123f565b61128861128082611261565b8484546111ed565b825550505050565b600090565b61129d611290565b6112a881848461126b565b505050565b5b818110156112cc576112c1600082611295565b6001810190506112ae565b5050565b601f821115611311576112e2816111bb565b6112eb846111d0565b810160208510156112fa578190505b61130e611306856111d0565b8301826112ad565b50505b505050565b600082821c905092915050565b600061133460001984600802611316565b1980831691505092915050565b600061134d8383611323565b9150826002028217905092915050565b61136682610d37565b67ffffffffffffffff81111561137f5761137e61118c565b5b6113898254611066565b6113948282856112d0565b600060209050601f8311600181146113c757600084156113b5578287015190505b6113bf8582611341565b865550611427565b601f1984166113d5866111bb565b60005b828110156113fd578489015182556001820191506020850194506020810190506113d8565b8683101561141a5784890151611416601f891682611323565b8355505b6001600288020188555050505b505050505050565b82818337600083830152505050565b600061144a8385610d42565b935061145783858461142f565b61146083610d7d565b840190509392505050565b6000606082019050818103600083015261148681878961143e565b9050818103602083015261149b81858761143e565b90506114aa6040830184610dc7565b9695505050505050565b7f596f7520616c72656164792061646420696e746572616374696f6e206f6e207460008201527f686973207265736f757263650000000000000000000000000000000000000000602082015250565b6000611510602c83610d42565b915061151b826114b4565b604082019050919050565b6000602082019050818103600083015261153f81611503565b9050919050565b600060408201905061155b6000830185610fe0565b6115686020830184610dc7565b9392505050565b60006060820190506115846000830186610dc7565b6115916020830185610fe0565b61159e6040830184610ce0565b949350505050565b7f4f776e61626c653a2063616c6c6572206973206e6f7420746865206f776e6572600082015250565b60006115dc602083610d42565b91506115e7826115a6565b602082019050919050565b6000602082019050818103600083015261160b816115cf565b9050919050565b7f4f776e61626c653a206e6577206f776e657220697320746865207a65726f206160008201527f6464726573730000000000000000000000000000000000000000000000000000602082015250565b600061166e602683610d42565b915061167982611612565b604082019050919050565b6000602082019050818103600083015261169d81611661565b905091905056fea26469706673582212203dfe7f933eba2d1ade4c6268423a80db14e8ec98a7039dda9c9d224a343cb98b64736f6c63430008120033",
  "linkReferences": {},
  "deployedLinkReferences": {}
}