{
  "_format": "hh-sol-artifact-1",
  "contractName": "ArkaMaster",
  "sourceName": "contracts/ArkaMaster.sol",
  "abi": [
    {
      "inputs": [
        {
          "internalType": "address",
          "name": "_arkaToken",
          "type": "address"
        },
        {
          "internalType": "address",
          "name": "_priceFeedEthUsd",
          "type": "address"
        }
      ],
      "stateMutability": "nonpayable",
      "type": "constructor"
    },
    {
      "anonymous": false,
      "inputs": [
        {
          "indexed": false,
          "internalType": "uint256",
          "name": "idResource",
          "type": "uint256"
        },
        {
          "indexed": false,
          "internalType": "address",
          "name": "user",
          "type": "address"
        },
        {
          "indexed": false,
          "internalType": "enum ArkaMaster.InteractType",
          "name": "interaction",
          "type": "uint8"
        }
      ],
      "name": "Interaction",
      "type": "event"
    },
    {
      "anonymous": false,
      "inputs": [
        {
          "indexed": true,
          "internalType": "address",
          "name": "previousOwner",
          "type": "address"
        },
        {
          "indexed": true,
          "internalType": "address",
          "name": "newOwner",
          "type": "address"
        }
      ],
      "name": "OwnershipTransferred",
      "type": "event"
    },
    {
      "anonymous": false,
      "inputs": [
        {
          "indexed": false,
          "internalType": "string",
          "name": "description",
          "type": "string"
        },
        {
          "indexed": false,
          "internalType": "string",
          "name": "url",
          "type": "string"
        },
        {
          "indexed": false,
          "internalType": "uint256",
          "name": "endDate",
          "type": "uint256"
        }
      ],
      "name": "ResourceProposed",
      "type": "event"
    },
    {
      "inputs": [],
      "name": "arkaToken",
      "outputs": [
        {
          "internalType": "contract ArkaERC20",
          "name": "",
          "type": "address"
        }
      ],
      "stateMutability": "view",
      "type": "function"
    },
    {
      "inputs": [
        {
          "internalType": "uint256",
          "name": "_idResource",
          "type": "uint256"
        },
        {
          "internalType": "address",
          "name": "_user",
          "type": "address"
        }
      ],
      "name": "getInteraction",
      "outputs": [
        {
          "internalType": "enum ArkaMaster.InteractType",
          "name": "",
          "type": "uint8"
        }
      ],
      "stateMutability": "view",
      "type": "function"
    },
    {
      "inputs": [],
      "name": "getPriceForProposalInWei",
      "outputs": [
        {
          "internalType": "uint256",
          "name": "",
          "type": "uint256"
        }
      ],
      "stateMutability": "view",
      "type": "function"
    },
    {
      "inputs": [
        {
          "internalType": "uint256",
          "name": "_idResource",
          "type": "uint256"
        },
        {
          "internalType": "enum ArkaMaster.InteractType",
          "name": "_interaction",
          "type": "uint8"
        }
      ],
      "name": "interact",
      "outputs": [],
      "stateMutability": "nonpayable",
      "type": "function"
    },
    {
      "inputs": [
        {
          "internalType": "uint256",
          "name": "",
          "type": "uint256"
        },
        {
          "internalType": "address",
          "name": "",
          "type": "address"
        }
      ],
      "name": "interactions",
      "outputs": [
        {
          "internalType": "enum ArkaMaster.InteractType",
          "name": "",
          "type": "uint8"
        }
      ],
      "stateMutability": "view",
      "type": "function"
    },
    {
      "inputs": [],
      "name": "owner",
      "outputs": [
        {
          "internalType": "address",
          "name": "",
          "type": "address"
        }
      ],
      "stateMutability": "view",
      "type": "function"
    },
    {
      "inputs": [],
      "name": "priceFeedEthUsd",
      "outputs": [
        {
          "internalType": "contract ChainlinkEthUsd",
          "name": "",
          "type": "address"
        }
      ],
      "stateMutability": "view",
      "type": "function"
    },
    {
      "inputs": [
        {
          "internalType": "string",
          "name": "_description",
          "type": "string"
        },
        {
          "internalType": "string",
          "name": "_url",
          "type": "string"
        }
      ],
      "name": "proposeResource",
      "outputs": [],
      "stateMutability": "payable",
      "type": "function"
    },
    {
      "inputs": [],
      "name": "renounceOwnership",
      "outputs": [],
      "stateMutability": "nonpayable",
      "type": "function"
    },
    {
      "inputs": [
        {
          "internalType": "uint256",
          "name": "",
          "type": "uint256"
        }
      ],
      "name": "resources",
      "outputs": [
        {
          "internalType": "string",
          "name": "description",
          "type": "string"
        },
        {
          "internalType": "string",
          "name": "url",
          "type": "string"
        },
        {
          "internalType": "uint256",
          "name": "endDate",
          "type": "uint256"
        }
      ],
      "stateMutability": "view",
      "type": "function"
    },
    {
      "inputs": [
        {
          "internalType": "address",
          "name": "newOwner",
          "type": "address"
        }
      ],
      "name": "transferOwnership",
      "outputs": [],
      "stateMutability": "nonpayable",
      "type": "function"
    }
  ],
  "bytecode": "0x60a0604052600a600255660221b262dd8000600355671bc16d674ec800006004553480156200002d57600080fd5b5060405162001dcc38038062001dcc833981810160405281019062000053919062000226565b6200007362000067620000f060201b60201c565b620000f860201b60201c565b8173ffffffffffffffffffffffffffffffffffffffff1660808173ffffffffffffffffffffffffffffffffffffffff168152505080600160006101000a81548173ffffffffffffffffffffffffffffffffffffffff021916908373ffffffffffffffffffffffffffffffffffffffff16021790555050506200026d565b600033905090565b60008060009054906101000a900473ffffffffffffffffffffffffffffffffffffffff169050816000806101000a81548173ffffffffffffffffffffffffffffffffffffffff021916908373ffffffffffffffffffffffffffffffffffffffff1602179055508173ffffffffffffffffffffffffffffffffffffffff168173ffffffffffffffffffffffffffffffffffffffff167f8be0079c531659141344cd1fd0a4f28419497f9722a3daafe3b4186f6b6457e060405160405180910390a35050565b600080fd5b600073ffffffffffffffffffffffffffffffffffffffff82169050919050565b6000620001ee82620001c1565b9050919050565b6200020081620001e1565b81146200020c57600080fd5b50565b6000815190506200022081620001f5565b92915050565b6000806040838503121562000240576200023f620001bc565b5b600062000250858286016200020f565b925050602062000263858286016200020f565b9150509250929050565b608051611b3c62000290600039600081816106a301526108030152611b3c6000f3fe60806040526004361061009c5760003560e01c8063701d8ef811610064578063701d8ef8146101a1578063715018a6146101ca5780638da5cb5b146101e15780639ad0e6c61461020c578063e38c3c2614610237578063f2fde38b146102625761009c565b806304d6d927146100a1578063244d6daa146100de5780632c5e1aab1461011d578063530cde9a1461015a5780636d153cb114610176575b600080fd5b3480156100ad57600080fd5b506100c860048036038101906100c39190610e68565b61028b565b6040516100d59190610f1f565b60405180910390f35b3480156100ea57600080fd5b5061010560048036038101906101009190610f3a565b6102f3565b60405161011493929190611006565b60405180910390f35b34801561012957600080fd5b50610144600480360381019061013f9190610e68565b61043d565b6040516101519190610f1f565b60405180910390f35b610174600480360381019061016f91906110b0565b61046c565b005b34801561018257600080fd5b5061018b6106a1565b6040516101989190611190565b60405180910390f35b3480156101ad57600080fd5b506101c860048036038101906101c391906111d0565b6106c5565b005b3480156101d657600080fd5b506101df6108cf565b005b3480156101ed57600080fd5b506101f6610957565b604051610203919061121f565b60405180910390f35b34801561021857600080fd5b50610221610980565b60405161022e919061125b565b60405180910390f35b34801561024357600080fd5b5061024c6109a6565b6040516102599190611276565b60405180910390f35b34801561026e57600080fd5b5061028960048036038101906102849190611291565b610b3f565b005b60006006600084815260200190815260200160002060008373ffffffffffffffffffffffffffffffffffffffff1673ffffffffffffffffffffffffffffffffffffffff16815260200190815260200160002060009054906101000a900460ff16905092915050565b6005818154811061030357600080fd5b9060005260206000209060030201600091509050806000018054610326906112ed565b80601f0160208091040260200160405190810160405280929190818152602001828054610352906112ed565b801561039f5780601f106103745761010080835404028352916020019161039f565b820191906000526020600020905b81548152906001019060200180831161038257829003601f168201915b5050505050908060010180546103b4906112ed565b80601f01602080910402602001604051908101604052809291908181526020018280546103e0906112ed565b801561042d5780601f106104025761010080835404028352916020019161042d565b820191906000526020600020905b81548152906001019060200180831161041057829003601f168201915b5050505050908060020154905083565b60066020528160005260406000206020528060005260406000206000915091509054906101000a900460ff1681565b6104f06040518060400160405280601481526020017f64616e732050726f706f73655265736f7572636500000000000000000000000081525085858080601f016020809104026020016040519081016040528093929190818152602001838380828437600081840152601f19601f8201169050808301925050505050505034610c36565b6104f86109a6565b34101561053a576040517f08c379a000000000000000000000000000000000000000000000000000000000815260040161053190611390565b60405180910390fd5b6005604051806060016040528086868080601f016020809104026020016040519081016040528093929190818152602001838380828437600081840152601f19601f82011690508083019250505050505050815260200184848080601f016020809104026020016040519081016040528093929190818152602001838380828437600081840152601f19601f82011690508083019250505050505050815260200162093a80426105ea91906113df565b8152509080600181540180825580915050600190039060005260206000209060030201600090919091909150600082015181600001908161062b91906115e4565b50602082015181600101908161064191906115e4565b506040820151816002015550507fe1ab0213ff2d77b7c42142733c8e3966eb10397cb692040c8c054a01473ca4ef8484848462093a804261068291906113df565b6040516106939594939291906116f2565b60405180910390a150505050565b7f000000000000000000000000000000000000000000000000000000000000000081565b600060048111156106d9576106d8610ea8565b5b6006600084815260200190815260200160002060003373ffffffffffffffffffffffffffffffffffffffff1673ffffffffffffffffffffffffffffffffffffffff16815260200190815260200160002060009054906101000a900460ff16600481111561074957610748610ea8565b5b14610789576040517f08c379a0000000000000000000000000000000000000000000000000000000008152600401610780906117ad565b60405180910390fd5b806006600084815260200190815260200160002060003373ffffffffffffffffffffffffffffffffffffffff1673ffffffffffffffffffffffffffffffffffffffff16815260200190815260200160002060006101000a81548160ff021916908360048111156107fc576107fb610ea8565b5b02179055507f000000000000000000000000000000000000000000000000000000000000000073ffffffffffffffffffffffffffffffffffffffff1663b1501e3b336004546040518363ffffffff1660e01b815260040161085e9291906117cd565b600060405180830381600087803b15801561087857600080fd5b505af115801561088c573d6000803e3d6000fd5b505050507f8b50b93dfb989b74b4ba087c1e13209a66a1d5c0bb792c70f4c4cf637cf1fc948233836040516108c3939291906117f6565b60405180910390a15050565b6108d7610cd5565b73ffffffffffffffffffffffffffffffffffffffff166108f5610957565b73ffffffffffffffffffffffffffffffffffffffff161461094b576040517f08c379a000000000000000000000000000000000000000000000000000000000815260040161094290611879565b60405180910390fd5b6109556000610cdd565b565b60008060009054906101000a900473ffffffffffffffffffffffffffffffffffffffff16905090565b600160009054906101000a900473ffffffffffffffffffffffffffffffffffffffff1681565b600080600160009054906101000a900473ffffffffffffffffffffffffffffffffffffffff1673ffffffffffffffffffffffffffffffffffffffff16638e15f4736040518163ffffffff1660e01b8152600401602060405180830381865afa158015610a16573d6000803e3d6000fd5b505050506040513d601f19601f82011682018060405250810190610a3a91906118cf565b13610a7a576040517f08c379a0000000000000000000000000000000000000000000000000000000008152600401610a7190611948565b60405180910390fd5b6305f5e100600160009054906101000a900473ffffffffffffffffffffffffffffffffffffffff1673ffffffffffffffffffffffffffffffffffffffff16638e15f4736040518163ffffffff1660e01b8152600401602060405180830381865afa158015610aec573d6000803e3d6000fd5b505050506040513d601f19601f82011682018060405250810190610b1091906118cf565b610b1a9190611997565b600254670de0b6b3a7640000610b309190611a01565b610b3a9190611a43565b905090565b610b47610cd5565b73ffffffffffffffffffffffffffffffffffffffff16610b65610957565b73ffffffffffffffffffffffffffffffffffffffff1614610bbb576040517f08c379a0000000000000000000000000000000000000000000000000000000008152600401610bb290611879565b60405180910390fd5b600073ffffffffffffffffffffffffffffffffffffffff168173ffffffffffffffffffffffffffffffffffffffff1603610c2a576040517f08c379a0000000000000000000000000000000000000000000000000000000008152600401610c2190611ae6565b60405180910390fd5b610c3381610cdd565b50565b610cd0838383604051602401610c4e93929190611006565b6040516020818303038152906040527f5821efa1000000000000000000000000000000000000000000000000000000007bffffffffffffffffffffffffffffffffffffffffffffffffffffffff19166020820180517bffffffffffffffffffffffffffffffffffffffffffffffffffffffff8381831617835250505050610da1565b505050565b600033905090565b60008060009054906101000a900473ffffffffffffffffffffffffffffffffffffffff169050816000806101000a81548173ffffffffffffffffffffffffffffffffffffffff021916908373ffffffffffffffffffffffffffffffffffffffff1602179055508173ffffffffffffffffffffffffffffffffffffffff168173ffffffffffffffffffffffffffffffffffffffff167f8be0079c531659141344cd1fd0a4f28419497f9722a3daafe3b4186f6b6457e060405160405180910390a35050565b60008151905060006a636f6e736f6c652e6c6f679050602083016000808483855afa5050505050565b600080fd5b600080fd5b6000819050919050565b610de781610dd4565b8114610df257600080fd5b50565b600081359050610e0481610dde565b92915050565b600073ffffffffffffffffffffffffffffffffffffffff82169050919050565b6000610e3582610e0a565b9050919050565b610e4581610e2a565b8114610e5057600080fd5b50565b600081359050610e6281610e3c565b92915050565b60008060408385031215610e7f57610e7e610dca565b5b6000610e8d85828601610df5565b9250506020610e9e85828601610e53565b9150509250929050565b7f4e487b7100000000000000000000000000000000000000000000000000000000600052602160045260246000fd5b60058110610ee857610ee7610ea8565b5b50565b6000819050610ef982610ed7565b919050565b6000610f0982610eeb565b9050919050565b610f1981610efe565b82525050565b6000602082019050610f346000830184610f10565b92915050565b600060208284031215610f5057610f4f610dca565b5b6000610f5e84828501610df5565b91505092915050565b600081519050919050565b600082825260208201905092915050565b60005b83811015610fa1578082015181840152602081019050610f86565b60008484015250505050565b6000601f19601f8301169050919050565b6000610fc982610f67565b610fd38185610f72565b9350610fe3818560208601610f83565b610fec81610fad565b840191505092915050565b61100081610dd4565b82525050565b600060608201905081810360008301526110208186610fbe565b905081810360208301526110348185610fbe565b90506110436040830184610ff7565b949350505050565b600080fd5b600080fd5b600080fd5b60008083601f8401126110705761106f61104b565b5b8235905067ffffffffffffffff81111561108d5761108c611050565b5b6020830191508360018202830111156110a9576110a8611055565b5b9250929050565b600080600080604085870312156110ca576110c9610dca565b5b600085013567ffffffffffffffff8111156110e8576110e7610dcf565b5b6110f48782880161105a565b9450945050602085013567ffffffffffffffff81111561111757611116610dcf565b5b6111238782880161105a565b925092505092959194509250565b6000819050919050565b600061115661115161114c84610e0a565b611131565b610e0a565b9050919050565b60006111688261113b565b9050919050565b600061117a8261115d565b9050919050565b61118a8161116f565b82525050565b60006020820190506111a56000830184611181565b92915050565b600581106111b857600080fd5b50565b6000813590506111ca816111ab565b92915050565b600080604083850312156111e7576111e6610dca565b5b60006111f585828601610df5565b9250506020611206858286016111bb565b9150509250929050565b61121981610e2a565b82525050565b60006020820190506112346000830184611210565b92915050565b60006112458261115d565b9050919050565b6112558161123a565b82525050565b6000602082019050611270600083018461124c565b92915050565b600060208201905061128b6000830184610ff7565b92915050565b6000602082840312156112a7576112a6610dca565b5b60006112b584828501610e53565b91505092915050565b7f4e487b7100000000000000000000000000000000000000000000000000000000600052602260045260246000fd5b6000600282049050600182168061130557607f821691505b602082108103611318576113176112be565b5b50919050565b7f596f75206e65656420746f2070617920746865207072696365206f662037206460008201527f617973206f6620686f7374696e67000000000000000000000000000000000000602082015250565b600061137a602e83610f72565b91506113858261131e565b604082019050919050565b600060208201905081810360008301526113a98161136d565b9050919050565b7f4e487b7100000000000000000000000000000000000000000000000000000000600052601160045260246000fd5b60006113ea82610dd4565b91506113f583610dd4565b925082820190508082111561140d5761140c6113b0565b5b92915050565b7f4e487b7100000000000000000000000000000000000000000000000000000000600052604160045260246000fd5b60008190508160005260206000209050919050565b60006020601f8301049050919050565b600082821b905092915050565b6000600883026114a47fffffffffffffffffffffffffffffffffffffffffffffffffffffffffffffffff82611467565b6114ae8683611467565b95508019841693508086168417925050509392505050565b60006114e16114dc6114d784610dd4565b611131565b610dd4565b9050919050565b6000819050919050565b6114fb836114c6565b61150f611507826114e8565b848454611474565b825550505050565b600090565b611524611517565b61152f8184846114f2565b505050565b5b818110156115535761154860008261151c565b600181019050611535565b5050565b601f8211156115985761156981611442565b61157284611457565b81016020851015611581578190505b61159561158d85611457565b830182611534565b50505b505050565b600082821c905092915050565b60006115bb6000198460080261159d565b1980831691505092915050565b60006115d483836115aa565b9150826002028217905092915050565b6115ed82610f67565b67ffffffffffffffff81111561160657611605611413565b5b61161082546112ed565b61161b828285611557565b600060209050601f83116001811461164e576000841561163c578287015190505b61164685826115c8565b8655506116ae565b601f19841661165c86611442565b60005b828110156116845784890151825560018201915060208501945060208101905061165f565b868310156116a1578489015161169d601f8916826115aa565b8355505b6001600288020188555050505b505050505050565b82818337600083830152505050565b60006116d18385610f72565b93506116de8385846116b6565b6116e783610fad565b840190509392505050565b6000606082019050818103600083015261170d8187896116c5565b905081810360208301526117228185876116c5565b90506117316040830184610ff7565b9695505050505050565b7f596f7520616c72656164792061646420696e746572616374696f6e206f6e207460008201527f686973207265736f757263650000000000000000000000000000000000000000602082015250565b6000611797602c83610f72565b91506117a28261173b565b604082019050919050565b600060208201905081810360008301526117c68161178a565b9050919050565b60006040820190506117e26000830185611210565b6117ef6020830184610ff7565b9392505050565b600060608201905061180b6000830186610ff7565b6118186020830185611210565b6118256040830184610f10565b949350505050565b7f4f776e61626c653a2063616c6c6572206973206e6f7420746865206f776e6572600082015250565b6000611863602083610f72565b915061186e8261182d565b602082019050919050565b6000602082019050818103600083015261189281611856565b9050919050565b6000819050919050565b6118ac81611899565b81146118b757600080fd5b50565b6000815190506118c9816118a3565b92915050565b6000602082840312156118e5576118e4610dca565b5b60006118f3848285016118ba565b91505092915050565b7f50726963652066656564206973206e6f7420617661696c61626c650000000000600082015250565b6000611932601b83610f72565b915061193d826118fc565b602082019050919050565b6000602082019050818103600083015261196181611925565b9050919050565b7f4e487b7100000000000000000000000000000000000000000000000000000000600052601260045260246000fd5b60006119a282611899565b91506119ad83611899565b9250826119bd576119bc611968565b5b600160000383147f8000000000000000000000000000000000000000000000000000000000000000831416156119f6576119f56113b0565b5b828205905092915050565b6000611a0c82610dd4565b9150611a1783610dd4565b9250828202611a2581610dd4565b91508282048414831517611a3c57611a3b6113b0565b5b5092915050565b6000611a4e82610dd4565b9150611a5983610dd4565b925082611a6957611a68611968565b5b828204905092915050565b7f4f776e61626c653a206e6577206f776e657220697320746865207a65726f206160008201527f6464726573730000000000000000000000000000000000000000000000000000602082015250565b6000611ad0602683610f72565b9150611adb82611a74565b604082019050919050565b60006020820190508181036000830152611aff81611ac3565b905091905056fea26469706673582212203c1fcd15955edf8e4d69bdace3aa258e1b9dae7bdd4287022875e6c661f0727864736f6c63430008120033",
  "linkReferences": {},
  "deployedLinkReferences": {}
}