{
  "_format": "hh-sol-artifact-1",
  "contractName": "ArkaMaster",
  "sourceName": "contracts/ArkaMaster.sol",
  "abi": [
    {
      "inputs": [
        {
          "internalType": "address",
          "name": "_arkaToken",
          "type": "address"
        }
      ],
      "stateMutability": "nonpayable",
      "type": "constructor"
    },
    {
      "anonymous": false,
      "inputs": [
        {
          "indexed": false,
          "internalType": "uint256",
          "name": "idResource",
          "type": "uint256"
        },
        {
          "indexed": false,
          "internalType": "address",
          "name": "user",
          "type": "address"
        },
        {
          "indexed": false,
          "internalType": "enum ArkaMaster.InteractType",
          "name": "interaction",
          "type": "uint8"
        }
      ],
      "name": "Interaction",
      "type": "event"
    },
    {
      "anonymous": false,
      "inputs": [
        {
          "indexed": true,
          "internalType": "address",
          "name": "previousOwner",
          "type": "address"
        },
        {
          "indexed": true,
          "internalType": "address",
          "name": "newOwner",
          "type": "address"
        }
      ],
      "name": "OwnershipTransferred",
      "type": "event"
    },
    {
      "anonymous": false,
      "inputs": [
        {
          "indexed": false,
          "internalType": "string",
          "name": "description",
          "type": "string"
        },
        {
          "indexed": false,
          "internalType": "string",
          "name": "url",
          "type": "string"
        },
        {
          "indexed": false,
          "internalType": "uint256",
          "name": "endDate",
          "type": "uint256"
        }
      ],
      "name": "ResourceProposed",
      "type": "event"
    },
    {
      "inputs": [],
      "name": "arkaToken",
      "outputs": [
        {
          "internalType": "contract ArkaERC20",
          "name": "",
          "type": "address"
        }
      ],
      "stateMutability": "view",
      "type": "function"
    },
    {
      "inputs": [
        {
          "internalType": "uint256",
          "name": "_idResource",
          "type": "uint256"
        },
        {
          "internalType": "address",
          "name": "_user",
          "type": "address"
        }
      ],
      "name": "getInteraction",
      "outputs": [
        {
          "internalType": "enum ArkaMaster.InteractType",
          "name": "",
          "type": "uint8"
        }
      ],
      "stateMutability": "view",
      "type": "function"
    },
    {
      "inputs": [
        {
          "internalType": "uint256",
          "name": "_idResource",
          "type": "uint256"
        },
        {
          "internalType": "enum ArkaMaster.InteractType",
          "name": "_interaction",
          "type": "uint8"
        }
      ],
      "name": "interact",
      "outputs": [],
      "stateMutability": "nonpayable",
      "type": "function"
    },
    {
      "inputs": [
        {
          "internalType": "uint256",
          "name": "",
          "type": "uint256"
        },
        {
          "internalType": "address",
          "name": "",
          "type": "address"
        }
      ],
      "name": "interactions",
      "outputs": [
        {
          "internalType": "enum ArkaMaster.InteractType",
          "name": "",
          "type": "uint8"
        }
      ],
      "stateMutability": "view",
      "type": "function"
    },
    {
      "inputs": [],
      "name": "owner",
      "outputs": [
        {
          "internalType": "address",
          "name": "",
          "type": "address"
        }
      ],
      "stateMutability": "view",
      "type": "function"
    },
    {
      "inputs": [
        {
          "internalType": "string",
          "name": "_description",
          "type": "string"
        },
        {
          "internalType": "string",
          "name": "_url",
          "type": "string"
        }
      ],
      "name": "proposeResource",
      "outputs": [],
      "stateMutability": "payable",
      "type": "function"
    },
    {
      "inputs": [],
      "name": "renounceOwnership",
      "outputs": [],
      "stateMutability": "nonpayable",
      "type": "function"
    },
    {
      "inputs": [
        {
          "internalType": "uint256",
          "name": "",
          "type": "uint256"
        }
      ],
      "name": "resources",
      "outputs": [
        {
          "internalType": "string",
          "name": "description",
          "type": "string"
        },
        {
          "internalType": "string",
          "name": "url",
          "type": "string"
        },
        {
          "internalType": "uint256",
          "name": "endDate",
          "type": "uint256"
        }
      ],
      "stateMutability": "view",
      "type": "function"
    },
    {
      "inputs": [
        {
          "internalType": "address",
          "name": "newOwner",
          "type": "address"
        }
      ],
      "name": "transferOwnership",
      "outputs": [],
      "stateMutability": "nonpayable",
      "type": "function"
    }
  ],
  "bytecode": "0x60a0604052660221b262dd8000600155671bc16d674ec800006002553480156200002857600080fd5b50604051620018a4380380620018a483398181016040528101906200004e9190620001df565b6200006e62000062620000a960201b60201c565b620000b160201b60201c565b8073ffffffffffffffffffffffffffffffffffffffff1660808173ffffffffffffffffffffffffffffffffffffffff16815250505062000211565b600033905090565b60008060009054906101000a900473ffffffffffffffffffffffffffffffffffffffff169050816000806101000a81548173ffffffffffffffffffffffffffffffffffffffff021916908373ffffffffffffffffffffffffffffffffffffffff1602179055508173ffffffffffffffffffffffffffffffffffffffff168173ffffffffffffffffffffffffffffffffffffffff167f8be0079c531659141344cd1fd0a4f28419497f9722a3daafe3b4186f6b6457e060405160405180910390a35050565b600080fd5b600073ffffffffffffffffffffffffffffffffffffffff82169050919050565b6000620001a7826200017a565b9050919050565b620001b9816200019a565b8114620001c557600080fd5b50565b600081519050620001d981620001ae565b92915050565b600060208284031215620001f857620001f762000175565b5b60006200020884828501620001c8565b91505092915050565b6080516116706200023460003960008181610632015261079201526116706000f3fe6080604052600436106100865760003560e01c80636d153cb1116100595780636d153cb114610160578063701d8ef81461018b578063715018a6146101b45780638da5cb5b146101cb578063f2fde38b146101f657610086565b806304d6d9271461008b578063244d6daa146100c85780632c5e1aab14610107578063530cde9a14610144575b600080fd5b34801561009757600080fd5b506100b260048036038101906100ad9190610bce565b61021f565b6040516100bf9190610c85565b60405180910390f35b3480156100d457600080fd5b506100ef60048036038101906100ea9190610ca0565b610287565b6040516100fe93929190610d6c565b60405180910390f35b34801561011357600080fd5b5061012e60048036038101906101299190610bce565b6103d1565b60405161013b9190610c85565b60405180910390f35b61015e60048036038101906101599190610e16565b610400565b005b34801561016c57600080fd5b50610175610630565b6040516101829190610ef6565b60405180910390f35b34801561019757600080fd5b506101b260048036038101906101ad9190610f36565b610654565b005b3480156101c057600080fd5b506101c961085e565b005b3480156101d757600080fd5b506101e0610872565b6040516101ed9190610f85565b60405180910390f35b34801561020257600080fd5b5061021d60048036038101906102189190610fa0565b61089b565b005b60006004600084815260200190815260200160002060008373ffffffffffffffffffffffffffffffffffffffff1673ffffffffffffffffffffffffffffffffffffffff16815260200190815260200160002060009054906101000a900460ff16905092915050565b6003818154811061029757600080fd5b90600052602060002090600302016000915090508060000180546102ba90610ffc565b80601f01602080910402602001604051908101604052809291908181526020018280546102e690610ffc565b80156103335780601f1061030857610100808354040283529160200191610333565b820191906000526020600020905b81548152906001019060200180831161031657829003601f168201915b50505050509080600101805461034890610ffc565b80601f016020809104026020016040519081016040528092919081815260200182805461037490610ffc565b80156103c15780601f10610396576101008083540402835291602001916103c1565b820191906000526020600020905b8154815290600101906020018083116103a457829003601f168201915b5050505050908060020154905083565b60046020528160005260406000206020528060005260406000206000915091509054906101000a900460ff1681565b6104846040518060400160405280601481526020017f64616e732050726f706f73655265736f7572636500000000000000000000000081525085858080601f016020809104026020016040519081016040528093929190818152602001838380828437600081840152601f19601f820116905080830192505050505050503461091e565b6001543410156104c9576040517f08c379a00000000000000000000000000000000000000000000000000000000081526004016104c09061109f565b60405180910390fd5b6003604051806060016040528086868080601f016020809104026020016040519081016040528093929190818152602001838380828437600081840152601f19601f82011690508083019250505050505050815260200184848080601f016020809104026020016040519081016040528093929190818152602001838380828437600081840152601f19601f82011690508083019250505050505050815260200162093a804261057991906110ee565b815250908060018154018082558091505060019003906000526020600020906003020160009091909190915060008201518160000190816105ba91906112f3565b5060208201518160010190816105d091906112f3565b506040820151816002015550507fe1ab0213ff2d77b7c42142733c8e3966eb10397cb692040c8c054a01473ca4ef8484848462093a804261061191906110ee565b604051610622959493929190611401565b60405180910390a150505050565b7f000000000000000000000000000000000000000000000000000000000000000081565b6000600481111561066857610667610c0e565b5b6004600084815260200190815260200160002060003373ffffffffffffffffffffffffffffffffffffffff1673ffffffffffffffffffffffffffffffffffffffff16815260200190815260200160002060009054906101000a900460ff1660048111156106d8576106d7610c0e565b5b14610718576040517f08c379a000000000000000000000000000000000000000000000000000000000815260040161070f906114bc565b60405180910390fd5b806004600084815260200190815260200160002060003373ffffffffffffffffffffffffffffffffffffffff1673ffffffffffffffffffffffffffffffffffffffff16815260200190815260200160002060006101000a81548160ff0219169083600481111561078b5761078a610c0e565b5b02179055507f000000000000000000000000000000000000000000000000000000000000000073ffffffffffffffffffffffffffffffffffffffff1663b1501e3b336002546040518363ffffffff1660e01b81526004016107ed9291906114dc565b600060405180830381600087803b15801561080757600080fd5b505af115801561081b573d6000803e3d6000fd5b505050507f8b50b93dfb989b74b4ba087c1e13209a66a1d5c0bb792c70f4c4cf637cf1fc9482338360405161085293929190611505565b60405180910390a15050565b6108666109bd565b6108706000610a3b565b565b60008060009054906101000a900473ffffffffffffffffffffffffffffffffffffffff16905090565b6108a36109bd565b600073ffffffffffffffffffffffffffffffffffffffff168173ffffffffffffffffffffffffffffffffffffffff1603610912576040517f08c379a0000000000000000000000000000000000000000000000000000000008152600401610909906115ae565b60405180910390fd5b61091b81610a3b565b50565b6109b883838360405160240161093693929190610d6c565b6040516020818303038152906040527f5821efa1000000000000000000000000000000000000000000000000000000007bffffffffffffffffffffffffffffffffffffffffffffffffffffffff19166020820180517bffffffffffffffffffffffffffffffffffffffffffffffffffffffff8381831617835250505050610aff565b505050565b6109c5610b28565b73ffffffffffffffffffffffffffffffffffffffff166109e3610872565b73ffffffffffffffffffffffffffffffffffffffff1614610a39576040517f08c379a0000000000000000000000000000000000000000000000000000000008152600401610a309061161a565b60405180910390fd5b565b60008060009054906101000a900473ffffffffffffffffffffffffffffffffffffffff169050816000806101000a81548173ffffffffffffffffffffffffffffffffffffffff021916908373ffffffffffffffffffffffffffffffffffffffff1602179055508173ffffffffffffffffffffffffffffffffffffffff168173ffffffffffffffffffffffffffffffffffffffff167f8be0079c531659141344cd1fd0a4f28419497f9722a3daafe3b4186f6b6457e060405160405180910390a35050565b60008151905060006a636f6e736f6c652e6c6f679050602083016000808483855afa5050505050565b600033905090565b600080fd5b600080fd5b6000819050919050565b610b4d81610b3a565b8114610b5857600080fd5b50565b600081359050610b6a81610b44565b92915050565b600073ffffffffffffffffffffffffffffffffffffffff82169050919050565b6000610b9b82610b70565b9050919050565b610bab81610b90565b8114610bb657600080fd5b50565b600081359050610bc881610ba2565b92915050565b60008060408385031215610be557610be4610b30565b5b6000610bf385828601610b5b565b9250506020610c0485828601610bb9565b9150509250929050565b7f4e487b7100000000000000000000000000000000000000000000000000000000600052602160045260246000fd5b60058110610c4e57610c4d610c0e565b5b50565b6000819050610c5f82610c3d565b919050565b6000610c6f82610c51565b9050919050565b610c7f81610c64565b82525050565b6000602082019050610c9a6000830184610c76565b92915050565b600060208284031215610cb657610cb5610b30565b5b6000610cc484828501610b5b565b91505092915050565b600081519050919050565b600082825260208201905092915050565b60005b83811015610d07578082015181840152602081019050610cec565b60008484015250505050565b6000601f19601f8301169050919050565b6000610d2f82610ccd565b610d398185610cd8565b9350610d49818560208601610ce9565b610d5281610d13565b840191505092915050565b610d6681610b3a565b82525050565b60006060820190508181036000830152610d868186610d24565b90508181036020830152610d9a8185610d24565b9050610da96040830184610d5d565b949350505050565b600080fd5b600080fd5b600080fd5b60008083601f840112610dd657610dd5610db1565b5b8235905067ffffffffffffffff811115610df357610df2610db6565b5b602083019150836001820283011115610e0f57610e0e610dbb565b5b9250929050565b60008060008060408587031215610e3057610e2f610b30565b5b600085013567ffffffffffffffff811115610e4e57610e4d610b35565b5b610e5a87828801610dc0565b9450945050602085013567ffffffffffffffff811115610e7d57610e7c610b35565b5b610e8987828801610dc0565b925092505092959194509250565b6000819050919050565b6000610ebc610eb7610eb284610b70565b610e97565b610b70565b9050919050565b6000610ece82610ea1565b9050919050565b6000610ee082610ec3565b9050919050565b610ef081610ed5565b82525050565b6000602082019050610f0b6000830184610ee7565b92915050565b60058110610f1e57600080fd5b50565b600081359050610f3081610f11565b92915050565b60008060408385031215610f4d57610f4c610b30565b5b6000610f5b85828601610b5b565b9250506020610f6c85828601610f21565b9150509250929050565b610f7f81610b90565b82525050565b6000602082019050610f9a6000830184610f76565b92915050565b600060208284031215610fb657610fb5610b30565b5b6000610fc484828501610bb9565b91505092915050565b7f4e487b7100000000000000000000000000000000000000000000000000000000600052602260045260246000fd5b6000600282049050600182168061101457607f821691505b60208210810361102757611026610fcd565b5b50919050565b7f596f75206e65656420746f2070617920746865207072696365206f662037206460008201527f617973206f6620686f7374696e67000000000000000000000000000000000000602082015250565b6000611089602e83610cd8565b91506110948261102d565b604082019050919050565b600060208201905081810360008301526110b88161107c565b9050919050565b7f4e487b7100000000000000000000000000000000000000000000000000000000600052601160045260246000fd5b60006110f982610b3a565b915061110483610b3a565b925082820190508082111561111c5761111b6110bf565b5b92915050565b7f4e487b7100000000000000000000000000000000000000000000000000000000600052604160045260246000fd5b60008190508160005260206000209050919050565b60006020601f8301049050919050565b600082821b905092915050565b6000600883026111b37fffffffffffffffffffffffffffffffffffffffffffffffffffffffffffffffff82611176565b6111bd8683611176565b95508019841693508086168417925050509392505050565b60006111f06111eb6111e684610b3a565b610e97565b610b3a565b9050919050565b6000819050919050565b61120a836111d5565b61121e611216826111f7565b848454611183565b825550505050565b600090565b611233611226565b61123e818484611201565b505050565b5b818110156112625761125760008261122b565b600181019050611244565b5050565b601f8211156112a75761127881611151565b61128184611166565b81016020851015611290578190505b6112a461129c85611166565b830182611243565b50505b505050565b600082821c905092915050565b60006112ca600019846008026112ac565b1980831691505092915050565b60006112e383836112b9565b9150826002028217905092915050565b6112fc82610ccd565b67ffffffffffffffff81111561131557611314611122565b5b61131f8254610ffc565b61132a828285611266565b600060209050601f83116001811461135d576000841561134b578287015190505b61135585826112d7565b8655506113bd565b601f19841661136b86611151565b60005b828110156113935784890151825560018201915060208501945060208101905061136e565b868310156113b057848901516113ac601f8916826112b9565b8355505b6001600288020188555050505b505050505050565b82818337600083830152505050565b60006113e08385610cd8565b93506113ed8385846113c5565b6113f683610d13565b840190509392505050565b6000606082019050818103600083015261141c8187896113d4565b905081810360208301526114318185876113d4565b90506114406040830184610d5d565b9695505050505050565b7f596f7520616c72656164792061646420696e746572616374696f6e206f6e207460008201527f686973207265736f757263650000000000000000000000000000000000000000602082015250565b60006114a6602c83610cd8565b91506114b18261144a565b604082019050919050565b600060208201905081810360008301526114d581611499565b9050919050565b60006040820190506114f16000830185610f76565b6114fe6020830184610d5d565b9392505050565b600060608201905061151a6000830186610d5d565b6115276020830185610f76565b6115346040830184610c76565b949350505050565b7f4f776e61626c653a206e6577206f776e657220697320746865207a65726f206160008201527f6464726573730000000000000000000000000000000000000000000000000000602082015250565b6000611598602683610cd8565b91506115a38261153c565b604082019050919050565b600060208201905081810360008301526115c78161158b565b9050919050565b7f4f776e61626c653a2063616c6c6572206973206e6f7420746865206f776e6572600082015250565b6000611604602083610cd8565b915061160f826115ce565b602082019050919050565b60006020820190508181036000830152611633816115f7565b905091905056fea2646970667358221220feb07edd181b14117307d93026b4dca74a8787b3d644895eb9cc02ff8b36f01264736f6c63430008120033",
  "linkReferences": {},
  "deployedLinkReferences": {}
}