{
  "_format": "hh-sol-artifact-1",
  "contractName": "ArkaMaster",
  "sourceName": "contracts/ArkaMaster.sol",
  "abi": [
    {
      "inputs": [
        {
          "internalType": "address",
          "name": "_arkaToken",
          "type": "address"
        },
        {
          "internalType": "address",
          "name": "_priceFeedEthUsd",
          "type": "address"
        }
      ],
      "stateMutability": "nonpayable",
      "type": "constructor"
    },
    {
      "anonymous": false,
      "inputs": [],
      "name": "EndStake",
      "type": "event"
    },
    {
      "anonymous": false,
      "inputs": [
        {
          "indexed": false,
          "internalType": "uint256",
          "name": "idResource",
          "type": "uint256"
        },
        {
          "indexed": false,
          "internalType": "address",
          "name": "user",
          "type": "address"
        },
        {
          "indexed": false,
          "internalType": "enum ArkaMaster.InteractType",
          "name": "interaction",
          "type": "uint8"
        }
      ],
      "name": "Interaction",
      "type": "event"
    },
    {
      "anonymous": false,
      "inputs": [
        {
          "indexed": false,
          "internalType": "uint256",
          "name": "amountReward",
          "type": "uint256"
        }
      ],
      "name": "NewStake",
      "type": "event"
    },
    {
      "anonymous": false,
      "inputs": [
        {
          "indexed": true,
          "internalType": "address",
          "name": "previousOwner",
          "type": "address"
        },
        {
          "indexed": true,
          "internalType": "address",
          "name": "newOwner",
          "type": "address"
        }
      ],
      "name": "OwnershipTransferred",
      "type": "event"
    },
    {
      "anonymous": false,
      "inputs": [
        {
          "indexed": false,
          "internalType": "string",
          "name": "description",
          "type": "string"
        },
        {
          "indexed": false,
          "internalType": "string",
          "name": "url",
          "type": "string"
        },
        {
          "indexed": false,
          "internalType": "uint256",
          "name": "endDate",
          "type": "uint256"
        }
      ],
      "name": "ResourceProposed",
      "type": "event"
    },
    {
      "inputs": [],
      "name": "arkaToken",
      "outputs": [
        {
          "internalType": "contract ArkaERC20",
          "name": "",
          "type": "address"
        }
      ],
      "stateMutability": "view",
      "type": "function"
    },
    {
      "inputs": [],
      "name": "currentStake",
      "outputs": [
        {
          "internalType": "contract ArkaStaking",
          "name": "",
          "type": "address"
        }
      ],
      "stateMutability": "view",
      "type": "function"
    },
    {
      "inputs": [],
      "name": "endCurrentStake",
      "outputs": [],
      "stateMutability": "nonpayable",
      "type": "function"
    },
    {
      "inputs": [
        {
          "internalType": "uint256",
          "name": "_idResource",
          "type": "uint256"
        },
        {
          "internalType": "address",
          "name": "_user",
          "type": "address"
        }
      ],
      "name": "getInteraction",
      "outputs": [
        {
          "internalType": "enum ArkaMaster.InteractType",
          "name": "",
          "type": "uint8"
        }
      ],
      "stateMutability": "view",
      "type": "function"
    },
    {
      "inputs": [],
      "name": "getPriceForProposalInWei",
      "outputs": [
        {
          "internalType": "uint256",
          "name": "",
          "type": "uint256"
        }
      ],
      "stateMutability": "view",
      "type": "function"
    },
    {
      "inputs": [
        {
          "internalType": "uint256",
          "name": "_idResource",
          "type": "uint256"
        },
        {
          "internalType": "enum ArkaMaster.InteractType",
          "name": "_interaction",
          "type": "uint8"
        }
      ],
      "name": "interact",
      "outputs": [],
      "stateMutability": "nonpayable",
      "type": "function"
    },
    {
      "inputs": [
        {
          "internalType": "uint256",
          "name": "",
          "type": "uint256"
        },
        {
          "internalType": "address",
          "name": "",
          "type": "address"
        }
      ],
      "name": "interactions",
      "outputs": [
        {
          "internalType": "enum ArkaMaster.InteractType",
          "name": "",
          "type": "uint8"
        }
      ],
      "stateMutability": "view",
      "type": "function"
    },
    {
      "inputs": [],
      "name": "owner",
      "outputs": [
        {
          "internalType": "address",
          "name": "",
          "type": "address"
        }
      ],
      "stateMutability": "view",
      "type": "function"
    },
    {
      "inputs": [],
      "name": "priceFeedEthUsd",
      "outputs": [
        {
          "internalType": "contract ChainlinkEthUsd",
          "name": "",
          "type": "address"
        }
      ],
      "stateMutability": "view",
      "type": "function"
    },
    {
      "inputs": [
        {
          "internalType": "string",
          "name": "_description",
          "type": "string"
        },
        {
          "internalType": "string",
          "name": "_url",
          "type": "string"
        }
      ],
      "name": "proposeResource",
      "outputs": [],
      "stateMutability": "payable",
      "type": "function"
    },
    {
      "inputs": [],
      "name": "renounceOwnership",
      "outputs": [],
      "stateMutability": "nonpayable",
      "type": "function"
    },
    {
      "inputs": [
        {
          "internalType": "uint256",
          "name": "",
          "type": "uint256"
        }
      ],
      "name": "resources",
      "outputs": [
        {
          "internalType": "string",
          "name": "description",
          "type": "string"
        },
        {
          "internalType": "string",
          "name": "url",
          "type": "string"
        },
        {
          "internalType": "uint256",
          "name": "endDate",
          "type": "uint256"
        }
      ],
      "stateMutability": "view",
      "type": "function"
    },
    {
      "inputs": [
        {
          "internalType": "uint256",
          "name": "_amountReward",
          "type": "uint256"
        }
      ],
      "name": "startNewStake",
      "outputs": [],
      "stateMutability": "nonpayable",
      "type": "function"
    },
    {
      "inputs": [
        {
          "internalType": "address",
          "name": "newOwner",
          "type": "address"
        }
      ],
      "name": "transferOwnership",
      "outputs": [],
      "stateMutability": "nonpayable",
      "type": "function"
    }
  ],
  "bytecode": "0x60a0604052600a600355660221b262dd8000600455671bc16d674ec800006005553480156200002d57600080fd5b506040516200473f3803806200473f833981810160405281019062000053919062000226565b6200007362000067620000f060201b60201c565b620000f860201b60201c565b8173ffffffffffffffffffffffffffffffffffffffff1660808173ffffffffffffffffffffffffffffffffffffffff168152505080600160006101000a81548173ffffffffffffffffffffffffffffffffffffffff021916908373ffffffffffffffffffffffffffffffffffffffff16021790555050506200026d565b600033905090565b60008060009054906101000a900473ffffffffffffffffffffffffffffffffffffffff169050816000806101000a81548173ffffffffffffffffffffffffffffffffffffffff021916908373ffffffffffffffffffffffffffffffffffffffff1602179055508173ffffffffffffffffffffffffffffffffffffffff168173ffffffffffffffffffffffffffffffffffffffff167f8be0079c531659141344cd1fd0a4f28419497f9722a3daafe3b4186f6b6457e060405160405180910390a35050565b600080fd5b600073ffffffffffffffffffffffffffffffffffffffff82169050919050565b6000620001ee82620001c1565b9050919050565b6200020081620001e1565b81146200020c57600080fd5b50565b6000815190506200022081620001f5565b92915050565b6000806040838503121562000240576200023f620001bc565b5b600062000250858286016200020f565b925050602062000263858286016200020f565b9150509250929050565b6080516144a862000297600039600081816107cd015281816109390152610cd101526144a86000f3fe608060405260043610620000f25760003560e01c80638da5cb5b116200008b578063bc46fae71162000061578063bc46fae714620002eb578063e38c3c261462000305578063f2fde38b1462000335578063fdeaacd6146200036357620000f2565b80638da5cb5b146200025d5780639ad0e6c6146200028d578063a080dc4714620002bd57620000f2565b8063530cde9a11620000cd578063530cde9a14620001c55780636d153cb114620001e5578063701d8ef81462000215578063715018a6146200024357620000f2565b806304d6d92714620000f7578063244d6daa146200013b5780632c5e1aab1462000181575b600080fd5b3480156200010457600080fd5b506200012360048036038101906200011d919062001570565b62000393565b60405162000132919062001637565b60405180910390f35b3480156200014857600080fd5b5062000167600480360381019062000161919062001654565b620003fb565b604051620001789392919062001731565b60405180910390f35b3480156200018e57600080fd5b50620001ad6004803603810190620001a7919062001570565b62000556565b604051620001bc919062001637565b60405180910390f35b620001e36004803603810190620001dd9190620017ea565b62000585565b005b348015620001f257600080fd5b50620001fd620007cb565b6040516200020c9190620018e3565b60405180910390f35b3480156200022257600080fd5b506200024160048036038101906200023b919062001928565b620007ef565b005b3480156200025057600080fd5b506200025b62000a0b565b005b3480156200026a57600080fd5b506200027562000a9c565b60405162000284919062001980565b60405180910390f35b3480156200029a57600080fd5b50620002a562000ac5565b604051620002b49190620019c2565b60405180910390f35b348015620002ca57600080fd5b50620002e96004803603810190620002e3919062001654565b62000aeb565b005b348015620002f857600080fd5b506200030362000da5565b005b3480156200031257600080fd5b506200031d62000faf565b6040516200032c9190620019df565b60405180910390f35b3480156200034257600080fd5b506200036160048036038101906200035b9190620019fc565b62001157565b005b3480156200037057600080fd5b506200037b6200125a565b6040516200038a919062001a53565b60405180910390f35b60006007600084815260200190815260200160002060008373ffffffffffffffffffffffffffffffffffffffff1673ffffffffffffffffffffffffffffffffffffffff16815260200190815260200160002060009054906101000a900460ff16905092915050565b600681815481106200040c57600080fd5b9060005260206000209060030201600091509050806000018054620004319062001a9f565b80601f01602080910402602001604051908101604052809291908181526020018280546200045f9062001a9f565b8015620004b05780601f106200048457610100808354040283529160200191620004b0565b820191906000526020600020905b8154815290600101906020018083116200049257829003601f168201915b505050505090806001018054620004c79062001a9f565b80601f0160208091040260200160405190810160405280929190818152602001828054620004f59062001a9f565b8015620005465780601f106200051a5761010080835404028352916020019162000546565b820191906000526020600020905b8154815290600101906020018083116200052857829003601f168201915b5050505050908060020154905083565b60076020528160005260406000206020528060005260406000206000915091509054906101000a900460ff1681565b6200060b6040518060400160405280601481526020017f64616e732050726f706f73655265736f7572636500000000000000000000000081525085858080601f016020809104026020016040519081016040528093929190818152602001838380828437600081840152601f19601f820116905080830192505050505050503462001280565b6200061562000faf565b3410156200065a576040517f08c379a0000000000000000000000000000000000000000000000000000000008152600401620006519062001b4a565b60405180910390fd5b6006604051806060016040528086868080601f016020809104026020016040519081016040528093929190818152602001838380828437600081840152601f19601f82011690508083019250505050505050815260200184848080601f016020809104026020016040519081016040528093929190818152602001838380828437600081840152601f19601f82011690508083019250505050505050815260200162093a80426200070c919062001b9b565b815250908060018154018082558091505060019003906000526020600020906003020160009091909190915060008201518160000190816200074f919062001dcd565b50602082015181600101908162000767919062001dcd565b506040820151816002015550507fe1ab0213ff2d77b7c42142733c8e3966eb10397cb692040c8c054a01473ca4ef8484848462093a8042620007aa919062001b9b565b604051620007bd95949392919062001ef6565b60405180910390a150505050565b7f000000000000000000000000000000000000000000000000000000000000000081565b60006004811115620008065762000805620015b7565b5b6007600084815260200190815260200160002060003373ffffffffffffffffffffffffffffffffffffffff1673ffffffffffffffffffffffffffffffffffffffff16815260200190815260200160002060009054906101000a900460ff166004811115620008795762000878620015b7565b5b14620008bc576040517f08c379a0000000000000000000000000000000000000000000000000000000008152600401620008b39062001fbb565b60405180910390fd5b806007600084815260200190815260200160002060003373ffffffffffffffffffffffffffffffffffffffff1673ffffffffffffffffffffffffffffffffffffffff16815260200190815260200160002060006101000a81548160ff02191690836004811115620009325762000931620015b7565b5b02179055507f000000000000000000000000000000000000000000000000000000000000000073ffffffffffffffffffffffffffffffffffffffff1663b1501e3b336005546040518363ffffffff1660e01b81526004016200099692919062001fdd565b600060405180830381600087803b158015620009b157600080fd5b505af1158015620009c6573d6000803e3d6000fd5b505050507f8b50b93dfb989b74b4ba087c1e13209a66a1d5c0bb792c70f4c4cf637cf1fc94823383604051620009ff939291906200200a565b60405180910390a15050565b62000a1562001323565b73ffffffffffffffffffffffffffffffffffffffff1662000a3562000a9c565b73ffffffffffffffffffffffffffffffffffffffff161462000a8e576040517f08c379a000000000000000000000000000000000000000000000000000000000815260040162000a859062002097565b60405180910390fd5b62000a9a60006200132b565b565b60008060009054906101000a900473ffffffffffffffffffffffffffffffffffffffff16905090565b600160009054906101000a900473ffffffffffffffffffffffffffffffffffffffff1681565b62000af562001323565b73ffffffffffffffffffffffffffffffffffffffff1662000b1562000a9c565b73ffffffffffffffffffffffffffffffffffffffff161462000b6e576040517f08c379a000000000000000000000000000000000000000000000000000000000815260040162000b659062002097565b60405180910390fd5b62000baf6040518060400160405280600d81526020017f73746172744e65775374616b650000000000000000000000000000000000000081525082620013ef565b600073ffffffffffffffffffffffffffffffffffffffff16600260009054906101000a900473ffffffffffffffffffffffffffffffffffffffff1673ffffffffffffffffffffffffffffffffffffffff161462000c43576040517f08c379a000000000000000000000000000000000000000000000000000000000815260040162000c3a9062002109565b60405180910390fd5b6000811162000c89576040517f08c379a000000000000000000000000000000000000000000000000000000000815260040162000c80906200217b565b60405180910390fd5b47811062000cce576040517f08c379a000000000000000000000000000000000000000000000000000000000815260040162000cc590620021ed565b60405180910390fd5b807f000000000000000000000000000000000000000000000000000000000000000060405162000cfe90620014b8565b62000d0a919062001980565b6040518091039082f090508015801562000d28573d6000803e3d6000fd5b50600260006101000a81548173ffffffffffffffffffffffffffffffffffffffff021916908373ffffffffffffffffffffffffffffffffffffffff1602179055507f9193436894c1e220c236b0df5dd44eb674082159bf8dfacdba8b79270ced9e698160405162000d9a9190620019df565b60405180910390a150565b62000daf62001323565b73ffffffffffffffffffffffffffffffffffffffff1662000dcf62000a9c565b73ffffffffffffffffffffffffffffffffffffffff161462000e28576040517f08c379a000000000000000000000000000000000000000000000000000000000815260040162000e1f9062002097565b60405180910390fd5b600073ffffffffffffffffffffffffffffffffffffffff16600260009054906101000a900473ffffffffffffffffffffffffffffffffffffffff1673ffffffffffffffffffffffffffffffffffffffff160362000ebc576040517f08c379a000000000000000000000000000000000000000000000000000000000815260040162000eb3906200225f565b60405180910390fd5b600260009054906101000a900473ffffffffffffffffffffffffffffffffffffffff1673ffffffffffffffffffffffffffffffffffffffff16628824426040518163ffffffff1660e01b8152600401600060405180830381600087803b15801562000f2657600080fd5b505af115801562000f3b573d6000803e3d6000fd5b505050506000600260006101000a81548173ffffffffffffffffffffffffffffffffffffffff021916908373ffffffffffffffffffffffffffffffffffffffff1602179055507f127f9a459e0566c09fdec990d004a7ae34e91858e3cb2c85d4550441d1f8f45760405160405180910390a1565b600080600160009054906101000a900473ffffffffffffffffffffffffffffffffffffffff1673ffffffffffffffffffffffffffffffffffffffff16638e15f4736040518163ffffffff1660e01b8152600401602060405180830381865afa15801562001020573d6000803e3d6000fd5b505050506040513d601f19601f82011682018060405250810190620010469190620022bc565b1362001089576040517f08c379a000000000000000000000000000000000000000000000000000000000815260040162001080906200233e565b60405180910390fd5b6305f5e100600160009054906101000a900473ffffffffffffffffffffffffffffffffffffffff1673ffffffffffffffffffffffffffffffffffffffff16638e15f4736040518163ffffffff1660e01b8152600401602060405180830381865afa158015620010fc573d6000803e3d6000fd5b505050506040513d601f19601f82011682018060405250810190620011229190620022bc565b6200112e91906200238f565b600354670de0b6b3a764000062001146919062002403565b6200115291906200244e565b905090565b6200116162001323565b73ffffffffffffffffffffffffffffffffffffffff166200118162000a9c565b73ffffffffffffffffffffffffffffffffffffffff1614620011da576040517f08c379a0000000000000000000000000000000000000000000000000000000008152600401620011d19062002097565b60405180910390fd5b600073ffffffffffffffffffffffffffffffffffffffff168173ffffffffffffffffffffffffffffffffffffffff16036200124c576040517f08c379a00000000000000000000000000000000000000000000000000000000081526004016200124390620024fc565b60405180910390fd5b62001257816200132b565b50565b600260009054906101000a900473ffffffffffffffffffffffffffffffffffffffff1681565b6200131e8383836040516024016200129b9392919062001731565b6040516020818303038152906040527f5821efa1000000000000000000000000000000000000000000000000000000007bffffffffffffffffffffffffffffffffffffffffffffffffffffffff19166020820180517bffffffffffffffffffffffffffffffffffffffffffffffffffffffff83818316178352505050506200148f565b505050565b600033905090565b60008060009054906101000a900473ffffffffffffffffffffffffffffffffffffffff169050816000806101000a81548173ffffffffffffffffffffffffffffffffffffffff021916908373ffffffffffffffffffffffffffffffffffffffff1602179055508173ffffffffffffffffffffffffffffffffffffffff168173ffffffffffffffffffffffffffffffffffffffff167f8be0079c531659141344cd1fd0a4f28419497f9722a3daafe3b4186f6b6457e060405160405180910390a35050565b6200148b8282604051602401620014089291906200251e565b6040516020818303038152906040527fb60e72cc000000000000000000000000000000000000000000000000000000007bffffffffffffffffffffffffffffffffffffffffffffffffffffffff19166020820180517bffffffffffffffffffffffffffffffffffffffffffffffffffffffff83818316178352505050506200148f565b5050565b60008151905060006a636f6e736f6c652e6c6f679050602083016000808483855afa5050505050565b611f20806200255383390190565b600080fd5b600080fd5b6000819050919050565b620014e581620014d0565b8114620014f157600080fd5b50565b6000813590506200150581620014da565b92915050565b600073ffffffffffffffffffffffffffffffffffffffff82169050919050565b600062001538826200150b565b9050919050565b6200154a816200152b565b81146200155657600080fd5b50565b6000813590506200156a816200153f565b92915050565b600080604083850312156200158a5762001589620014c6565b5b60006200159a85828601620014f4565b9250506020620015ad8582860162001559565b9150509250929050565b7f4e487b7100000000000000000000000000000000000000000000000000000000600052602160045260246000fd5b60058110620015fa57620015f9620015b7565b5b50565b60008190506200160d82620015e6565b919050565b60006200161f82620015fd565b9050919050565b620016318162001612565b82525050565b60006020820190506200164e600083018462001626565b92915050565b6000602082840312156200166d576200166c620014c6565b5b60006200167d84828501620014f4565b91505092915050565b600081519050919050565b600082825260208201905092915050565b60005b83811015620016c2578082015181840152602081019050620016a5565b60008484015250505050565b6000601f19601f8301169050919050565b6000620016ec8262001686565b620016f8818562001691565b93506200170a818560208601620016a2565b6200171581620016ce565b840191505092915050565b6200172b81620014d0565b82525050565b600060608201905081810360008301526200174d8186620016df565b90508181036020830152620017638185620016df565b905062001774604083018462001720565b949350505050565b600080fd5b600080fd5b600080fd5b60008083601f840112620017a457620017a36200177c565b5b8235905067ffffffffffffffff811115620017c457620017c362001781565b5b602083019150836001820283011115620017e357620017e262001786565b5b9250929050565b60008060008060408587031215620018075762001806620014c6565b5b600085013567ffffffffffffffff811115620018285762001827620014cb565b5b62001836878288016200178b565b9450945050602085013567ffffffffffffffff8111156200185c576200185b620014cb565b5b6200186a878288016200178b565b925092505092959194509250565b6000819050919050565b6000620018a36200189d62001897846200150b565b62001878565b6200150b565b9050919050565b6000620018b78262001882565b9050919050565b6000620018cb82620018aa565b9050919050565b620018dd81620018be565b82525050565b6000602082019050620018fa6000830184620018d2565b92915050565b600581106200190e57600080fd5b50565b600081359050620019228162001900565b92915050565b60008060408385031215620019425762001941620014c6565b5b60006200195285828601620014f4565b9250506020620019658582860162001911565b9150509250929050565b6200197a816200152b565b82525050565b60006020820190506200199760008301846200196f565b92915050565b6000620019aa82620018aa565b9050919050565b620019bc816200199d565b82525050565b6000602082019050620019d96000830184620019b1565b92915050565b6000602082019050620019f6600083018462001720565b92915050565b60006020828403121562001a155762001a14620014c6565b5b600062001a258482850162001559565b91505092915050565b600062001a3b82620018aa565b9050919050565b62001a4d8162001a2e565b82525050565b600060208201905062001a6a600083018462001a42565b92915050565b7f4e487b7100000000000000000000000000000000000000000000000000000000600052602260045260246000fd5b6000600282049050600182168062001ab857607f821691505b60208210810362001ace5762001acd62001a70565b5b50919050565b7f596f75206e65656420746f2070617920746865207072696365206f662037206460008201527f617973206f6620686f7374696e67000000000000000000000000000000000000602082015250565b600062001b32602e8362001691565b915062001b3f8262001ad4565b604082019050919050565b6000602082019050818103600083015262001b658162001b23565b9050919050565b7f4e487b7100000000000000000000000000000000000000000000000000000000600052601160045260246000fd5b600062001ba882620014d0565b915062001bb583620014d0565b925082820190508082111562001bd05762001bcf62001b6c565b5b92915050565b7f4e487b7100000000000000000000000000000000000000000000000000000000600052604160045260246000fd5b60008190508160005260206000209050919050565b60006020601f8301049050919050565b600082821b905092915050565b60006008830262001c697fffffffffffffffffffffffffffffffffffffffffffffffffffffffffffffffff8262001c2a565b62001c75868362001c2a565b95508019841693508086168417925050509392505050565b600062001cae62001ca862001ca284620014d0565b62001878565b620014d0565b9050919050565b6000819050919050565b62001cca8362001c8d565b62001ce262001cd98262001cb5565b84845462001c37565b825550505050565b600090565b62001cf962001cea565b62001d0681848462001cbf565b505050565b5b8181101562001d2e5762001d2260008262001cef565b60018101905062001d0c565b5050565b601f82111562001d7d5762001d478162001c05565b62001d528462001c1a565b8101602085101562001d62578190505b62001d7a62001d718562001c1a565b83018262001d0b565b50505b505050565b600082821c905092915050565b600062001da26000198460080262001d82565b1980831691505092915050565b600062001dbd838362001d8f565b9150826002028217905092915050565b62001dd88262001686565b67ffffffffffffffff81111562001df45762001df362001bd6565b5b62001e00825462001a9f565b62001e0d82828562001d32565b600060209050601f83116001811462001e45576000841562001e30578287015190505b62001e3c858262001daf565b86555062001eac565b601f19841662001e558662001c05565b60005b8281101562001e7f5784890151825560018201915060208501945060208101905062001e58565b8683101562001e9f578489015162001e9b601f89168262001d8f565b8355505b6001600288020188555050505b505050505050565b82818337600083830152505050565b600062001ed1838562001691565b935062001ee083858462001eb4565b62001eeb83620016ce565b840190509392505050565b6000606082019050818103600083015262001f1381878962001ec3565b9050818103602083015262001f2a81858762001ec3565b905062001f3b604083018462001720565b9695505050505050565b7f596f7520616c72656164792061646420696e746572616374696f6e206f6e207460008201527f686973207265736f757263650000000000000000000000000000000000000000602082015250565b600062001fa3602c8362001691565b915062001fb08262001f45565b604082019050919050565b6000602082019050818103600083015262001fd68162001f94565b9050919050565b600060408201905062001ff460008301856200196f565b62002003602083018462001720565b9392505050565b600060608201905062002021600083018662001720565b6200203060208301856200196f565b6200203f604083018462001626565b949350505050565b7f4f776e61626c653a2063616c6c6572206973206e6f7420746865206f776e6572600082015250565b60006200207f60208362001691565b91506200208c8262002047565b602082019050919050565b60006020820190508181036000830152620020b28162002070565b9050919050565b7f41207374616b6520697320616c72656164792072756e6e696e67000000000000600082015250565b6000620020f1601a8362001691565b9150620020fe82620020b9565b602082019050919050565b600060208201905081810360008301526200212481620020e2565b9050919050565b7f416d6f756e74206d757374206265203e20300000000000000000000000000000600082015250565b60006200216360128362001691565b915062002170826200212b565b602082019050919050565b60006020820190508181036000830152620021968162002154565b9050919050565b7f4e6f7420656e6f7567682066756e647300000000000000000000000000000000600082015250565b6000620021d560108362001691565b9150620021e2826200219d565b602082019050919050565b600060208201905081810360008301526200220881620021c6565b9050919050565b7f4e6f207374616b652069732072756e6e696e6700000000000000000000000000600082015250565b60006200224760138362001691565b915062002254826200220f565b602082019050919050565b600060208201905081810360008301526200227a8162002238565b9050919050565b6000819050919050565b620022968162002281565b8114620022a257600080fd5b50565b600081519050620022b6816200228b565b92915050565b600060208284031215620022d557620022d4620014c6565b5b6000620022e584828501620022a5565b91505092915050565b7f50726963652066656564206973206e6f7420617661696c61626c650000000000600082015250565b600062002326601b8362001691565b91506200233382620022ee565b602082019050919050565b60006020820190508181036000830152620023598162002317565b9050919050565b7f4e487b7100000000000000000000000000000000000000000000000000000000600052601260045260246000fd5b60006200239c8262002281565b9150620023a98362002281565b925082620023bc57620023bb62002360565b5b600160000383147f800000000000000000000000000000000000000000000000000000000000000083141615620023f857620023f762001b6c565b5b828205905092915050565b60006200241082620014d0565b91506200241d83620014d0565b92508282026200242d81620014d0565b9150828204841483151762002447576200244662001b6c565b5b5092915050565b60006200245b82620014d0565b91506200246883620014d0565b9250826200247b576200247a62002360565b5b828204905092915050565b7f4f776e61626c653a206e6577206f776e657220697320746865207a65726f206160008201527f6464726573730000000000000000000000000000000000000000000000000000602082015250565b6000620024e460268362001691565b9150620024f18262002486565b604082019050919050565b600060208201905081810360008301526200251781620024d5565b9050919050565b600060408201905081810360008301526200253a8185620016df565b90506200254b602083018462001720565b939250505056fe60a060405260405162001f2038038062001f20833981810160405281019062000029919062000247565b620000496200003d6200011160201b60201c565b6200011960201b60201c565b8073ffffffffffffffffffffffffffffffffffffffff1660808173ffffffffffffffffffffffffffffffffffffffff1681525050610258600281905550346001819055506002546001546200009f9190620002e1565b600581905550600060055411620000ed576040517f08c379a0000000000000000000000000000000000000000000000000000000008152600401620000e4906200037a565b60405180910390fd5b60025442620000fd91906200039c565b6003819055504260048190555050620003d7565b600033905090565b60008060009054906101000a900473ffffffffffffffffffffffffffffffffffffffff169050816000806101000a81548173ffffffffffffffffffffffffffffffffffffffff021916908373ffffffffffffffffffffffffffffffffffffffff1602179055508173ffffffffffffffffffffffffffffffffffffffff168173ffffffffffffffffffffffffffffffffffffffff167f8be0079c531659141344cd1fd0a4f28419497f9722a3daafe3b4186f6b6457e060405160405180910390a35050565b600080fd5b600073ffffffffffffffffffffffffffffffffffffffff82169050919050565b60006200020f82620001e2565b9050919050565b620002218162000202565b81146200022d57600080fd5b50565b600081519050620002418162000216565b92915050565b60006020828403121562000260576200025f620001dd565b5b6000620002708482850162000230565b91505092915050565b6000819050919050565b7f4e487b7100000000000000000000000000000000000000000000000000000000600052601260045260246000fd5b7f4e487b7100000000000000000000000000000000000000000000000000000000600052601160045260246000fd5b6000620002ee8262000279565b9150620002fb8362000279565b9250826200030e576200030d62000283565b5b828204905092915050565b600082825260208201905092915050565b7f7265776172642072617465203d20300000000000000000000000000000000000600082015250565b600062000362600f8362000319565b91506200036f826200032a565b602082019050919050565b60006020820190508181036000830152620003958162000353565b9050919050565b6000620003a98262000279565b9150620003b68362000279565b9250828201905080821115620003d157620003d0620002b2565b5b92915050565b608051611b1f62000401600039600081816106430152818161080a0152610ac00152611b1f6000f3fe608060405234801561001057600080fd5b50600436106101205760003560e01c80637519ab50116100ad578063b6b55f2511610071578063b6b55f25146102c3578063b88a802f146102df578063cd3daf9d146102e9578063d91de40a14610307578063f2fde38b1461033757610120565b80637519ab50146102095780637b0a47ee146102275780638b876347146102455780638da5cb5b14610275578063af46aa081461029357610120565b80632f3b6ad3116100f45780632f3b6ad31461019b5780633ccfd60b146101b957806367d3b488146101c35780636d153cb1146101e1578063715018a6146101ff57610120565b8062882442146101255780630700037d1461012f5780630fb5a6b41461015f57806318160ddd1461017d575b600080fd5b61012d610353565b005b61014960048036038101906101449190611415565b6104f5565b604051610156919061145b565b60405180910390f35b61016761050d565b604051610174919061145b565b60405180910390f35b610185610513565b604051610192919061145b565b60405180910390f35b6101a3610519565b6040516101b0919061145b565b60405180910390f35b6101c161051f565b005b6101cb610802565b6040516101d8919061145b565b60405180910390f35b6101e9610808565b6040516101f691906114d5565b60405180910390f35b61020761082c565b005b6102116108b4565b60405161021e919061145b565b60405180910390f35b61022f6108ba565b60405161023c919061145b565b60405180910390f35b61025f600480360381019061025a9190611415565b6108c0565b60405161026c919061145b565b60405180910390f35b61027d6108d8565b60405161028a91906114ff565b60405180910390f35b6102ad60048036038101906102a89190611415565b610901565b6040516102ba919061145b565b60405180910390f35b6102dd60048036038101906102d89190611546565b610919565b005b6102e7610c20565b005b6102f1610f02565b6040516102fe919061145b565b60405180910390f35b610321600480360381019061031c9190611415565b610f08565b60405161032e919061145b565b60405180910390f35b610351600480360381019061034c9190611415565b61100a565b005b61035b611101565b73ffffffffffffffffffffffffffffffffffffffff166103796108d8565b73ffffffffffffffffffffffffffffffffffffffff16146103cf576040517f08c379a00000000000000000000000000000000000000000000000000000000081526004016103c6906115d0565b60405180910390fd5b6003544211610413576040517f08c379a000000000000000000000000000000000000000000000000000000000815260040161040a9061163c565b60405180910390fd5b600061041d6108d8565b73ffffffffffffffffffffffffffffffffffffffff16476040516104409061168d565b60006040518083038185875af1925050503d806000811461047d576040519150601f19603f3d011682016040523d82523d6000602084013e610482565b606091505b50509050806104c6576040517f08c379a00000000000000000000000000000000000000000000000000000000081526004016104bd906116ee565b60405180910390fd5b7fe007339840c4e4afd03253f3dd3d52a230ff107abe2db735e4c6cb04f6a510f660405160405180910390a150565b60096020528060005260406000206000915090505481565b60025481565b60075481565b60015481565b3361055e6040518060400160405280601181526020017f64616e7320757064617465526577617264000000000000000000000000000000815250611109565b6105666111a2565b60068190555061057461120b565b600481905550600073ffffffffffffffffffffffffffffffffffffffff168173ffffffffffffffffffffffffffffffffffffffff1614610641576105b781610f08565b600960008373ffffffffffffffffffffffffffffffffffffffff1673ffffffffffffffffffffffffffffffffffffffff16815260200190815260200160002081905550600654600860008373ffffffffffffffffffffffffffffffffffffffff1673ffffffffffffffffffffffffffffffffffffffff168152602001908152602001600020819055505b7f000000000000000000000000000000000000000000000000000000000000000073ffffffffffffffffffffffffffffffffffffffff1663a9059cbb33600a60003373ffffffffffffffffffffffffffffffffffffffff1673ffffffffffffffffffffffffffffffffffffffff168152602001908152602001600020546040518363ffffffff1660e01b81526004016106db92919061170e565b6020604051808303816000875af11580156106fa573d6000803e3d6000fd5b505050506040513d601f19601f8201168201806040525081019061071e919061176f565b50600a60003373ffffffffffffffffffffffffffffffffffffffff1673ffffffffffffffffffffffffffffffffffffffff168152602001908152602001600020546007600082825461077091906117cb565b925050819055506000600a60003373ffffffffffffffffffffffffffffffffffffffff1673ffffffffffffffffffffffffffffffffffffffff168152602001908152602001600020819055503373ffffffffffffffffffffffffffffffffffffffff167ff67611512e0a2d90c96fd3f08dca4971bc45fba9dc679eabe839a32abbe58a8e60405160405180910390a250565b60035481565b7f000000000000000000000000000000000000000000000000000000000000000081565b610834611101565b73ffffffffffffffffffffffffffffffffffffffff166108526108d8565b73ffffffffffffffffffffffffffffffffffffffff16146108a8576040517f08c379a000000000000000000000000000000000000000000000000000000000815260040161089f906115d0565b60405180910390fd5b6108b26000611226565b565b60045481565b60055481565b60086020528060005260406000206000915090505481565b60008060009054906101000a900473ffffffffffffffffffffffffffffffffffffffff16905090565b600a6020528060005260406000206000915090505481565b336109586040518060400160405280601181526020017f64616e7320757064617465526577617264000000000000000000000000000000815250611109565b6109606111a2565b60068190555061096e61120b565b600481905550600073ffffffffffffffffffffffffffffffffffffffff168173ffffffffffffffffffffffffffffffffffffffff1614610a3b576109b181610f08565b600960008373ffffffffffffffffffffffffffffffffffffffff1673ffffffffffffffffffffffffffffffffffffffff16815260200190815260200160002081905550600654600860008373ffffffffffffffffffffffffffffffffffffffff1673ffffffffffffffffffffffffffffffffffffffff168152602001908152602001600020819055505b610a7b6040518060400160405280600c81526020017f64616e73206465706f736974000000000000000000000000000000000000000081525033846112ea565b60008211610abe576040517f08c379a0000000000000000000000000000000000000000000000000000000008152600401610ab59061184b565b60405180910390fd5b7f000000000000000000000000000000000000000000000000000000000000000073ffffffffffffffffffffffffffffffffffffffff166323b872dd3330856040518463ffffffff1660e01b8152600401610b1b9392919061186b565b6020604051808303816000875af1158015610b3a573d6000803e3d6000fd5b505050506040513d601f19601f82011682018060405250810190610b5e919061176f565b5081600a60003373ffffffffffffffffffffffffffffffffffffffff1673ffffffffffffffffffffffffffffffffffffffff1681526020019081526020016000206000828254610bae91906118a2565b925050819055508160076000828254610bc791906118a2565b925050819055503373ffffffffffffffffffffffffffffffffffffffff167fe1fffcc4923d04b559f4d29a8bfc6cda04eb5b0d3c460751c2402c5c5cc9109c83604051610c14919061145b565b60405180910390a25050565b33610c5f6040518060400160405280601181526020017f64616e7320757064617465526577617264000000000000000000000000000000815250611109565b610c676111a2565b600681905550610c7561120b565b600481905550600073ffffffffffffffffffffffffffffffffffffffff168173ffffffffffffffffffffffffffffffffffffffff1614610d4257610cb881610f08565b600960008373ffffffffffffffffffffffffffffffffffffffff1673ffffffffffffffffffffffffffffffffffffffff16815260200190815260200160002081905550600654600860008373ffffffffffffffffffffffffffffffffffffffff1673ffffffffffffffffffffffffffffffffffffffff168152602001908152602001600020819055505b6000600960003373ffffffffffffffffffffffffffffffffffffffff1673ffffffffffffffffffffffffffffffffffffffff168152602001908152602001600020541115610ebc5760003373ffffffffffffffffffffffffffffffffffffffff16600960003373ffffffffffffffffffffffffffffffffffffffff1673ffffffffffffffffffffffffffffffffffffffff16815260200190815260200160002054604051610def9061168d565b60006040518083038185875af1925050503d8060008114610e2c576040519150601f19603f3d011682016040523d82523d6000602084013e610e31565b606091505b5050905080610e75576040517f08c379a0000000000000000000000000000000000000000000000000000000008152600401610e6c906116ee565b60405180910390fd5b6000600960003373ffffffffffffffffffffffffffffffffffffffff1673ffffffffffffffffffffffffffffffffffffffff16815260200190815260200160002081905550505b3373ffffffffffffffffffffffffffffffffffffffff167fea61a2a22523394f29506de20cc9db2e881f096477982d51012058ec9032714a60405160405180910390a250565b60065481565b6000670de0b6b3a7640000600860008473ffffffffffffffffffffffffffffffffffffffff1673ffffffffffffffffffffffffffffffffffffffff16815260200190815260200160002054610f5b6111a2565b610f6591906117cb565b600a60008573ffffffffffffffffffffffffffffffffffffffff1673ffffffffffffffffffffffffffffffffffffffff16815260200190815260200160002054610faf91906118d6565b610fb99190611947565b600960008473ffffffffffffffffffffffffffffffffffffffff1673ffffffffffffffffffffffffffffffffffffffff1681526020019081526020016000205461100391906118a2565b9050919050565b611012611101565b73ffffffffffffffffffffffffffffffffffffffff166110306108d8565b73ffffffffffffffffffffffffffffffffffffffff1614611086576040517f08c379a000000000000000000000000000000000000000000000000000000000815260040161107d906115d0565b60405180910390fd5b600073ffffffffffffffffffffffffffffffffffffffff168173ffffffffffffffffffffffffffffffffffffffff16036110f5576040517f08c379a00000000000000000000000000000000000000000000000000000000081526004016110ec906119ea565b60405180910390fd5b6110fe81611226565b50565b600033905090565b61119f8160405160240161111d9190611a89565b6040516020818303038152906040527f41304fac000000000000000000000000000000000000000000000000000000007bffffffffffffffffffffffffffffffffffffffffffffffffffffffff19166020820180517bffffffffffffffffffffffffffffffffffffffffffffffffffffffff8381831617835250505050611389565b50565b600080600754036111b65760009050611208565b600754670de0b6b3a76400006004546111cd61120b565b6111d791906117cb565b6005546111e491906118d6565b6111ee91906118d6565b6111f89190611947565b60065461120591906118a2565b90505b90565b600042600354111561121d5742611221565b6003545b905090565b60008060009054906101000a900473ffffffffffffffffffffffffffffffffffffffff169050816000806101000a81548173ffffffffffffffffffffffffffffffffffffffff021916908373ffffffffffffffffffffffffffffffffffffffff1602179055508173ffffffffffffffffffffffffffffffffffffffff168173ffffffffffffffffffffffffffffffffffffffff167f8be0079c531659141344cd1fd0a4f28419497f9722a3daafe3b4186f6b6457e060405160405180910390a35050565b61138483838360405160240161130293929190611aab565b6040516020818303038152906040527f0d26b925000000000000000000000000000000000000000000000000000000007bffffffffffffffffffffffffffffffffffffffffffffffffffffffff19166020820180517bffffffffffffffffffffffffffffffffffffffffffffffffffffffff8381831617835250505050611389565b505050565b60008151905060006a636f6e736f6c652e6c6f679050602083016000808483855afa5050505050565b600080fd5b600073ffffffffffffffffffffffffffffffffffffffff82169050919050565b60006113e2826113b7565b9050919050565b6113f2816113d7565b81146113fd57600080fd5b50565b60008135905061140f816113e9565b92915050565b60006020828403121561142b5761142a6113b2565b5b600061143984828501611400565b91505092915050565b6000819050919050565b61145581611442565b82525050565b6000602082019050611470600083018461144c565b92915050565b6000819050919050565b600061149b611496611491846113b7565b611476565b6113b7565b9050919050565b60006114ad82611480565b9050919050565b60006114bf826114a2565b9050919050565b6114cf816114b4565b82525050565b60006020820190506114ea60008301846114c6565b92915050565b6114f9816113d7565b82525050565b600060208201905061151460008301846114f0565b92915050565b61152381611442565b811461152e57600080fd5b50565b6000813590506115408161151a565b92915050565b60006020828403121561155c5761155b6113b2565b5b600061156a84828501611531565b91505092915050565b600082825260208201905092915050565b7f4f776e61626c653a2063616c6c6572206973206e6f7420746865206f776e6572600082015250565b60006115ba602083611573565b91506115c582611584565b602082019050919050565b600060208201905081810360008301526115e9816115ad565b9050919050565b7f6e6f742066696e69736865642079657400000000000000000000000000000000600082015250565b6000611626601083611573565b9150611631826115f0565b602082019050919050565b6000602082019050818103600083015261165581611619565b9050919050565b600081905092915050565b50565b600061167760008361165c565b915061168282611667565b600082019050919050565b60006116988261166a565b9150819050919050565b7f4661696c656420746f2073656e64204574686572000000000000000000000000600082015250565b60006116d8601483611573565b91506116e3826116a2565b602082019050919050565b60006020820190508181036000830152611707816116cb565b9050919050565b600060408201905061172360008301856114f0565b611730602083018461144c565b9392505050565b60008115159050919050565b61174c81611737565b811461175757600080fd5b50565b60008151905061176981611743565b92915050565b600060208284031215611785576117846113b2565b5b60006117938482850161175a565b91505092915050565b7f4e487b7100000000000000000000000000000000000000000000000000000000600052601160045260246000fd5b60006117d682611442565b91506117e183611442565b92508282039050818111156117f9576117f861179c565b5b92915050565b7f616d6f756e74203d203000000000000000000000000000000000000000000000600082015250565b6000611835600a83611573565b9150611840826117ff565b602082019050919050565b6000602082019050818103600083015261186481611828565b9050919050565b600060608201905061188060008301866114f0565b61188d60208301856114f0565b61189a604083018461144c565b949350505050565b60006118ad82611442565b91506118b883611442565b92508282019050808211156118d0576118cf61179c565b5b92915050565b60006118e182611442565b91506118ec83611442565b92508282026118fa81611442565b915082820484148315176119115761191061179c565b5b5092915050565b7f4e487b7100000000000000000000000000000000000000000000000000000000600052601260045260246000fd5b600061195282611442565b915061195d83611442565b92508261196d5761196c611918565b5b828204905092915050565b7f4f776e61626c653a206e6577206f776e657220697320746865207a65726f206160008201527f6464726573730000000000000000000000000000000000000000000000000000602082015250565b60006119d4602683611573565b91506119df82611978565b604082019050919050565b60006020820190508181036000830152611a03816119c7565b9050919050565b600081519050919050565b60005b83811015611a33578082015181840152602081019050611a18565b60008484015250505050565b6000601f19601f8301169050919050565b6000611a5b82611a0a565b611a658185611573565b9350611a75818560208601611a15565b611a7e81611a3f565b840191505092915050565b60006020820190508181036000830152611aa38184611a50565b905092915050565b60006060820190508181036000830152611ac58186611a50565b9050611ad460208301856114f0565b611ae1604083018461144c565b94935050505056fea2646970667358221220b63f01616e06d05b259809e2d0919b509156d8fd941865adfe2fad9a30d7b51264736f6c63430008120033a2646970667358221220fe07af64df61c79bcbd097c8d7ddf90899ffdfd97d0bc2af547e4d9c3fbee60364736f6c63430008120033",
  "linkReferences": {},
  "deployedLinkReferences": {}
}