{
  "_format": "hh-sol-artifact-1",
  "contractName": "ArkaMaster",
  "sourceName": "contracts/ArkaMaster.sol",
  "abi": [
    {
      "inputs": [
        {
          "internalType": "address",
          "name": "_arkaToken",
          "type": "address"
        },
        {
          "internalType": "address",
          "name": "_priceFeedEthUsd",
          "type": "address"
        }
      ],
      "stateMutability": "nonpayable",
      "type": "constructor"
    },
    {
      "anonymous": false,
      "inputs": [
        {
          "indexed": false,
          "internalType": "uint256",
          "name": "idResource",
          "type": "uint256"
        },
        {
          "indexed": false,
          "internalType": "address",
          "name": "user",
          "type": "address"
        },
        {
          "indexed": false,
          "internalType": "enum ArkaMaster.InteractType",
          "name": "interaction",
          "type": "uint8"
        }
      ],
      "name": "Interaction",
      "type": "event"
    },
    {
      "anonymous": false,
      "inputs": [
        {
          "indexed": true,
          "internalType": "address",
          "name": "previousOwner",
          "type": "address"
        },
        {
          "indexed": true,
          "internalType": "address",
          "name": "newOwner",
          "type": "address"
        }
      ],
      "name": "OwnershipTransferred",
      "type": "event"
    },
    {
      "anonymous": false,
      "inputs": [
        {
          "indexed": false,
          "internalType": "string",
          "name": "description",
          "type": "string"
        },
        {
          "indexed": false,
          "internalType": "string",
          "name": "url",
          "type": "string"
        },
        {
          "indexed": false,
          "internalType": "uint256",
          "name": "endDate",
          "type": "uint256"
        }
      ],
      "name": "ResourceProposed",
      "type": "event"
    },
    {
      "inputs": [],
      "name": "arkaToken",
      "outputs": [
        {
          "internalType": "contract ArkaERC20",
          "name": "",
          "type": "address"
        }
      ],
      "stateMutability": "view",
      "type": "function"
    },
    {
      "inputs": [],
      "name": "currentStake",
      "outputs": [
        {
          "internalType": "contract ArkaStaking",
          "name": "",
          "type": "address"
        }
      ],
      "stateMutability": "view",
      "type": "function"
    },
    {
      "inputs": [],
      "name": "endCurrentStake",
      "outputs": [],
      "stateMutability": "nonpayable",
      "type": "function"
    },
    {
      "inputs": [
        {
          "internalType": "uint256",
          "name": "_idResource",
          "type": "uint256"
        },
        {
          "internalType": "address",
          "name": "_user",
          "type": "address"
        }
      ],
      "name": "getInteraction",
      "outputs": [
        {
          "internalType": "enum ArkaMaster.InteractType",
          "name": "",
          "type": "uint8"
        }
      ],
      "stateMutability": "view",
      "type": "function"
    },
    {
      "inputs": [],
      "name": "getPriceForProposalInWei",
      "outputs": [
        {
          "internalType": "uint256",
          "name": "",
          "type": "uint256"
        }
      ],
      "stateMutability": "view",
      "type": "function"
    },
    {
      "inputs": [
        {
          "internalType": "uint256",
          "name": "_idResource",
          "type": "uint256"
        },
        {
          "internalType": "enum ArkaMaster.InteractType",
          "name": "_interaction",
          "type": "uint8"
        }
      ],
      "name": "interact",
      "outputs": [],
      "stateMutability": "nonpayable",
      "type": "function"
    },
    {
      "inputs": [
        {
          "internalType": "uint256",
          "name": "",
          "type": "uint256"
        },
        {
          "internalType": "address",
          "name": "",
          "type": "address"
        }
      ],
      "name": "interactions",
      "outputs": [
        {
          "internalType": "enum ArkaMaster.InteractType",
          "name": "",
          "type": "uint8"
        }
      ],
      "stateMutability": "view",
      "type": "function"
    },
    {
      "inputs": [],
      "name": "owner",
      "outputs": [
        {
          "internalType": "address",
          "name": "",
          "type": "address"
        }
      ],
      "stateMutability": "view",
      "type": "function"
    },
    {
      "inputs": [],
      "name": "priceFeedEthUsd",
      "outputs": [
        {
          "internalType": "contract ChainlinkEthUsd",
          "name": "",
          "type": "address"
        }
      ],
      "stateMutability": "view",
      "type": "function"
    },
    {
      "inputs": [
        {
          "internalType": "string",
          "name": "_description",
          "type": "string"
        },
        {
          "internalType": "string",
          "name": "_url",
          "type": "string"
        }
      ],
      "name": "proposeResource",
      "outputs": [],
      "stateMutability": "payable",
      "type": "function"
    },
    {
      "inputs": [],
      "name": "renounceOwnership",
      "outputs": [],
      "stateMutability": "nonpayable",
      "type": "function"
    },
    {
      "inputs": [
        {
          "internalType": "uint256",
          "name": "",
          "type": "uint256"
        }
      ],
      "name": "resources",
      "outputs": [
        {
          "internalType": "string",
          "name": "description",
          "type": "string"
        },
        {
          "internalType": "string",
          "name": "url",
          "type": "string"
        },
        {
          "internalType": "uint256",
          "name": "endDate",
          "type": "uint256"
        }
      ],
      "stateMutability": "view",
      "type": "function"
    },
    {
      "inputs": [
        {
          "internalType": "uint256",
          "name": "amountReward",
          "type": "uint256"
        }
      ],
      "name": "startNewStake",
      "outputs": [],
      "stateMutability": "nonpayable",
      "type": "function"
    },
    {
      "inputs": [
        {
          "internalType": "address",
          "name": "newOwner",
          "type": "address"
        }
      ],
      "name": "transferOwnership",
      "outputs": [],
      "stateMutability": "nonpayable",
      "type": "function"
    }
  ],
  "bytecode": "0x60a0604052600a600355660221b262dd8000600455671bc16d674ec800006005553480156200002d57600080fd5b50604051620042a1380380620042a1833981810160405281019062000053919062000226565b6200007362000067620000f060201b60201c565b620000f860201b60201c565b8173ffffffffffffffffffffffffffffffffffffffff1660808173ffffffffffffffffffffffffffffffffffffffff168152505080600160006101000a81548173ffffffffffffffffffffffffffffffffffffffff021916908373ffffffffffffffffffffffffffffffffffffffff16021790555050506200026d565b600033905090565b60008060009054906101000a900473ffffffffffffffffffffffffffffffffffffffff169050816000806101000a81548173ffffffffffffffffffffffffffffffffffffffff021916908373ffffffffffffffffffffffffffffffffffffffff1602179055508173ffffffffffffffffffffffffffffffffffffffff168173ffffffffffffffffffffffffffffffffffffffff167f8be0079c531659141344cd1fd0a4f28419497f9722a3daafe3b4186f6b6457e060405160405180910390a35050565b600080fd5b600073ffffffffffffffffffffffffffffffffffffffff82169050919050565b6000620001ee82620001c1565b9050919050565b6200020081620001e1565b81146200020c57600080fd5b50565b6000815190506200022081620001f5565b92915050565b6000806040838503121562000240576200023f620001bc565b5b600062000250858286016200020f565b925050602062000263858286016200020f565b9150509250929050565b60805161400a62000297600039600081816107cd015281816109390152610cd1015261400a6000f3fe608060405260043610620000f25760003560e01c80638da5cb5b116200008b578063bc46fae71162000061578063bc46fae714620002eb578063e38c3c261462000305578063f2fde38b1462000335578063fdeaacd6146200036357620000f2565b80638da5cb5b146200025d5780639ad0e6c6146200028d578063a080dc4714620002bd57620000f2565b8063530cde9a11620000cd578063530cde9a14620001c55780636d153cb114620001e5578063701d8ef81462000215578063715018a6146200024357620000f2565b806304d6d92714620000f7578063244d6daa146200013b5780632c5e1aab1462000181575b600080fd5b3480156200010457600080fd5b506200012360048036038101906200011d91906200150b565b62000393565b604051620001329190620015d2565b60405180910390f35b3480156200014857600080fd5b50620001676004803603810190620001619190620015ef565b620003fb565b6040516200017893929190620016cc565b60405180910390f35b3480156200018e57600080fd5b50620001ad6004803603810190620001a791906200150b565b62000556565b604051620001bc9190620015d2565b60405180910390f35b620001e36004803603810190620001dd919062001785565b62000585565b005b348015620001f257600080fd5b50620001fd620007cb565b6040516200020c91906200187e565b60405180910390f35b3480156200022257600080fd5b506200024160048036038101906200023b9190620018c3565b620007ef565b005b3480156200025057600080fd5b506200025b62000a0b565b005b3480156200026a57600080fd5b506200027562000a9c565b6040516200028491906200191b565b60405180910390f35b3480156200029a57600080fd5b50620002a562000ac5565b604051620002b491906200195d565b60405180910390f35b348015620002ca57600080fd5b50620002e96004803603810190620002e39190620015ef565b62000aeb565b005b348015620002f857600080fd5b506200030362000d6c565b005b3480156200031257600080fd5b506200031d62000f4a565b6040516200032c91906200197a565b60405180910390f35b3480156200034257600080fd5b506200036160048036038101906200035b919062001997565b620010f2565b005b3480156200037057600080fd5b506200037b620011f5565b6040516200038a9190620019ee565b60405180910390f35b60006007600084815260200190815260200160002060008373ffffffffffffffffffffffffffffffffffffffff1673ffffffffffffffffffffffffffffffffffffffff16815260200190815260200160002060009054906101000a900460ff16905092915050565b600681815481106200040c57600080fd5b9060005260206000209060030201600091509050806000018054620004319062001a3a565b80601f01602080910402602001604051908101604052809291908181526020018280546200045f9062001a3a565b8015620004b05780601f106200048457610100808354040283529160200191620004b0565b820191906000526020600020905b8154815290600101906020018083116200049257829003601f168201915b505050505090806001018054620004c79062001a3a565b80601f0160208091040260200160405190810160405280929190818152602001828054620004f59062001a3a565b8015620005465780601f106200051a5761010080835404028352916020019162000546565b820191906000526020600020905b8154815290600101906020018083116200052857829003601f168201915b5050505050908060020154905083565b60076020528160005260406000206020528060005260406000206000915091509054906101000a900460ff1681565b6200060b6040518060400160405280601481526020017f64616e732050726f706f73655265736f7572636500000000000000000000000081525085858080601f016020809104026020016040519081016040528093929190818152602001838380828437600081840152601f19601f82011690508083019250505050505050346200121b565b6200061562000f4a565b3410156200065a576040517f08c379a0000000000000000000000000000000000000000000000000000000008152600401620006519062001ae5565b60405180910390fd5b6006604051806060016040528086868080601f016020809104026020016040519081016040528093929190818152602001838380828437600081840152601f19601f82011690508083019250505050505050815260200184848080601f016020809104026020016040519081016040528093929190818152602001838380828437600081840152601f19601f82011690508083019250505050505050815260200162093a80426200070c919062001b36565b815250908060018154018082558091505060019003906000526020600020906003020160009091909190915060008201518160000190816200074f919062001d68565b50602082015181600101908162000767919062001d68565b506040820151816002015550507fe1ab0213ff2d77b7c42142733c8e3966eb10397cb692040c8c054a01473ca4ef8484848462093a8042620007aa919062001b36565b604051620007bd95949392919062001e91565b60405180910390a150505050565b7f000000000000000000000000000000000000000000000000000000000000000081565b6000600481111562000806576200080562001552565b5b6007600084815260200190815260200160002060003373ffffffffffffffffffffffffffffffffffffffff1673ffffffffffffffffffffffffffffffffffffffff16815260200190815260200160002060009054906101000a900460ff16600481111562000879576200087862001552565b5b14620008bc576040517f08c379a0000000000000000000000000000000000000000000000000000000008152600401620008b39062001f56565b60405180910390fd5b806007600084815260200190815260200160002060003373ffffffffffffffffffffffffffffffffffffffff1673ffffffffffffffffffffffffffffffffffffffff16815260200190815260200160002060006101000a81548160ff0219169083600481111562000932576200093162001552565b5b02179055507f000000000000000000000000000000000000000000000000000000000000000073ffffffffffffffffffffffffffffffffffffffff1663b1501e3b336005546040518363ffffffff1660e01b81526004016200099692919062001f78565b600060405180830381600087803b158015620009b157600080fd5b505af1158015620009c6573d6000803e3d6000fd5b505050507f8b50b93dfb989b74b4ba087c1e13209a66a1d5c0bb792c70f4c4cf637cf1fc94823383604051620009ff9392919062001fa5565b60405180910390a15050565b62000a15620012be565b73ffffffffffffffffffffffffffffffffffffffff1662000a3562000a9c565b73ffffffffffffffffffffffffffffffffffffffff161462000a8e576040517f08c379a000000000000000000000000000000000000000000000000000000000815260040162000a859062002032565b60405180910390fd5b62000a9a6000620012c6565b565b60008060009054906101000a900473ffffffffffffffffffffffffffffffffffffffff16905090565b600160009054906101000a900473ffffffffffffffffffffffffffffffffffffffff1681565b62000af5620012be565b73ffffffffffffffffffffffffffffffffffffffff1662000b1562000a9c565b73ffffffffffffffffffffffffffffffffffffffff161462000b6e576040517f08c379a000000000000000000000000000000000000000000000000000000000815260040162000b659062002032565b60405180910390fd5b62000baf6040518060400160405280600d81526020017f73746172744e65775374616b6500000000000000000000000000000000000000815250826200138a565b600073ffffffffffffffffffffffffffffffffffffffff16600260009054906101000a900473ffffffffffffffffffffffffffffffffffffffff1673ffffffffffffffffffffffffffffffffffffffff161462000c43576040517f08c379a000000000000000000000000000000000000000000000000000000000815260040162000c3a90620020a4565b60405180910390fd5b6000811162000c89576040517f08c379a000000000000000000000000000000000000000000000000000000000815260040162000c809062002116565b60405180910390fd5b47811062000cce576040517f08c379a000000000000000000000000000000000000000000000000000000000815260040162000cc59062002188565b60405180910390fd5b807f000000000000000000000000000000000000000000000000000000000000000060405162000cfe9062001453565b62000d0a91906200191b565b6040518091039082f090508015801562000d28573d6000803e3d6000fd5b50600260006101000a81548173ffffffffffffffffffffffffffffffffffffffff021916908373ffffffffffffffffffffffffffffffffffffffff16021790555050565b62000d76620012be565b73ffffffffffffffffffffffffffffffffffffffff1662000d9662000a9c565b73ffffffffffffffffffffffffffffffffffffffff161462000def576040517f08c379a000000000000000000000000000000000000000000000000000000000815260040162000de69062002032565b60405180910390fd5b600073ffffffffffffffffffffffffffffffffffffffff16600260009054906101000a900473ffffffffffffffffffffffffffffffffffffffff1673ffffffffffffffffffffffffffffffffffffffff160362000e83576040517f08c379a000000000000000000000000000000000000000000000000000000000815260040162000e7a90620021fa565b60405180910390fd5b600260009054906101000a900473ffffffffffffffffffffffffffffffffffffffff1673ffffffffffffffffffffffffffffffffffffffff16628824426040518163ffffffff1660e01b8152600401600060405180830381600087803b15801562000eed57600080fd5b505af115801562000f02573d6000803e3d6000fd5b505050506000600260006101000a81548173ffffffffffffffffffffffffffffffffffffffff021916908373ffffffffffffffffffffffffffffffffffffffff160217905550565b600080600160009054906101000a900473ffffffffffffffffffffffffffffffffffffffff1673ffffffffffffffffffffffffffffffffffffffff16638e15f4736040518163ffffffff1660e01b8152600401602060405180830381865afa15801562000fbb573d6000803e3d6000fd5b505050506040513d601f19601f8201168201806040525081019062000fe1919062002257565b1362001024576040517f08c379a00000000000000000000000000000000000000000000000000000000081526004016200101b90620022d9565b60405180910390fd5b6305f5e100600160009054906101000a900473ffffffffffffffffffffffffffffffffffffffff1673ffffffffffffffffffffffffffffffffffffffff16638e15f4736040518163ffffffff1660e01b8152600401602060405180830381865afa15801562001097573d6000803e3d6000fd5b505050506040513d601f19601f82011682018060405250810190620010bd919062002257565b620010c991906200232a565b600354670de0b6b3a7640000620010e191906200239e565b620010ed9190620023e9565b905090565b620010fc620012be565b73ffffffffffffffffffffffffffffffffffffffff166200111c62000a9c565b73ffffffffffffffffffffffffffffffffffffffff161462001175576040517f08c379a00000000000000000000000000000000000000000000000000000000081526004016200116c9062002032565b60405180910390fd5b600073ffffffffffffffffffffffffffffffffffffffff168173ffffffffffffffffffffffffffffffffffffffff1603620011e7576040517f08c379a0000000000000000000000000000000000000000000000000000000008152600401620011de9062002497565b60405180910390fd5b620011f281620012c6565b50565b600260009054906101000a900473ffffffffffffffffffffffffffffffffffffffff1681565b620012b98383836040516024016200123693929190620016cc565b6040516020818303038152906040527f5821efa1000000000000000000000000000000000000000000000000000000007bffffffffffffffffffffffffffffffffffffffffffffffffffffffff19166020820180517bffffffffffffffffffffffffffffffffffffffffffffffffffffffff83818316178352505050506200142a565b505050565b600033905090565b60008060009054906101000a900473ffffffffffffffffffffffffffffffffffffffff169050816000806101000a81548173ffffffffffffffffffffffffffffffffffffffff021916908373ffffffffffffffffffffffffffffffffffffffff1602179055508173ffffffffffffffffffffffffffffffffffffffff168173ffffffffffffffffffffffffffffffffffffffff167f8be0079c531659141344cd1fd0a4f28419497f9722a3daafe3b4186f6b6457e060405160405180910390a35050565b620014268282604051602401620013a3929190620024b9565b6040516020818303038152906040527fb60e72cc000000000000000000000000000000000000000000000000000000007bffffffffffffffffffffffffffffffffffffffffffffffffffffffff19166020820180517bffffffffffffffffffffffffffffffffffffffffffffffffffffffff83818316178352505050506200142a565b5050565b60008151905060006a636f6e736f6c652e6c6f679050602083016000808483855afa5050505050565b611ae780620024ee83390190565b600080fd5b600080fd5b6000819050919050565b62001480816200146b565b81146200148c57600080fd5b50565b600081359050620014a08162001475565b92915050565b600073ffffffffffffffffffffffffffffffffffffffff82169050919050565b6000620014d382620014a6565b9050919050565b620014e581620014c6565b8114620014f157600080fd5b50565b6000813590506200150581620014da565b92915050565b6000806040838503121562001525576200152462001461565b5b600062001535858286016200148f565b92505060206200154885828601620014f4565b9150509250929050565b7f4e487b7100000000000000000000000000000000000000000000000000000000600052602160045260246000fd5b6005811062001595576200159462001552565b5b50565b6000819050620015a88262001581565b919050565b6000620015ba8262001598565b9050919050565b620015cc81620015ad565b82525050565b6000602082019050620015e96000830184620015c1565b92915050565b60006020828403121562001608576200160762001461565b5b600062001618848285016200148f565b91505092915050565b600081519050919050565b600082825260208201905092915050565b60005b838110156200165d57808201518184015260208101905062001640565b60008484015250505050565b6000601f19601f8301169050919050565b6000620016878262001621565b6200169381856200162c565b9350620016a58185602086016200163d565b620016b08162001669565b840191505092915050565b620016c6816200146b565b82525050565b60006060820190508181036000830152620016e881866200167a565b90508181036020830152620016fe81856200167a565b90506200170f6040830184620016bb565b949350505050565b600080fd5b600080fd5b600080fd5b60008083601f8401126200173f576200173e62001717565b5b8235905067ffffffffffffffff8111156200175f576200175e6200171c565b5b6020830191508360018202830111156200177e576200177d62001721565b5b9250929050565b60008060008060408587031215620017a257620017a162001461565b5b600085013567ffffffffffffffff811115620017c357620017c262001466565b5b620017d18782880162001726565b9450945050602085013567ffffffffffffffff811115620017f757620017f662001466565b5b620018058782880162001726565b925092505092959194509250565b6000819050919050565b60006200183e620018386200183284620014a6565b62001813565b620014a6565b9050919050565b600062001852826200181d565b9050919050565b6000620018668262001845565b9050919050565b620018788162001859565b82525050565b60006020820190506200189560008301846200186d565b92915050565b60058110620018a957600080fd5b50565b600081359050620018bd816200189b565b92915050565b60008060408385031215620018dd57620018dc62001461565b5b6000620018ed858286016200148f565b92505060206200190085828601620018ac565b9150509250929050565b6200191581620014c6565b82525050565b60006020820190506200193260008301846200190a565b92915050565b6000620019458262001845565b9050919050565b620019578162001938565b82525050565b60006020820190506200197460008301846200194c565b92915050565b6000602082019050620019916000830184620016bb565b92915050565b600060208284031215620019b057620019af62001461565b5b6000620019c084828501620014f4565b91505092915050565b6000620019d68262001845565b9050919050565b620019e881620019c9565b82525050565b600060208201905062001a056000830184620019dd565b92915050565b7f4e487b7100000000000000000000000000000000000000000000000000000000600052602260045260246000fd5b6000600282049050600182168062001a5357607f821691505b60208210810362001a695762001a6862001a0b565b5b50919050565b7f596f75206e65656420746f2070617920746865207072696365206f662037206460008201527f617973206f6620686f7374696e67000000000000000000000000000000000000602082015250565b600062001acd602e836200162c565b915062001ada8262001a6f565b604082019050919050565b6000602082019050818103600083015262001b008162001abe565b9050919050565b7f4e487b7100000000000000000000000000000000000000000000000000000000600052601160045260246000fd5b600062001b43826200146b565b915062001b50836200146b565b925082820190508082111562001b6b5762001b6a62001b07565b5b92915050565b7f4e487b7100000000000000000000000000000000000000000000000000000000600052604160045260246000fd5b60008190508160005260206000209050919050565b60006020601f8301049050919050565b600082821b905092915050565b60006008830262001c047fffffffffffffffffffffffffffffffffffffffffffffffffffffffffffffffff8262001bc5565b62001c10868362001bc5565b95508019841693508086168417925050509392505050565b600062001c4962001c4362001c3d846200146b565b62001813565b6200146b565b9050919050565b6000819050919050565b62001c658362001c28565b62001c7d62001c748262001c50565b84845462001bd2565b825550505050565b600090565b62001c9462001c85565b62001ca181848462001c5a565b505050565b5b8181101562001cc95762001cbd60008262001c8a565b60018101905062001ca7565b5050565b601f82111562001d185762001ce28162001ba0565b62001ced8462001bb5565b8101602085101562001cfd578190505b62001d1562001d0c8562001bb5565b83018262001ca6565b50505b505050565b600082821c905092915050565b600062001d3d6000198460080262001d1d565b1980831691505092915050565b600062001d58838362001d2a565b9150826002028217905092915050565b62001d738262001621565b67ffffffffffffffff81111562001d8f5762001d8e62001b71565b5b62001d9b825462001a3a565b62001da882828562001ccd565b600060209050601f83116001811462001de0576000841562001dcb578287015190505b62001dd7858262001d4a565b86555062001e47565b601f19841662001df08662001ba0565b60005b8281101562001e1a5784890151825560018201915060208501945060208101905062001df3565b8683101562001e3a578489015162001e36601f89168262001d2a565b8355505b6001600288020188555050505b505050505050565b82818337600083830152505050565b600062001e6c83856200162c565b935062001e7b83858462001e4f565b62001e868362001669565b840190509392505050565b6000606082019050818103600083015262001eae81878962001e5e565b9050818103602083015262001ec581858762001e5e565b905062001ed66040830184620016bb565b9695505050505050565b7f596f7520616c72656164792061646420696e746572616374696f6e206f6e207460008201527f686973207265736f757263650000000000000000000000000000000000000000602082015250565b600062001f3e602c836200162c565b915062001f4b8262001ee0565b604082019050919050565b6000602082019050818103600083015262001f718162001f2f565b9050919050565b600060408201905062001f8f60008301856200190a565b62001f9e6020830184620016bb565b9392505050565b600060608201905062001fbc6000830186620016bb565b62001fcb60208301856200190a565b62001fda6040830184620015c1565b949350505050565b7f4f776e61626c653a2063616c6c6572206973206e6f7420746865206f776e6572600082015250565b60006200201a6020836200162c565b9150620020278262001fe2565b602082019050919050565b600060208201905081810360008301526200204d816200200b565b9050919050565b7f41207374616b6520697320616c72656164792072756e6e696e67000000000000600082015250565b60006200208c601a836200162c565b9150620020998262002054565b602082019050919050565b60006020820190508181036000830152620020bf816200207d565b9050919050565b7f416d6f756e74206d757374206265203e20300000000000000000000000000000600082015250565b6000620020fe6012836200162c565b91506200210b82620020c6565b602082019050919050565b600060208201905081810360008301526200213181620020ef565b9050919050565b7f4e6f7420656e6f7567682066756e647300000000000000000000000000000000600082015250565b6000620021706010836200162c565b91506200217d8262002138565b602082019050919050565b60006020820190508181036000830152620021a38162002161565b9050919050565b7f4e6f207374616b652069732072756e6e696e6700000000000000000000000000600082015250565b6000620021e26013836200162c565b9150620021ef82620021aa565b602082019050919050565b600060208201905081810360008301526200221581620021d3565b9050919050565b6000819050919050565b62002231816200221c565b81146200223d57600080fd5b50565b600081519050620022518162002226565b92915050565b60006020828403121562002270576200226f62001461565b5b6000620022808482850162002240565b91505092915050565b7f50726963652066656564206973206e6f7420617661696c61626c650000000000600082015250565b6000620022c1601b836200162c565b9150620022ce8262002289565b602082019050919050565b60006020820190508181036000830152620022f481620022b2565b9050919050565b7f4e487b7100000000000000000000000000000000000000000000000000000000600052601260045260246000fd5b600062002337826200221c565b915062002344836200221c565b925082620023575762002356620022fb565b5b600160000383147f80000000000000000000000000000000000000000000000000000000000000008314161562002393576200239262001b07565b5b828205905092915050565b6000620023ab826200146b565b9150620023b8836200146b565b9250828202620023c8816200146b565b91508282048414831517620023e257620023e162001b07565b5b5092915050565b6000620023f6826200146b565b915062002403836200146b565b925082620024165762002415620022fb565b5b828204905092915050565b7f4f776e61626c653a206e6577206f776e657220697320746865207a65726f206160008201527f6464726573730000000000000000000000000000000000000000000000000000602082015250565b60006200247f6026836200162c565b91506200248c8262002421565b604082019050919050565b60006020820190508181036000830152620024b28162002470565b9050919050565b60006040820190508181036000830152620024d581856200167a565b9050620024e66020830184620016bb565b939250505056fe60a060405260405162001ae738038062001ae7833981810160405281019062000029919062000248565b620000496200003d6200011260201b60201c565b6200011a60201b60201c565b8073ffffffffffffffffffffffffffffffffffffffff1660808173ffffffffffffffffffffffffffffffffffffffff168152505062093a8060028190555034600181905550600254600154620000a09190620002e2565b600581905550600060055411620000ee576040517f08c379a0000000000000000000000000000000000000000000000000000000008152600401620000e5906200037b565b60405180910390fd5b60025442620000fe91906200039d565b6003819055504260048190555050620003d8565b600033905090565b60008060009054906101000a900473ffffffffffffffffffffffffffffffffffffffff169050816000806101000a81548173ffffffffffffffffffffffffffffffffffffffff021916908373ffffffffffffffffffffffffffffffffffffffff1602179055508173ffffffffffffffffffffffffffffffffffffffff168173ffffffffffffffffffffffffffffffffffffffff167f8be0079c531659141344cd1fd0a4f28419497f9722a3daafe3b4186f6b6457e060405160405180910390a35050565b600080fd5b600073ffffffffffffffffffffffffffffffffffffffff82169050919050565b60006200021082620001e3565b9050919050565b620002228162000203565b81146200022e57600080fd5b50565b600081519050620002428162000217565b92915050565b600060208284031215620002615762000260620001de565b5b6000620002718482850162000231565b91505092915050565b6000819050919050565b7f4e487b7100000000000000000000000000000000000000000000000000000000600052601260045260246000fd5b7f4e487b7100000000000000000000000000000000000000000000000000000000600052601160045260246000fd5b6000620002ef826200027a565b9150620002fc836200027a565b9250826200030f576200030e62000284565b5b828204905092915050565b600082825260208201905092915050565b7f7265776172642072617465203d20300000000000000000000000000000000000600082015250565b600062000363600f836200031a565b915062000370826200032b565b602082019050919050565b60006020820190508181036000830152620003968162000354565b9050919050565b6000620003aa826200027a565b9150620003b7836200027a565b9250828201905080821115620003d257620003d1620002b3565b5b92915050565b6080516116e562000402600039600081816105d90152818161075d015261099501526116e56000f3fe608060405234801561001057600080fd5b50600436106101205760003560e01c80637519ab50116100ad578063b6b55f2511610071578063b6b55f25146102c3578063b88a802f146102df578063cd3daf9d146102e9578063d91de40a14610307578063f2fde38b1461033757610120565b80637519ab50146102095780637b0a47ee146102275780638b876347146102455780638da5cb5b14610275578063af46aa081461029357610120565b80632f3b6ad3116100f45780632f3b6ad31461019b5780633ccfd60b146101b957806367d3b488146101c35780636d153cb1146101e1578063715018a6146101ff57610120565b8062882442146101255780630700037d1461012f5780630fb5a6b41461015f57806318160ddd1461017d575b600080fd5b61012d610353565b005b610149600480360381019061014491906110ba565b6104c9565b6040516101569190611100565b60405180910390f35b6101676104e1565b6040516101749190611100565b60405180910390f35b6101856104e7565b6040516101929190611100565b60405180910390f35b6101a36104ed565b6040516101b09190611100565b60405180910390f35b6101c16104f3565b005b6101cb610755565b6040516101d89190611100565b60405180910390f35b6101e961075b565b6040516101f6919061117a565b60405180910390f35b61020761077f565b005b610211610807565b60405161021e9190611100565b60405180910390f35b61022f61080d565b60405161023c9190611100565b60405180910390f35b61025f600480360381019061025a91906110ba565b610813565b60405161026c9190611100565b60405180910390f35b61027d61082b565b60405161028a91906111a4565b60405180910390f35b6102ad60048036038101906102a891906110ba565b610854565b6040516102ba9190611100565b60405180910390f35b6102dd60048036038101906102d891906111eb565b61086c565b005b6102e7610aa7565b005b6102f1610d08565b6040516102fe9190611100565b60405180910390f35b610321600480360381019061031c91906110ba565b610d0e565b60405161032e9190611100565b60405180910390f35b610351600480360381019061034c91906110ba565b610e10565b005b61035b610f07565b73ffffffffffffffffffffffffffffffffffffffff1661037961082b565b73ffffffffffffffffffffffffffffffffffffffff16146103cf576040517f08c379a00000000000000000000000000000000000000000000000000000000081526004016103c690611275565b60405180910390fd5b6003544211610413576040517f08c379a000000000000000000000000000000000000000000000000000000000815260040161040a906112e1565b60405180910390fd5b600061041d61082b565b73ffffffffffffffffffffffffffffffffffffffff164760405161044090611332565b60006040518083038185875af1925050503d806000811461047d576040519150601f19603f3d011682016040523d82523d6000602084013e610482565b606091505b50509050806104c6576040517f08c379a00000000000000000000000000000000000000000000000000000000081526004016104bd90611393565b60405180910390fd5b50565b60096020528060005260406000206000915090505481565b60025481565b60075481565b60015481565b336104fc610f0f565b60068190555061050a610f78565b600481905550600073ffffffffffffffffffffffffffffffffffffffff168173ffffffffffffffffffffffffffffffffffffffff16146105d75761054d81610d0e565b600960008373ffffffffffffffffffffffffffffffffffffffff1673ffffffffffffffffffffffffffffffffffffffff16815260200190815260200160002081905550600654600860008373ffffffffffffffffffffffffffffffffffffffff1673ffffffffffffffffffffffffffffffffffffffff168152602001908152602001600020819055505b7f000000000000000000000000000000000000000000000000000000000000000073ffffffffffffffffffffffffffffffffffffffff1663a9059cbb33600a60003373ffffffffffffffffffffffffffffffffffffffff1673ffffffffffffffffffffffffffffffffffffffff168152602001908152602001600020546040518363ffffffff1660e01b81526004016106719291906113b3565b6020604051808303816000875af1158015610690573d6000803e3d6000fd5b505050506040513d601f19601f820116820180604052508101906106b49190611414565b50600a60003373ffffffffffffffffffffffffffffffffffffffff1673ffffffffffffffffffffffffffffffffffffffff16815260200190815260200160002054600760008282546107069190611470565b925050819055506000600a60003373ffffffffffffffffffffffffffffffffffffffff1673ffffffffffffffffffffffffffffffffffffffff1681526020019081526020016000208190555050565b60035481565b7f000000000000000000000000000000000000000000000000000000000000000081565b610787610f07565b73ffffffffffffffffffffffffffffffffffffffff166107a561082b565b73ffffffffffffffffffffffffffffffffffffffff16146107fb576040517f08c379a00000000000000000000000000000000000000000000000000000000081526004016107f290611275565b60405180910390fd5b6108056000610f93565b565b60045481565b60055481565b60086020528060005260406000206000915090505481565b60008060009054906101000a900473ffffffffffffffffffffffffffffffffffffffff16905090565b600a6020528060005260406000206000915090505481565b33610875610f0f565b600681905550610883610f78565b600481905550600073ffffffffffffffffffffffffffffffffffffffff168173ffffffffffffffffffffffffffffffffffffffff1614610950576108c681610d0e565b600960008373ffffffffffffffffffffffffffffffffffffffff1673ffffffffffffffffffffffffffffffffffffffff16815260200190815260200160002081905550600654600860008373ffffffffffffffffffffffffffffffffffffffff1673ffffffffffffffffffffffffffffffffffffffff168152602001908152602001600020819055505b60008211610993576040517f08c379a000000000000000000000000000000000000000000000000000000000815260040161098a906114f0565b60405180910390fd5b7f000000000000000000000000000000000000000000000000000000000000000073ffffffffffffffffffffffffffffffffffffffff166323b872dd3330856040518463ffffffff1660e01b81526004016109f093929190611510565b6020604051808303816000875af1158015610a0f573d6000803e3d6000fd5b505050506040513d601f19601f82011682018060405250810190610a339190611414565b5081600a60003373ffffffffffffffffffffffffffffffffffffffff1673ffffffffffffffffffffffffffffffffffffffff1681526020019081526020016000206000828254610a839190611547565b925050819055508160076000828254610a9c9190611547565b925050819055505050565b33610ab0610f0f565b600681905550610abe610f78565b600481905550600073ffffffffffffffffffffffffffffffffffffffff168173ffffffffffffffffffffffffffffffffffffffff1614610b8b57610b0181610d0e565b600960008373ffffffffffffffffffffffffffffffffffffffff1673ffffffffffffffffffffffffffffffffffffffff16815260200190815260200160002081905550600654600860008373ffffffffffffffffffffffffffffffffffffffff1673ffffffffffffffffffffffffffffffffffffffff168152602001908152602001600020819055505b6000600960003373ffffffffffffffffffffffffffffffffffffffff1673ffffffffffffffffffffffffffffffffffffffff168152602001908152602001600020541115610d055760003373ffffffffffffffffffffffffffffffffffffffff16600960003373ffffffffffffffffffffffffffffffffffffffff1673ffffffffffffffffffffffffffffffffffffffff16815260200190815260200160002054604051610c3890611332565b60006040518083038185875af1925050503d8060008114610c75576040519150601f19603f3d011682016040523d82523d6000602084013e610c7a565b606091505b5050905080610cbe576040517f08c379a0000000000000000000000000000000000000000000000000000000008152600401610cb590611393565b60405180910390fd5b6000600960003373ffffffffffffffffffffffffffffffffffffffff1673ffffffffffffffffffffffffffffffffffffffff16815260200190815260200160002081905550505b50565b60065481565b6000670de0b6b3a7640000600860008473ffffffffffffffffffffffffffffffffffffffff1673ffffffffffffffffffffffffffffffffffffffff16815260200190815260200160002054610d61610f0f565b610d6b9190611470565b600a60008573ffffffffffffffffffffffffffffffffffffffff1673ffffffffffffffffffffffffffffffffffffffff16815260200190815260200160002054610db5919061157b565b610dbf91906115ec565b600960008473ffffffffffffffffffffffffffffffffffffffff1673ffffffffffffffffffffffffffffffffffffffff16815260200190815260200160002054610e099190611547565b9050919050565b610e18610f07565b73ffffffffffffffffffffffffffffffffffffffff16610e3661082b565b73ffffffffffffffffffffffffffffffffffffffff1614610e8c576040517f08c379a0000000000000000000000000000000000000000000000000000000008152600401610e8390611275565b60405180910390fd5b600073ffffffffffffffffffffffffffffffffffffffff168173ffffffffffffffffffffffffffffffffffffffff1603610efb576040517f08c379a0000000000000000000000000000000000000000000000000000000008152600401610ef29061168f565b60405180910390fd5b610f0481610f93565b50565b600033905090565b60008060075403610f235760009050610f75565b600754670de0b6b3a7640000600454610f3a610f78565b610f449190611470565b600554610f51919061157b565b610f5b919061157b565b610f6591906115ec565b600654610f729190611547565b90505b90565b6000426003541115610f8a5742610f8e565b6003545b905090565b60008060009054906101000a900473ffffffffffffffffffffffffffffffffffffffff169050816000806101000a81548173ffffffffffffffffffffffffffffffffffffffff021916908373ffffffffffffffffffffffffffffffffffffffff1602179055508173ffffffffffffffffffffffffffffffffffffffff168173ffffffffffffffffffffffffffffffffffffffff167f8be0079c531659141344cd1fd0a4f28419497f9722a3daafe3b4186f6b6457e060405160405180910390a35050565b600080fd5b600073ffffffffffffffffffffffffffffffffffffffff82169050919050565b60006110878261105c565b9050919050565b6110978161107c565b81146110a257600080fd5b50565b6000813590506110b48161108e565b92915050565b6000602082840312156110d0576110cf611057565b5b60006110de848285016110a5565b91505092915050565b6000819050919050565b6110fa816110e7565b82525050565b600060208201905061111560008301846110f1565b92915050565b6000819050919050565b600061114061113b6111368461105c565b61111b565b61105c565b9050919050565b600061115282611125565b9050919050565b600061116482611147565b9050919050565b61117481611159565b82525050565b600060208201905061118f600083018461116b565b92915050565b61119e8161107c565b82525050565b60006020820190506111b96000830184611195565b92915050565b6111c8816110e7565b81146111d357600080fd5b50565b6000813590506111e5816111bf565b92915050565b60006020828403121561120157611200611057565b5b600061120f848285016111d6565b91505092915050565b600082825260208201905092915050565b7f4f776e61626c653a2063616c6c6572206973206e6f7420746865206f776e6572600082015250565b600061125f602083611218565b915061126a82611229565b602082019050919050565b6000602082019050818103600083015261128e81611252565b9050919050565b7f6e6f742066696e69736865642079657400000000000000000000000000000000600082015250565b60006112cb601083611218565b91506112d682611295565b602082019050919050565b600060208201905081810360008301526112fa816112be565b9050919050565b600081905092915050565b50565b600061131c600083611301565b91506113278261130c565b600082019050919050565b600061133d8261130f565b9150819050919050565b7f4661696c656420746f2073656e64204574686572000000000000000000000000600082015250565b600061137d601483611218565b915061138882611347565b602082019050919050565b600060208201905081810360008301526113ac81611370565b9050919050565b60006040820190506113c86000830185611195565b6113d560208301846110f1565b9392505050565b60008115159050919050565b6113f1816113dc565b81146113fc57600080fd5b50565b60008151905061140e816113e8565b92915050565b60006020828403121561142a57611429611057565b5b6000611438848285016113ff565b91505092915050565b7f4e487b7100000000000000000000000000000000000000000000000000000000600052601160045260246000fd5b600061147b826110e7565b9150611486836110e7565b925082820390508181111561149e5761149d611441565b5b92915050565b7f616d6f756e74203d203000000000000000000000000000000000000000000000600082015250565b60006114da600a83611218565b91506114e5826114a4565b602082019050919050565b60006020820190508181036000830152611509816114cd565b9050919050565b60006060820190506115256000830186611195565b6115326020830185611195565b61153f60408301846110f1565b949350505050565b6000611552826110e7565b915061155d836110e7565b925082820190508082111561157557611574611441565b5b92915050565b6000611586826110e7565b9150611591836110e7565b925082820261159f816110e7565b915082820484148315176115b6576115b5611441565b5b5092915050565b7f4e487b7100000000000000000000000000000000000000000000000000000000600052601260045260246000fd5b60006115f7826110e7565b9150611602836110e7565b925082611612576116116115bd565b5b828204905092915050565b7f4f776e61626c653a206e6577206f776e657220697320746865207a65726f206160008201527f6464726573730000000000000000000000000000000000000000000000000000602082015250565b6000611679602683611218565b91506116848261161d565b604082019050919050565b600060208201905081810360008301526116a88161166c565b905091905056fea264697066735822122086bc57b9718e48eb60d24b395aadf40cbea64a9b897fa189b268d12f0c3d31d664736f6c63430008120033a2646970667358221220ed07e661886d9d07b3dc61b55145fbc974f17229401b41cd3e584171aa722f7964736f6c63430008120033",
  "linkReferences": {},
  "deployedLinkReferences": {}
}