{
  "_format": "hh-sol-artifact-1",
  "contractName": "ArkaMaster",
  "sourceName": "contracts/ArkaMaster.sol",
  "abi": [
    {
      "inputs": [
        {
          "internalType": "address",
          "name": "_arkaToken",
          "type": "address"
        },
        {
          "internalType": "address",
          "name": "_priceFeedEthUsd",
          "type": "address"
        }
      ],
      "stateMutability": "nonpayable",
      "type": "constructor"
    },
    {
      "anonymous": false,
      "inputs": [],
      "name": "EndStake",
      "type": "event"
    },
    {
      "anonymous": false,
      "inputs": [
        {
          "indexed": false,
          "internalType": "uint256",
          "name": "idResource",
          "type": "uint256"
        },
        {
          "indexed": false,
          "internalType": "address",
          "name": "user",
          "type": "address"
        },
        {
          "indexed": false,
          "internalType": "enum ArkaMaster.InteractType",
          "name": "interaction",
          "type": "uint8"
        }
      ],
      "name": "Interaction",
      "type": "event"
    },
    {
      "anonymous": false,
      "inputs": [
        {
          "indexed": false,
          "internalType": "uint256",
          "name": "amountReward",
          "type": "uint256"
        }
      ],
      "name": "NewStake",
      "type": "event"
    },
    {
      "anonymous": false,
      "inputs": [
        {
          "indexed": true,
          "internalType": "address",
          "name": "previousOwner",
          "type": "address"
        },
        {
          "indexed": true,
          "internalType": "address",
          "name": "newOwner",
          "type": "address"
        }
      ],
      "name": "OwnershipTransferred",
      "type": "event"
    },
    {
      "anonymous": false,
      "inputs": [
        {
          "indexed": false,
          "internalType": "string",
          "name": "description",
          "type": "string"
        },
        {
          "indexed": false,
          "internalType": "string",
          "name": "url",
          "type": "string"
        },
        {
          "indexed": false,
          "internalType": "uint256",
          "name": "endDate",
          "type": "uint256"
        }
      ],
      "name": "ResourceProposed",
      "type": "event"
    },
    {
      "inputs": [],
      "name": "arkaToken",
      "outputs": [
        {
          "internalType": "contract ArkaERC20",
          "name": "",
          "type": "address"
        }
      ],
      "stateMutability": "view",
      "type": "function"
    },
    {
      "inputs": [],
      "name": "currentStake",
      "outputs": [
        {
          "internalType": "contract ArkaStaking",
          "name": "",
          "type": "address"
        }
      ],
      "stateMutability": "view",
      "type": "function"
    },
    {
      "inputs": [],
      "name": "endCurrentStake",
      "outputs": [],
      "stateMutability": "nonpayable",
      "type": "function"
    },
    {
      "inputs": [
        {
          "internalType": "uint256",
          "name": "_idResource",
          "type": "uint256"
        },
        {
          "internalType": "address",
          "name": "_user",
          "type": "address"
        }
      ],
      "name": "getInteraction",
      "outputs": [
        {
          "internalType": "enum ArkaMaster.InteractType",
          "name": "",
          "type": "uint8"
        }
      ],
      "stateMutability": "view",
      "type": "function"
    },
    {
      "inputs": [],
      "name": "getPriceForProposalInWei",
      "outputs": [
        {
          "internalType": "uint256",
          "name": "",
          "type": "uint256"
        }
      ],
      "stateMutability": "view",
      "type": "function"
    },
    {
      "inputs": [
        {
          "internalType": "uint256",
          "name": "_idResource",
          "type": "uint256"
        }
      ],
      "name": "getResource",
      "outputs": [
        {
          "components": [
            {
              "internalType": "string",
              "name": "description",
              "type": "string"
            },
            {
              "internalType": "string",
              "name": "url",
              "type": "string"
            },
            {
              "internalType": "uint256",
              "name": "endDate",
              "type": "uint256"
            }
          ],
          "internalType": "struct ArkaMaster.Resource",
          "name": "",
          "type": "tuple"
        }
      ],
      "stateMutability": "view",
      "type": "function"
    },
    {
      "inputs": [],
      "name": "getResourceLength",
      "outputs": [
        {
          "internalType": "uint256",
          "name": "",
          "type": "uint256"
        }
      ],
      "stateMutability": "view",
      "type": "function"
    },
    {
      "inputs": [
        {
          "internalType": "uint256",
          "name": "_idResource",
          "type": "uint256"
        },
        {
          "internalType": "enum ArkaMaster.InteractType",
          "name": "_interaction",
          "type": "uint8"
        }
      ],
      "name": "interact",
      "outputs": [],
      "stateMutability": "nonpayable",
      "type": "function"
    },
    {
      "inputs": [
        {
          "internalType": "uint256",
          "name": "",
          "type": "uint256"
        },
        {
          "internalType": "address",
          "name": "",
          "type": "address"
        }
      ],
      "name": "interactions",
      "outputs": [
        {
          "internalType": "enum ArkaMaster.InteractType",
          "name": "",
          "type": "uint8"
        }
      ],
      "stateMutability": "view",
      "type": "function"
    },
    {
      "inputs": [],
      "name": "owner",
      "outputs": [
        {
          "internalType": "address",
          "name": "",
          "type": "address"
        }
      ],
      "stateMutability": "view",
      "type": "function"
    },
    {
      "inputs": [],
      "name": "priceFeedEthUsd",
      "outputs": [
        {
          "internalType": "contract ChainlinkEthUsd",
          "name": "",
          "type": "address"
        }
      ],
      "stateMutability": "view",
      "type": "function"
    },
    {
      "inputs": [
        {
          "internalType": "string",
          "name": "_description",
          "type": "string"
        },
        {
          "internalType": "string",
          "name": "_url",
          "type": "string"
        }
      ],
      "name": "proposeResource",
      "outputs": [],
      "stateMutability": "payable",
      "type": "function"
    },
    {
      "inputs": [],
      "name": "renounceOwnership",
      "outputs": [],
      "stateMutability": "nonpayable",
      "type": "function"
    },
    {
      "inputs": [
        {
          "internalType": "uint256",
          "name": "",
          "type": "uint256"
        }
      ],
      "name": "resources",
      "outputs": [
        {
          "internalType": "string",
          "name": "description",
          "type": "string"
        },
        {
          "internalType": "string",
          "name": "url",
          "type": "string"
        },
        {
          "internalType": "uint256",
          "name": "endDate",
          "type": "uint256"
        }
      ],
      "stateMutability": "view",
      "type": "function"
    },
    {
      "inputs": [
        {
          "internalType": "uint256",
          "name": "_amountReward",
          "type": "uint256"
        }
      ],
      "name": "startNewStake",
      "outputs": [],
      "stateMutability": "nonpayable",
      "type": "function"
    },
    {
      "inputs": [
        {
          "internalType": "address",
          "name": "newOwner",
          "type": "address"
        }
      ],
      "name": "transferOwnership",
      "outputs": [],
      "stateMutability": "nonpayable",
      "type": "function"
    }
  ],
  "bytecode": "0x60a0604052600a600355660221b262dd8000600455671bc16d674ec800006005553480156200002d57600080fd5b506040516200496238038062004962833981810160405281019062000053919062000226565b6200007362000067620000f060201b60201c565b620000f860201b60201c565b8173ffffffffffffffffffffffffffffffffffffffff1660808173ffffffffffffffffffffffffffffffffffffffff168152505080600160006101000a81548173ffffffffffffffffffffffffffffffffffffffff021916908373ffffffffffffffffffffffffffffffffffffffff16021790555050506200026d565b600033905090565b60008060009054906101000a900473ffffffffffffffffffffffffffffffffffffffff169050816000806101000a81548173ffffffffffffffffffffffffffffffffffffffff021916908373ffffffffffffffffffffffffffffffffffffffff1602179055508173ffffffffffffffffffffffffffffffffffffffff168173ffffffffffffffffffffffffffffffffffffffff167f8be0079c531659141344cd1fd0a4f28419497f9722a3daafe3b4186f6b6457e060405160405180910390a35050565b600080fd5b600073ffffffffffffffffffffffffffffffffffffffff82169050919050565b6000620001ee82620001c1565b9050919050565b6200020081620001e1565b81146200020c57600080fd5b50565b6000815190506200022081620001f5565b92915050565b6000806040838503121562000240576200023f620001bc565b5b600062000250858286016200020f565b925050602062000263858286016200020f565b9150509250929050565b6080516146cb620002976000396000818161095f01528181610acb0152610e6301526146cb6000f3fe6080604052600436106200010a5760003560e01c8063715018a61162000097578063bc46fae71162000061578063bc46fae71462000377578063e38c3c261462000391578063f2fde38b14620003c1578063fdeaacd614620003ef576200010a565b8063715018a614620002cf5780638da5cb5b14620002e95780639ad0e6c61462000319578063a080dc471462000349576200010a565b8063530cde9a11620000d9578063530cde9a14620002215780636b87716c14620002415780636d153cb11462000271578063701d8ef814620002a1576200010a565b806304d6d927146200010f5780631e8fca2d1462000153578063244d6daa14620001975780632c5e1aab14620001dd575b600080fd5b3480156200011c57600080fd5b506200013b600480360381019062000135919062001680565b6200041f565b6040516200014a919062001747565b60405180910390f35b3480156200016057600080fd5b506200017f600480360381019062000179919062001764565b62000487565b6040516200018e91906200189e565b60405180910390f35b348015620001a457600080fd5b50620001c36004803603810190620001bd919062001764565b62000606565b604051620001d49392919062001925565b60405180910390f35b348015620001ea57600080fd5b5062000209600480360381019062000203919062001680565b62000761565b60405162000218919062001747565b60405180910390f35b6200023f6004803603810190620002399190620019de565b62000790565b005b3480156200024e57600080fd5b506200025962000950565b60405162000268919062001a6c565b60405180910390f35b3480156200027e57600080fd5b50620002896200095d565b60405162000298919062001af4565b60405180910390f35b348015620002ae57600080fd5b50620002cd6004803603810190620002c7919062001b39565b62000981565b005b348015620002dc57600080fd5b50620002e762000b9d565b005b348015620002f657600080fd5b506200030162000c2e565b60405162000310919062001b91565b60405180910390f35b3480156200032657600080fd5b506200033162000c57565b60405162000340919062001bd3565b60405180910390f35b3480156200035657600080fd5b506200037560048036038101906200036f919062001764565b62000c7d565b005b3480156200038457600080fd5b506200038f62000f37565b005b3480156200039e57600080fd5b50620003a962001141565b604051620003b8919062001a6c565b60405180910390f35b348015620003ce57600080fd5b50620003ed6004803603810190620003e7919062001bf0565b620012e9565b005b348015620003fc57600080fd5b5062000407620013ec565b60405162000416919062001c47565b60405180910390f35b60006007600084815260200190815260200160002060008373ffffffffffffffffffffffffffffffffffffffff1673ffffffffffffffffffffffffffffffffffffffff16815260200190815260200160002060009054906101000a900460ff16905092915050565b62000491620015a7565b60068281548110620004a857620004a762001c64565b5b9060005260206000209060030201604051806060016040529081600082018054620004d39062001cc2565b80601f0160208091040260200160405190810160405280929190818152602001828054620005019062001cc2565b8015620005525780601f10620005265761010080835404028352916020019162000552565b820191906000526020600020905b8154815290600101906020018083116200053457829003601f168201915b505050505081526020016001820180546200056d9062001cc2565b80601f01602080910402602001604051908101604052809291908181526020018280546200059b9062001cc2565b8015620005ec5780601f10620005c057610100808354040283529160200191620005ec565b820191906000526020600020905b815481529060010190602001808311620005ce57829003601f168201915b505050505081526020016002820154815250509050919050565b600681815481106200061757600080fd5b90600052602060002090600302016000915090508060000180546200063c9062001cc2565b80601f01602080910402602001604051908101604052809291908181526020018280546200066a9062001cc2565b8015620006bb5780601f106200068f57610100808354040283529160200191620006bb565b820191906000526020600020905b8154815290600101906020018083116200069d57829003601f168201915b505050505090806001018054620006d29062001cc2565b80601f0160208091040260200160405190810160405280929190818152602001828054620007009062001cc2565b8015620007515780601f10620007255761010080835404028352916020019162000751565b820191906000526020600020905b8154815290600101906020018083116200073357829003601f168201915b5050505050908060020154905083565b60076020528160005260406000206020528060005260406000206000915091509054906101000a900460ff1681565b6200079a62001141565b341015620007df576040517f08c379a0000000000000000000000000000000000000000000000000000000008152600401620007d69062001d6d565b60405180910390fd5b6006604051806060016040528086868080601f016020809104026020016040519081016040528093929190818152602001838380828437600081840152601f19601f82011690508083019250505050505050815260200184848080601f016020809104026020016040519081016040528093929190818152602001838380828437600081840152601f19601f82011690508083019250505050505050815260200162093a804262000891919062001dbe565b81525090806001815401808255809150506001900390600052602060002090600302016000909190919091506000820151816000019081620008d4919062001ff0565b506020820151816001019081620008ec919062001ff0565b506040820151816002015550507fe1ab0213ff2d77b7c42142733c8e3966eb10397cb692040c8c054a01473ca4ef8484848462093a80426200092f919062001dbe565b6040516200094295949392919062002119565b60405180910390a150505050565b6000600680549050905090565b7f000000000000000000000000000000000000000000000000000000000000000081565b60006004811115620009985762000997620016c7565b5b6007600084815260200190815260200160002060003373ffffffffffffffffffffffffffffffffffffffff1673ffffffffffffffffffffffffffffffffffffffff16815260200190815260200160002060009054906101000a900460ff16600481111562000a0b5762000a0a620016c7565b5b1462000a4e576040517f08c379a000000000000000000000000000000000000000000000000000000000815260040162000a4590620021de565b60405180910390fd5b806007600084815260200190815260200160002060003373ffffffffffffffffffffffffffffffffffffffff1673ffffffffffffffffffffffffffffffffffffffff16815260200190815260200160002060006101000a81548160ff0219169083600481111562000ac45762000ac3620016c7565b5b02179055507f000000000000000000000000000000000000000000000000000000000000000073ffffffffffffffffffffffffffffffffffffffff1663b1501e3b336005546040518363ffffffff1660e01b815260040162000b2892919062002200565b600060405180830381600087803b15801562000b4357600080fd5b505af115801562000b58573d6000803e3d6000fd5b505050507f8b50b93dfb989b74b4ba087c1e13209a66a1d5c0bb792c70f4c4cf637cf1fc9482338360405162000b91939291906200222d565b60405180910390a15050565b62000ba762001412565b73ffffffffffffffffffffffffffffffffffffffff1662000bc762000c2e565b73ffffffffffffffffffffffffffffffffffffffff161462000c20576040517f08c379a000000000000000000000000000000000000000000000000000000000815260040162000c1790620022ba565b60405180910390fd5b62000c2c60006200141a565b565b60008060009054906101000a900473ffffffffffffffffffffffffffffffffffffffff16905090565b600160009054906101000a900473ffffffffffffffffffffffffffffffffffffffff1681565b62000c8762001412565b73ffffffffffffffffffffffffffffffffffffffff1662000ca762000c2e565b73ffffffffffffffffffffffffffffffffffffffff161462000d00576040517f08c379a000000000000000000000000000000000000000000000000000000000815260040162000cf790620022ba565b60405180910390fd5b62000d416040518060400160405280600d81526020017f73746172744e65775374616b650000000000000000000000000000000000000081525082620014de565b600073ffffffffffffffffffffffffffffffffffffffff16600260009054906101000a900473ffffffffffffffffffffffffffffffffffffffff1673ffffffffffffffffffffffffffffffffffffffff161462000dd5576040517f08c379a000000000000000000000000000000000000000000000000000000000815260040162000dcc906200232c565b60405180910390fd5b6000811162000e1b576040517f08c379a000000000000000000000000000000000000000000000000000000000815260040162000e12906200239e565b60405180910390fd5b47811062000e60576040517f08c379a000000000000000000000000000000000000000000000000000000000815260040162000e579062002410565b60405180910390fd5b807f000000000000000000000000000000000000000000000000000000000000000060405162000e9090620015c8565b62000e9c919062001b91565b6040518091039082f090508015801562000eba573d6000803e3d6000fd5b50600260006101000a81548173ffffffffffffffffffffffffffffffffffffffff021916908373ffffffffffffffffffffffffffffffffffffffff1602179055507f9193436894c1e220c236b0df5dd44eb674082159bf8dfacdba8b79270ced9e698160405162000f2c919062001a6c565b60405180910390a150565b62000f4162001412565b73ffffffffffffffffffffffffffffffffffffffff1662000f6162000c2e565b73ffffffffffffffffffffffffffffffffffffffff161462000fba576040517f08c379a000000000000000000000000000000000000000000000000000000000815260040162000fb190620022ba565b60405180910390fd5b600073ffffffffffffffffffffffffffffffffffffffff16600260009054906101000a900473ffffffffffffffffffffffffffffffffffffffff1673ffffffffffffffffffffffffffffffffffffffff16036200104e576040517f08c379a0000000000000000000000000000000000000000000000000000000008152600401620010459062002482565b60405180910390fd5b600260009054906101000a900473ffffffffffffffffffffffffffffffffffffffff1673ffffffffffffffffffffffffffffffffffffffff16628824426040518163ffffffff1660e01b8152600401600060405180830381600087803b158015620010b857600080fd5b505af1158015620010cd573d6000803e3d6000fd5b505050506000600260006101000a81548173ffffffffffffffffffffffffffffffffffffffff021916908373ffffffffffffffffffffffffffffffffffffffff1602179055507f127f9a459e0566c09fdec990d004a7ae34e91858e3cb2c85d4550441d1f8f45760405160405180910390a1565b600080600160009054906101000a900473ffffffffffffffffffffffffffffffffffffffff1673ffffffffffffffffffffffffffffffffffffffff16638e15f4736040518163ffffffff1660e01b8152600401602060405180830381865afa158015620011b2573d6000803e3d6000fd5b505050506040513d601f19601f82011682018060405250810190620011d89190620024df565b136200121b576040517f08c379a0000000000000000000000000000000000000000000000000000000008152600401620012129062002561565b60405180910390fd5b6305f5e100600160009054906101000a900473ffffffffffffffffffffffffffffffffffffffff1673ffffffffffffffffffffffffffffffffffffffff16638e15f4736040518163ffffffff1660e01b8152600401602060405180830381865afa1580156200128e573d6000803e3d6000fd5b505050506040513d601f19601f82011682018060405250810190620012b49190620024df565b620012c09190620025b2565b600354670de0b6b3a7640000620012d8919062002626565b620012e4919062002671565b905090565b620012f362001412565b73ffffffffffffffffffffffffffffffffffffffff166200131362000c2e565b73ffffffffffffffffffffffffffffffffffffffff16146200136c576040517f08c379a00000000000000000000000000000000000000000000000000000000081526004016200136390620022ba565b60405180910390fd5b600073ffffffffffffffffffffffffffffffffffffffff168173ffffffffffffffffffffffffffffffffffffffff1603620013de576040517f08c379a0000000000000000000000000000000000000000000000000000000008152600401620013d5906200271f565b60405180910390fd5b620013e9816200141a565b50565b600260009054906101000a900473ffffffffffffffffffffffffffffffffffffffff1681565b600033905090565b60008060009054906101000a900473ffffffffffffffffffffffffffffffffffffffff169050816000806101000a81548173ffffffffffffffffffffffffffffffffffffffff021916908373ffffffffffffffffffffffffffffffffffffffff1602179055508173ffffffffffffffffffffffffffffffffffffffff168173ffffffffffffffffffffffffffffffffffffffff167f8be0079c531659141344cd1fd0a4f28419497f9722a3daafe3b4186f6b6457e060405160405180910390a35050565b6200157a8282604051602401620014f792919062002741565b6040516020818303038152906040527fb60e72cc000000000000000000000000000000000000000000000000000000007bffffffffffffffffffffffffffffffffffffffffffffffffffffffff19166020820180517bffffffffffffffffffffffffffffffffffffffffffffffffffffffff83818316178352505050506200157e565b5050565b60008151905060006a636f6e736f6c652e6c6f679050602083016000808483855afa5050505050565b60405180606001604052806060815260200160608152602001600081525090565b611f20806200277683390190565b600080fd5b600080fd5b6000819050919050565b620015f581620015e0565b81146200160157600080fd5b50565b6000813590506200161581620015ea565b92915050565b600073ffffffffffffffffffffffffffffffffffffffff82169050919050565b600062001648826200161b565b9050919050565b6200165a816200163b565b81146200166657600080fd5b50565b6000813590506200167a816200164f565b92915050565b600080604083850312156200169a5762001699620015d6565b5b6000620016aa8582860162001604565b9250506020620016bd8582860162001669565b9150509250929050565b7f4e487b7100000000000000000000000000000000000000000000000000000000600052602160045260246000fd5b600581106200170a5762001709620016c7565b5b50565b60008190506200171d82620016f6565b919050565b60006200172f826200170d565b9050919050565b620017418162001722565b82525050565b60006020820190506200175e600083018462001736565b92915050565b6000602082840312156200177d576200177c620015d6565b5b60006200178d8482850162001604565b91505092915050565b600081519050919050565b600082825260208201905092915050565b60005b83811015620017d2578082015181840152602081019050620017b5565b60008484015250505050565b6000601f19601f8301169050919050565b6000620017fc8262001796565b620018088185620017a1565b93506200181a818560208601620017b2565b6200182581620017de565b840191505092915050565b6200183b81620015e0565b82525050565b60006060830160008301518482036000860152620018608282620017ef565b915050602083015184820360208601526200187c8282620017ef565b915050604083015162001893604086018262001830565b508091505092915050565b60006020820190508181036000830152620018ba818462001841565b905092915050565b600082825260208201905092915050565b6000620018e08262001796565b620018ec8185620018c2565b9350620018fe818560208601620017b2565b6200190981620017de565b840191505092915050565b6200191f81620015e0565b82525050565b60006060820190508181036000830152620019418186620018d3565b90508181036020830152620019578185620018d3565b905062001968604083018462001914565b949350505050565b600080fd5b600080fd5b600080fd5b60008083601f84011262001998576200199762001970565b5b8235905067ffffffffffffffff811115620019b857620019b762001975565b5b602083019150836001820283011115620019d757620019d66200197a565b5b9250929050565b60008060008060408587031215620019fb57620019fa620015d6565b5b600085013567ffffffffffffffff81111562001a1c5762001a1b620015db565b5b62001a2a878288016200197f565b9450945050602085013567ffffffffffffffff81111562001a505762001a4f620015db565b5b62001a5e878288016200197f565b925092505092959194509250565b600060208201905062001a83600083018462001914565b92915050565b6000819050919050565b600062001ab462001aae62001aa8846200161b565b62001a89565b6200161b565b9050919050565b600062001ac88262001a93565b9050919050565b600062001adc8262001abb565b9050919050565b62001aee8162001acf565b82525050565b600060208201905062001b0b600083018462001ae3565b92915050565b6005811062001b1f57600080fd5b50565b60008135905062001b338162001b11565b92915050565b6000806040838503121562001b535762001b52620015d6565b5b600062001b638582860162001604565b925050602062001b768582860162001b22565b9150509250929050565b62001b8b816200163b565b82525050565b600060208201905062001ba8600083018462001b80565b92915050565b600062001bbb8262001abb565b9050919050565b62001bcd8162001bae565b82525050565b600060208201905062001bea600083018462001bc2565b92915050565b60006020828403121562001c095762001c08620015d6565b5b600062001c198482850162001669565b91505092915050565b600062001c2f8262001abb565b9050919050565b62001c418162001c22565b82525050565b600060208201905062001c5e600083018462001c36565b92915050565b7f4e487b7100000000000000000000000000000000000000000000000000000000600052603260045260246000fd5b7f4e487b7100000000000000000000000000000000000000000000000000000000600052602260045260246000fd5b6000600282049050600182168062001cdb57607f821691505b60208210810362001cf15762001cf062001c93565b5b50919050565b7f596f75206e65656420746f2070617920746865207072696365206f662037206460008201527f617973206f6620686f7374696e67000000000000000000000000000000000000602082015250565b600062001d55602e83620018c2565b915062001d628262001cf7565b604082019050919050565b6000602082019050818103600083015262001d888162001d46565b9050919050565b7f4e487b7100000000000000000000000000000000000000000000000000000000600052601160045260246000fd5b600062001dcb82620015e0565b915062001dd883620015e0565b925082820190508082111562001df35762001df262001d8f565b5b92915050565b7f4e487b7100000000000000000000000000000000000000000000000000000000600052604160045260246000fd5b60008190508160005260206000209050919050565b60006020601f8301049050919050565b600082821b905092915050565b60006008830262001e8c7fffffffffffffffffffffffffffffffffffffffffffffffffffffffffffffffff8262001e4d565b62001e98868362001e4d565b95508019841693508086168417925050509392505050565b600062001ed162001ecb62001ec584620015e0565b62001a89565b620015e0565b9050919050565b6000819050919050565b62001eed8362001eb0565b62001f0562001efc8262001ed8565b84845462001e5a565b825550505050565b600090565b62001f1c62001f0d565b62001f2981848462001ee2565b505050565b5b8181101562001f515762001f4560008262001f12565b60018101905062001f2f565b5050565b601f82111562001fa05762001f6a8162001e28565b62001f758462001e3d565b8101602085101562001f85578190505b62001f9d62001f948562001e3d565b83018262001f2e565b50505b505050565b600082821c905092915050565b600062001fc56000198460080262001fa5565b1980831691505092915050565b600062001fe0838362001fb2565b9150826002028217905092915050565b62001ffb8262001796565b67ffffffffffffffff81111562002017576200201662001df9565b5b62002023825462001cc2565b6200203082828562001f55565b600060209050601f83116001811462002068576000841562002053578287015190505b6200205f858262001fd2565b865550620020cf565b601f198416620020788662001e28565b60005b82811015620020a2578489015182556001820191506020850194506020810190506200207b565b86831015620020c25784890151620020be601f89168262001fb2565b8355505b6001600288020188555050505b505050505050565b82818337600083830152505050565b6000620020f48385620018c2565b935062002103838584620020d7565b6200210e83620017de565b840190509392505050565b6000606082019050818103600083015262002136818789620020e6565b905081810360208301526200214d818587620020e6565b90506200215e604083018462001914565b9695505050505050565b7f596f7520616c72656164792061646420696e746572616374696f6e206f6e207460008201527f686973207265736f757263650000000000000000000000000000000000000000602082015250565b6000620021c6602c83620018c2565b9150620021d38262002168565b604082019050919050565b60006020820190508181036000830152620021f981620021b7565b9050919050565b600060408201905062002217600083018562001b80565b62002226602083018462001914565b9392505050565b600060608201905062002244600083018662001914565b62002253602083018562001b80565b62002262604083018462001736565b949350505050565b7f4f776e61626c653a2063616c6c6572206973206e6f7420746865206f776e6572600082015250565b6000620022a2602083620018c2565b9150620022af826200226a565b602082019050919050565b60006020820190508181036000830152620022d58162002293565b9050919050565b7f41207374616b6520697320616c72656164792072756e6e696e67000000000000600082015250565b600062002314601a83620018c2565b91506200232182620022dc565b602082019050919050565b60006020820190508181036000830152620023478162002305565b9050919050565b7f416d6f756e74206d757374206265203e20300000000000000000000000000000600082015250565b600062002386601283620018c2565b915062002393826200234e565b602082019050919050565b60006020820190508181036000830152620023b98162002377565b9050919050565b7f4e6f7420656e6f7567682066756e647300000000000000000000000000000000600082015250565b6000620023f8601083620018c2565b91506200240582620023c0565b602082019050919050565b600060208201905081810360008301526200242b81620023e9565b9050919050565b7f4e6f207374616b652069732072756e6e696e6700000000000000000000000000600082015250565b60006200246a601383620018c2565b9150620024778262002432565b602082019050919050565b600060208201905081810360008301526200249d816200245b565b9050919050565b6000819050919050565b620024b981620024a4565b8114620024c557600080fd5b50565b600081519050620024d981620024ae565b92915050565b600060208284031215620024f857620024f7620015d6565b5b60006200250884828501620024c8565b91505092915050565b7f50726963652066656564206973206e6f7420617661696c61626c650000000000600082015250565b600062002549601b83620018c2565b9150620025568262002511565b602082019050919050565b600060208201905081810360008301526200257c816200253a565b9050919050565b7f4e487b7100000000000000000000000000000000000000000000000000000000600052601260045260246000fd5b6000620025bf82620024a4565b9150620025cc83620024a4565b925082620025df57620025de62002583565b5b600160000383147f8000000000000000000000000000000000000000000000000000000000000000831416156200261b576200261a62001d8f565b5b828205905092915050565b60006200263382620015e0565b91506200264083620015e0565b92508282026200265081620015e0565b915082820484148315176200266a576200266962001d8f565b5b5092915050565b60006200267e82620015e0565b91506200268b83620015e0565b9250826200269e576200269d62002583565b5b828204905092915050565b7f4f776e61626c653a206e6577206f776e657220697320746865207a65726f206160008201527f6464726573730000000000000000000000000000000000000000000000000000602082015250565b600062002707602683620018c2565b91506200271482620026a9565b604082019050919050565b600060208201905081810360008301526200273a81620026f8565b9050919050565b600060408201905081810360008301526200275d8185620018d3565b90506200276e602083018462001914565b939250505056fe60a060405260405162001f2038038062001f20833981810160405281019062000029919062000247565b620000496200003d6200011160201b60201c565b6200011960201b60201c565b8073ffffffffffffffffffffffffffffffffffffffff1660808173ffffffffffffffffffffffffffffffffffffffff1681525050610258600281905550346001819055506002546001546200009f9190620002e1565b600581905550600060055411620000ed576040517f08c379a0000000000000000000000000000000000000000000000000000000008152600401620000e4906200037a565b60405180910390fd5b60025442620000fd91906200039c565b6003819055504260048190555050620003d7565b600033905090565b60008060009054906101000a900473ffffffffffffffffffffffffffffffffffffffff169050816000806101000a81548173ffffffffffffffffffffffffffffffffffffffff021916908373ffffffffffffffffffffffffffffffffffffffff1602179055508173ffffffffffffffffffffffffffffffffffffffff168173ffffffffffffffffffffffffffffffffffffffff167f8be0079c531659141344cd1fd0a4f28419497f9722a3daafe3b4186f6b6457e060405160405180910390a35050565b600080fd5b600073ffffffffffffffffffffffffffffffffffffffff82169050919050565b60006200020f82620001e2565b9050919050565b620002218162000202565b81146200022d57600080fd5b50565b600081519050620002418162000216565b92915050565b60006020828403121562000260576200025f620001dd565b5b6000620002708482850162000230565b91505092915050565b6000819050919050565b7f4e487b7100000000000000000000000000000000000000000000000000000000600052601260045260246000fd5b7f4e487b7100000000000000000000000000000000000000000000000000000000600052601160045260246000fd5b6000620002ee8262000279565b9150620002fb8362000279565b9250826200030e576200030d62000283565b5b828204905092915050565b600082825260208201905092915050565b7f7265776172642072617465203d20300000000000000000000000000000000000600082015250565b600062000362600f8362000319565b91506200036f826200032a565b602082019050919050565b60006020820190508181036000830152620003958162000353565b9050919050565b6000620003a98262000279565b9150620003b68362000279565b9250828201905080821115620003d157620003d0620002b2565b5b92915050565b608051611b1f62000401600039600081816106430152818161080a0152610ac00152611b1f6000f3fe608060405234801561001057600080fd5b50600436106101205760003560e01c80637519ab50116100ad578063b6b55f2511610071578063b6b55f25146102c3578063b88a802f146102df578063cd3daf9d146102e9578063d91de40a14610307578063f2fde38b1461033757610120565b80637519ab50146102095780637b0a47ee146102275780638b876347146102455780638da5cb5b14610275578063af46aa081461029357610120565b80632f3b6ad3116100f45780632f3b6ad31461019b5780633ccfd60b146101b957806367d3b488146101c35780636d153cb1146101e1578063715018a6146101ff57610120565b8062882442146101255780630700037d1461012f5780630fb5a6b41461015f57806318160ddd1461017d575b600080fd5b61012d610353565b005b61014960048036038101906101449190611415565b6104f5565b604051610156919061145b565b60405180910390f35b61016761050d565b604051610174919061145b565b60405180910390f35b610185610513565b604051610192919061145b565b60405180910390f35b6101a3610519565b6040516101b0919061145b565b60405180910390f35b6101c161051f565b005b6101cb610802565b6040516101d8919061145b565b60405180910390f35b6101e9610808565b6040516101f691906114d5565b60405180910390f35b61020761082c565b005b6102116108b4565b60405161021e919061145b565b60405180910390f35b61022f6108ba565b60405161023c919061145b565b60405180910390f35b61025f600480360381019061025a9190611415565b6108c0565b60405161026c919061145b565b60405180910390f35b61027d6108d8565b60405161028a91906114ff565b60405180910390f35b6102ad60048036038101906102a89190611415565b610901565b6040516102ba919061145b565b60405180910390f35b6102dd60048036038101906102d89190611546565b610919565b005b6102e7610c20565b005b6102f1610f02565b6040516102fe919061145b565b60405180910390f35b610321600480360381019061031c9190611415565b610f08565b60405161032e919061145b565b60405180910390f35b610351600480360381019061034c9190611415565b61100a565b005b61035b611101565b73ffffffffffffffffffffffffffffffffffffffff166103796108d8565b73ffffffffffffffffffffffffffffffffffffffff16146103cf576040517f08c379a00000000000000000000000000000000000000000000000000000000081526004016103c6906115d0565b60405180910390fd5b6003544211610413576040517f08c379a000000000000000000000000000000000000000000000000000000000815260040161040a9061163c565b60405180910390fd5b600061041d6108d8565b73ffffffffffffffffffffffffffffffffffffffff16476040516104409061168d565b60006040518083038185875af1925050503d806000811461047d576040519150601f19603f3d011682016040523d82523d6000602084013e610482565b606091505b50509050806104c6576040517f08c379a00000000000000000000000000000000000000000000000000000000081526004016104bd906116ee565b60405180910390fd5b7fe007339840c4e4afd03253f3dd3d52a230ff107abe2db735e4c6cb04f6a510f660405160405180910390a150565b60096020528060005260406000206000915090505481565b60025481565b60075481565b60015481565b3361055e6040518060400160405280601181526020017f64616e7320757064617465526577617264000000000000000000000000000000815250611109565b6105666111a2565b60068190555061057461120b565b600481905550600073ffffffffffffffffffffffffffffffffffffffff168173ffffffffffffffffffffffffffffffffffffffff1614610641576105b781610f08565b600960008373ffffffffffffffffffffffffffffffffffffffff1673ffffffffffffffffffffffffffffffffffffffff16815260200190815260200160002081905550600654600860008373ffffffffffffffffffffffffffffffffffffffff1673ffffffffffffffffffffffffffffffffffffffff168152602001908152602001600020819055505b7f000000000000000000000000000000000000000000000000000000000000000073ffffffffffffffffffffffffffffffffffffffff1663a9059cbb33600a60003373ffffffffffffffffffffffffffffffffffffffff1673ffffffffffffffffffffffffffffffffffffffff168152602001908152602001600020546040518363ffffffff1660e01b81526004016106db92919061170e565b6020604051808303816000875af11580156106fa573d6000803e3d6000fd5b505050506040513d601f19601f8201168201806040525081019061071e919061176f565b50600a60003373ffffffffffffffffffffffffffffffffffffffff1673ffffffffffffffffffffffffffffffffffffffff168152602001908152602001600020546007600082825461077091906117cb565b925050819055506000600a60003373ffffffffffffffffffffffffffffffffffffffff1673ffffffffffffffffffffffffffffffffffffffff168152602001908152602001600020819055503373ffffffffffffffffffffffffffffffffffffffff167ff67611512e0a2d90c96fd3f08dca4971bc45fba9dc679eabe839a32abbe58a8e60405160405180910390a250565b60035481565b7f000000000000000000000000000000000000000000000000000000000000000081565b610834611101565b73ffffffffffffffffffffffffffffffffffffffff166108526108d8565b73ffffffffffffffffffffffffffffffffffffffff16146108a8576040517f08c379a000000000000000000000000000000000000000000000000000000000815260040161089f906115d0565b60405180910390fd5b6108b26000611226565b565b60045481565b60055481565b60086020528060005260406000206000915090505481565b60008060009054906101000a900473ffffffffffffffffffffffffffffffffffffffff16905090565b600a6020528060005260406000206000915090505481565b336109586040518060400160405280601181526020017f64616e7320757064617465526577617264000000000000000000000000000000815250611109565b6109606111a2565b60068190555061096e61120b565b600481905550600073ffffffffffffffffffffffffffffffffffffffff168173ffffffffffffffffffffffffffffffffffffffff1614610a3b576109b181610f08565b600960008373ffffffffffffffffffffffffffffffffffffffff1673ffffffffffffffffffffffffffffffffffffffff16815260200190815260200160002081905550600654600860008373ffffffffffffffffffffffffffffffffffffffff1673ffffffffffffffffffffffffffffffffffffffff168152602001908152602001600020819055505b610a7b6040518060400160405280600c81526020017f64616e73206465706f736974000000000000000000000000000000000000000081525033846112ea565b60008211610abe576040517f08c379a0000000000000000000000000000000000000000000000000000000008152600401610ab59061184b565b60405180910390fd5b7f000000000000000000000000000000000000000000000000000000000000000073ffffffffffffffffffffffffffffffffffffffff166323b872dd3330856040518463ffffffff1660e01b8152600401610b1b9392919061186b565b6020604051808303816000875af1158015610b3a573d6000803e3d6000fd5b505050506040513d601f19601f82011682018060405250810190610b5e919061176f565b5081600a60003373ffffffffffffffffffffffffffffffffffffffff1673ffffffffffffffffffffffffffffffffffffffff1681526020019081526020016000206000828254610bae91906118a2565b925050819055508160076000828254610bc791906118a2565b925050819055503373ffffffffffffffffffffffffffffffffffffffff167fe1fffcc4923d04b559f4d29a8bfc6cda04eb5b0d3c460751c2402c5c5cc9109c83604051610c14919061145b565b60405180910390a25050565b33610c5f6040518060400160405280601181526020017f64616e7320757064617465526577617264000000000000000000000000000000815250611109565b610c676111a2565b600681905550610c7561120b565b600481905550600073ffffffffffffffffffffffffffffffffffffffff168173ffffffffffffffffffffffffffffffffffffffff1614610d4257610cb881610f08565b600960008373ffffffffffffffffffffffffffffffffffffffff1673ffffffffffffffffffffffffffffffffffffffff16815260200190815260200160002081905550600654600860008373ffffffffffffffffffffffffffffffffffffffff1673ffffffffffffffffffffffffffffffffffffffff168152602001908152602001600020819055505b6000600960003373ffffffffffffffffffffffffffffffffffffffff1673ffffffffffffffffffffffffffffffffffffffff168152602001908152602001600020541115610ebc5760003373ffffffffffffffffffffffffffffffffffffffff16600960003373ffffffffffffffffffffffffffffffffffffffff1673ffffffffffffffffffffffffffffffffffffffff16815260200190815260200160002054604051610def9061168d565b60006040518083038185875af1925050503d8060008114610e2c576040519150601f19603f3d011682016040523d82523d6000602084013e610e31565b606091505b5050905080610e75576040517f08c379a0000000000000000000000000000000000000000000000000000000008152600401610e6c906116ee565b60405180910390fd5b6000600960003373ffffffffffffffffffffffffffffffffffffffff1673ffffffffffffffffffffffffffffffffffffffff16815260200190815260200160002081905550505b3373ffffffffffffffffffffffffffffffffffffffff167fea61a2a22523394f29506de20cc9db2e881f096477982d51012058ec9032714a60405160405180910390a250565b60065481565b6000670de0b6b3a7640000600860008473ffffffffffffffffffffffffffffffffffffffff1673ffffffffffffffffffffffffffffffffffffffff16815260200190815260200160002054610f5b6111a2565b610f6591906117cb565b600a60008573ffffffffffffffffffffffffffffffffffffffff1673ffffffffffffffffffffffffffffffffffffffff16815260200190815260200160002054610faf91906118d6565b610fb99190611947565b600960008473ffffffffffffffffffffffffffffffffffffffff1673ffffffffffffffffffffffffffffffffffffffff1681526020019081526020016000205461100391906118a2565b9050919050565b611012611101565b73ffffffffffffffffffffffffffffffffffffffff166110306108d8565b73ffffffffffffffffffffffffffffffffffffffff1614611086576040517f08c379a000000000000000000000000000000000000000000000000000000000815260040161107d906115d0565b60405180910390fd5b600073ffffffffffffffffffffffffffffffffffffffff168173ffffffffffffffffffffffffffffffffffffffff16036110f5576040517f08c379a00000000000000000000000000000000000000000000000000000000081526004016110ec906119ea565b60405180910390fd5b6110fe81611226565b50565b600033905090565b61119f8160405160240161111d9190611a89565b6040516020818303038152906040527f41304fac000000000000000000000000000000000000000000000000000000007bffffffffffffffffffffffffffffffffffffffffffffffffffffffff19166020820180517bffffffffffffffffffffffffffffffffffffffffffffffffffffffff8381831617835250505050611389565b50565b600080600754036111b65760009050611208565b600754670de0b6b3a76400006004546111cd61120b565b6111d791906117cb565b6005546111e491906118d6565b6111ee91906118d6565b6111f89190611947565b60065461120591906118a2565b90505b90565b600042600354111561121d5742611221565b6003545b905090565b60008060009054906101000a900473ffffffffffffffffffffffffffffffffffffffff169050816000806101000a81548173ffffffffffffffffffffffffffffffffffffffff021916908373ffffffffffffffffffffffffffffffffffffffff1602179055508173ffffffffffffffffffffffffffffffffffffffff168173ffffffffffffffffffffffffffffffffffffffff167f8be0079c531659141344cd1fd0a4f28419497f9722a3daafe3b4186f6b6457e060405160405180910390a35050565b61138483838360405160240161130293929190611aab565b6040516020818303038152906040527f0d26b925000000000000000000000000000000000000000000000000000000007bffffffffffffffffffffffffffffffffffffffffffffffffffffffff19166020820180517bffffffffffffffffffffffffffffffffffffffffffffffffffffffff8381831617835250505050611389565b505050565b60008151905060006a636f6e736f6c652e6c6f679050602083016000808483855afa5050505050565b600080fd5b600073ffffffffffffffffffffffffffffffffffffffff82169050919050565b60006113e2826113b7565b9050919050565b6113f2816113d7565b81146113fd57600080fd5b50565b60008135905061140f816113e9565b92915050565b60006020828403121561142b5761142a6113b2565b5b600061143984828501611400565b91505092915050565b6000819050919050565b61145581611442565b82525050565b6000602082019050611470600083018461144c565b92915050565b6000819050919050565b600061149b611496611491846113b7565b611476565b6113b7565b9050919050565b60006114ad82611480565b9050919050565b60006114bf826114a2565b9050919050565b6114cf816114b4565b82525050565b60006020820190506114ea60008301846114c6565b92915050565b6114f9816113d7565b82525050565b600060208201905061151460008301846114f0565b92915050565b61152381611442565b811461152e57600080fd5b50565b6000813590506115408161151a565b92915050565b60006020828403121561155c5761155b6113b2565b5b600061156a84828501611531565b91505092915050565b600082825260208201905092915050565b7f4f776e61626c653a2063616c6c6572206973206e6f7420746865206f776e6572600082015250565b60006115ba602083611573565b91506115c582611584565b602082019050919050565b600060208201905081810360008301526115e9816115ad565b9050919050565b7f6e6f742066696e69736865642079657400000000000000000000000000000000600082015250565b6000611626601083611573565b9150611631826115f0565b602082019050919050565b6000602082019050818103600083015261165581611619565b9050919050565b600081905092915050565b50565b600061167760008361165c565b915061168282611667565b600082019050919050565b60006116988261166a565b9150819050919050565b7f4661696c656420746f2073656e64204574686572000000000000000000000000600082015250565b60006116d8601483611573565b91506116e3826116a2565b602082019050919050565b60006020820190508181036000830152611707816116cb565b9050919050565b600060408201905061172360008301856114f0565b611730602083018461144c565b9392505050565b60008115159050919050565b61174c81611737565b811461175757600080fd5b50565b60008151905061176981611743565b92915050565b600060208284031215611785576117846113b2565b5b60006117938482850161175a565b91505092915050565b7f4e487b7100000000000000000000000000000000000000000000000000000000600052601160045260246000fd5b60006117d682611442565b91506117e183611442565b92508282039050818111156117f9576117f861179c565b5b92915050565b7f616d6f756e74203d203000000000000000000000000000000000000000000000600082015250565b6000611835600a83611573565b9150611840826117ff565b602082019050919050565b6000602082019050818103600083015261186481611828565b9050919050565b600060608201905061188060008301866114f0565b61188d60208301856114f0565b61189a604083018461144c565b949350505050565b60006118ad82611442565b91506118b883611442565b92508282019050808211156118d0576118cf61179c565b5b92915050565b60006118e182611442565b91506118ec83611442565b92508282026118fa81611442565b915082820484148315176119115761191061179c565b5b5092915050565b7f4e487b7100000000000000000000000000000000000000000000000000000000600052601260045260246000fd5b600061195282611442565b915061195d83611442565b92508261196d5761196c611918565b5b828204905092915050565b7f4f776e61626c653a206e6577206f776e657220697320746865207a65726f206160008201527f6464726573730000000000000000000000000000000000000000000000000000602082015250565b60006119d4602683611573565b91506119df82611978565b604082019050919050565b60006020820190508181036000830152611a03816119c7565b9050919050565b600081519050919050565b60005b83811015611a33578082015181840152602081019050611a18565b60008484015250505050565b6000601f19601f8301169050919050565b6000611a5b82611a0a565b611a658185611573565b9350611a75818560208601611a15565b611a7e81611a3f565b840191505092915050565b60006020820190508181036000830152611aa38184611a50565b905092915050565b60006060820190508181036000830152611ac58186611a50565b9050611ad460208301856114f0565b611ae1604083018461144c565b94935050505056fea2646970667358221220b63f01616e06d05b259809e2d0919b509156d8fd941865adfe2fad9a30d7b51264736f6c63430008120033a264697066735822122013f771d1c3a0cc57ac13d47de3cb173d97a620c4341e0a90d943bf5b357761a064736f6c63430008120033",
  "linkReferences": {},
  "deployedLinkReferences": {}
}