{
  "_format": "hh-sol-artifact-1",
  "contractName": "ArkaERC20",
  "sourceName": "contracts/ArkaERC20.sol",
  "abi": [
    {
      "inputs": [],
      "stateMutability": "nonpayable",
      "type": "constructor"
    },
    {
      "anonymous": false,
      "inputs": [
        {
          "indexed": true,
          "internalType": "address",
          "name": "owner",
          "type": "address"
        },
        {
          "indexed": true,
          "internalType": "address",
          "name": "spender",
          "type": "address"
        },
        {
          "indexed": false,
          "internalType": "uint256",
          "name": "value",
          "type": "uint256"
        }
      ],
      "name": "Approval",
      "type": "event"
    },
    {
      "anonymous": false,
      "inputs": [
        {
          "indexed": true,
          "internalType": "address",
          "name": "previousOwner",
          "type": "address"
        },
        {
          "indexed": true,
          "internalType": "address",
          "name": "newOwner",
          "type": "address"
        }
      ],
      "name": "OwnershipTransferred",
      "type": "event"
    },
    {
      "anonymous": false,
      "inputs": [
        {
          "indexed": true,
          "internalType": "address",
          "name": "from",
          "type": "address"
        },
        {
          "indexed": true,
          "internalType": "address",
          "name": "to",
          "type": "address"
        },
        {
          "indexed": false,
          "internalType": "uint256",
          "name": "value",
          "type": "uint256"
        }
      ],
      "name": "Transfer",
      "type": "event"
    },
    {
      "inputs": [
        {
          "internalType": "address",
          "name": "owner",
          "type": "address"
        },
        {
          "internalType": "address",
          "name": "spender",
          "type": "address"
        }
      ],
      "name": "allowance",
      "outputs": [
        {
          "internalType": "uint256",
          "name": "",
          "type": "uint256"
        }
      ],
      "stateMutability": "view",
      "type": "function"
    },
    {
      "inputs": [
        {
          "internalType": "address",
          "name": "spender",
          "type": "address"
        },
        {
          "internalType": "uint256",
          "name": "amount",
          "type": "uint256"
        }
      ],
      "name": "approve",
      "outputs": [
        {
          "internalType": "bool",
          "name": "",
          "type": "bool"
        }
      ],
      "stateMutability": "nonpayable",
      "type": "function"
    },
    {
      "inputs": [],
      "name": "arkaMaster",
      "outputs": [
        {
          "internalType": "address",
          "name": "",
          "type": "address"
        }
      ],
      "stateMutability": "view",
      "type": "function"
    },
    {
      "inputs": [
        {
          "internalType": "address",
          "name": "account",
          "type": "address"
        }
      ],
      "name": "balanceOf",
      "outputs": [
        {
          "internalType": "uint256",
          "name": "",
          "type": "uint256"
        }
      ],
      "stateMutability": "view",
      "type": "function"
    },
    {
      "inputs": [],
      "name": "decimals",
      "outputs": [
        {
          "internalType": "uint8",
          "name": "",
          "type": "uint8"
        }
      ],
      "stateMutability": "view",
      "type": "function"
    },
    {
      "inputs": [
        {
          "internalType": "address",
          "name": "spender",
          "type": "address"
        },
        {
          "internalType": "uint256",
          "name": "subtractedValue",
          "type": "uint256"
        }
      ],
      "name": "decreaseAllowance",
      "outputs": [
        {
          "internalType": "bool",
          "name": "",
          "type": "bool"
        }
      ],
      "stateMutability": "nonpayable",
      "type": "function"
    },
    {
      "inputs": [
        {
          "internalType": "address",
          "name": "spender",
          "type": "address"
        },
        {
          "internalType": "uint256",
          "name": "addedValue",
          "type": "uint256"
        }
      ],
      "name": "increaseAllowance",
      "outputs": [
        {
          "internalType": "bool",
          "name": "",
          "type": "bool"
        }
      ],
      "stateMutability": "nonpayable",
      "type": "function"
    },
    {
      "inputs": [
        {
          "internalType": "address",
          "name": "_account",
          "type": "address"
        },
        {
          "internalType": "uint256",
          "name": "_amount",
          "type": "uint256"
        }
      ],
      "name": "mintArka",
      "outputs": [],
      "stateMutability": "nonpayable",
      "type": "function"
    },
    {
      "inputs": [],
      "name": "name",
      "outputs": [
        {
          "internalType": "string",
          "name": "",
          "type": "string"
        }
      ],
      "stateMutability": "view",
      "type": "function"
    },
    {
      "inputs": [],
      "name": "owner",
      "outputs": [
        {
          "internalType": "address",
          "name": "",
          "type": "address"
        }
      ],
      "stateMutability": "view",
      "type": "function"
    },
    {
      "inputs": [],
      "name": "renounceOwnership",
      "outputs": [],
      "stateMutability": "nonpayable",
      "type": "function"
    },
    {
      "inputs": [
        {
          "internalType": "address",
          "name": "_arkaMaster",
          "type": "address"
        }
      ],
      "name": "setArkaMaster",
      "outputs": [],
      "stateMutability": "nonpayable",
      "type": "function"
    },
    {
      "inputs": [],
      "name": "symbol",
      "outputs": [
        {
          "internalType": "string",
          "name": "",
          "type": "string"
        }
      ],
      "stateMutability": "view",
      "type": "function"
    },
    {
      "inputs": [],
      "name": "totalSupply",
      "outputs": [
        {
          "internalType": "uint256",
          "name": "",
          "type": "uint256"
        }
      ],
      "stateMutability": "view",
      "type": "function"
    },
    {
      "inputs": [
        {
          "internalType": "address",
          "name": "to",
          "type": "address"
        },
        {
          "internalType": "uint256",
          "name": "amount",
          "type": "uint256"
        }
      ],
      "name": "transfer",
      "outputs": [
        {
          "internalType": "bool",
          "name": "",
          "type": "bool"
        }
      ],
      "stateMutability": "nonpayable",
      "type": "function"
    },
    {
      "inputs": [
        {
          "internalType": "address",
          "name": "from",
          "type": "address"
        },
        {
          "internalType": "address",
          "name": "to",
          "type": "address"
        },
        {
          "internalType": "uint256",
          "name": "amount",
          "type": "uint256"
        }
      ],
      "name": "transferFrom",
      "outputs": [
        {
          "internalType": "bool",
          "name": "",
          "type": "bool"
        }
      ],
      "stateMutability": "nonpayable",
      "type": "function"
    },
    {
      "inputs": [
        {
          "internalType": "address",
          "name": "newOwner",
          "type": "address"
        }
      ],
      "name": "transferOwnership",
      "outputs": [],
      "stateMutability": "nonpayable",
      "type": "function"
    }
  ],
  "bytecode": "0x60806040523480156200001157600080fd5b506040518060400160405280600481526020017f41726b61000000000000000000000000000000000000000000000000000000008152506040518060400160405280600381526020017f41524b000000000000000000000000000000000000000000000000000000000081525081600390816200008f9190620005a3565b508060049081620000a19190620005a3565b505050620000c4620000b8620000e460201b60201c565b620000ec60201b60201c565b620000de33670de0b6b3a7640000620001b260201b60201c565b620007a5565b600033905090565b6000600560009054906101000a900473ffffffffffffffffffffffffffffffffffffffff16905081600560006101000a81548173ffffffffffffffffffffffffffffffffffffffff021916908373ffffffffffffffffffffffffffffffffffffffff1602179055508173ffffffffffffffffffffffffffffffffffffffff168173ffffffffffffffffffffffffffffffffffffffff167f8be0079c531659141344cd1fd0a4f28419497f9722a3daafe3b4186f6b6457e060405160405180910390a35050565b600073ffffffffffffffffffffffffffffffffffffffff168273ffffffffffffffffffffffffffffffffffffffff160362000224576040517f08c379a00000000000000000000000000000000000000000000000000000000081526004016200021b90620006eb565b60405180910390fd5b62000238600083836200031f60201b60201c565b80600260008282546200024c91906200073c565b92505081905550806000808473ffffffffffffffffffffffffffffffffffffffff1673ffffffffffffffffffffffffffffffffffffffff168152602001908152602001600020600082825401925050819055508173ffffffffffffffffffffffffffffffffffffffff16600073ffffffffffffffffffffffffffffffffffffffff167fddf252ad1be2c89b69c2b068fc378daa952ba7f163c4a11628f55a4df523b3ef83604051620002ff919062000788565b60405180910390a36200031b600083836200032460201b60201c565b5050565b505050565b505050565b600081519050919050565b7f4e487b7100000000000000000000000000000000000000000000000000000000600052604160045260246000fd5b7f4e487b7100000000000000000000000000000000000000000000000000000000600052602260045260246000fd5b60006002820490506001821680620003ab57607f821691505b602082108103620003c157620003c062000363565b5b50919050565b60008190508160005260206000209050919050565b60006020601f8301049050919050565b600082821b905092915050565b6000600883026200042b7fffffffffffffffffffffffffffffffffffffffffffffffffffffffffffffffff82620003ec565b620004378683620003ec565b95508019841693508086168417925050509392505050565b6000819050919050565b6000819050919050565b6000620004846200047e62000478846200044f565b62000459565b6200044f565b9050919050565b6000819050919050565b620004a08362000463565b620004b8620004af826200048b565b848454620003f9565b825550505050565b600090565b620004cf620004c0565b620004dc81848462000495565b505050565b5b818110156200050457620004f8600082620004c5565b600181019050620004e2565b5050565b601f82111562000553576200051d81620003c7565b6200052884620003dc565b8101602085101562000538578190505b620005506200054785620003dc565b830182620004e1565b50505b505050565b600082821c905092915050565b6000620005786000198460080262000558565b1980831691505092915050565b600062000593838362000565565b9150826002028217905092915050565b620005ae8262000329565b67ffffffffffffffff811115620005ca57620005c962000334565b5b620005d6825462000392565b620005e382828562000508565b600060209050601f8311600181146200061b576000841562000606578287015190505b62000612858262000585565b86555062000682565b601f1984166200062b86620003c7565b60005b8281101562000655578489015182556001820191506020850194506020810190506200062e565b8683101562000675578489015162000671601f89168262000565565b8355505b6001600288020188555050505b505050505050565b600082825260208201905092915050565b7f45524332303a206d696e7420746f20746865207a65726f206164647265737300600082015250565b6000620006d3601f836200068a565b9150620006e0826200069b565b602082019050919050565b600060208201905081810360008301526200070681620006c4565b9050919050565b7f4e487b7100000000000000000000000000000000000000000000000000000000600052601160045260246000fd5b600062000749826200044f565b915062000756836200044f565b92508282019050808211156200077157620007706200070d565b5b92915050565b62000782816200044f565b82525050565b60006020820190506200079f600083018462000777565b92915050565b61199680620007b56000396000f3fe608060405234801561001057600080fd5b506004361061010b5760003560e01c8063715018a6116100a2578063a9059cbb11610071578063a9059cbb146102be578063b1501e3b146102ee578063dd62ed3e1461030a578063efd81af91461033a578063f2fde38b146103565761010b565b8063715018a6146102485780638da5cb5b1461025257806395d89b4114610270578063a457c2d71461028e5761010b565b806323b872dd116100de57806323b872dd1461019a578063313ce567146101ca57806339509351146101e857806370a08231146102185761010b565b806306fdde0314610110578063095ea7b31461012e57806318160ddd1461015e5780631a4b1cd31461017c575b600080fd5b610118610372565b6040516101259190611073565b60405180910390f35b6101486004803603810190610143919061112e565b610404565b6040516101559190611189565b60405180910390f35b610166610427565b60405161017391906111b3565b60405180910390f35b610184610431565b60405161019191906111dd565b60405180910390f35b6101b460048036038101906101af91906111f8565b610457565b6040516101c19190611189565b60405180910390f35b6101d2610486565b6040516101df9190611267565b60405180910390f35b61020260048036038101906101fd919061112e565b61048f565b60405161020f9190611189565b60405180910390f35b610232600480360381019061022d9190611282565b6104c6565b60405161023f91906111b3565b60405180910390f35b61025061050e565b005b61025a610522565b60405161026791906111dd565b60405180910390f35b61027861054c565b6040516102859190611073565b60405180910390f35b6102a860048036038101906102a3919061112e565b6105de565b6040516102b59190611189565b60405180910390f35b6102d860048036038101906102d3919061112e565b610655565b6040516102e59190611189565b60405180910390f35b6103086004803603810190610303919061112e565b610678565b005b610324600480360381019061031f91906112af565b610716565b60405161033191906111b3565b60405180910390f35b610354600480360381019061034f9190611282565b61079d565b005b610370600480360381019061036b9190611282565b6107e9565b005b6060600380546103819061131e565b80601f01602080910402602001604051908101604052809291908181526020018280546103ad9061131e565b80156103fa5780601f106103cf576101008083540402835291602001916103fa565b820191906000526020600020905b8154815290600101906020018083116103dd57829003601f168201915b5050505050905090565b60008061040f61086c565b905061041c818585610874565b600191505092915050565b6000600254905090565b600660009054906101000a900473ffffffffffffffffffffffffffffffffffffffff1681565b60008061046261086c565b905061046f858285610a3d565b61047a858585610ac9565b60019150509392505050565b60006012905090565b60008061049a61086c565b90506104bb8185856104ac8589610716565b6104b6919061137e565b610874565b600191505092915050565b60008060008373ffffffffffffffffffffffffffffffffffffffff1673ffffffffffffffffffffffffffffffffffffffff168152602001908152602001600020549050919050565b610516610d3f565b6105206000610dbd565b565b6000600560009054906101000a900473ffffffffffffffffffffffffffffffffffffffff16905090565b60606004805461055b9061131e565b80601f01602080910402602001604051908101604052809291908181526020018280546105879061131e565b80156105d45780601f106105a9576101008083540402835291602001916105d4565b820191906000526020600020905b8154815290600101906020018083116105b757829003601f168201915b5050505050905090565b6000806105e961086c565b905060006105f78286610716565b90508381101561063c576040517f08c379a000000000000000000000000000000000000000000000000000000000815260040161063390611424565b60405180910390fd5b6106498286868403610874565b60019250505092915050565b60008061066061086c565b905061066d818585610ac9565b600191505092915050565b600660009054906101000a900473ffffffffffffffffffffffffffffffffffffffff1673ffffffffffffffffffffffffffffffffffffffff163373ffffffffffffffffffffffffffffffffffffffff1614610708576040517f08c379a00000000000000000000000000000000000000000000000000000000081526004016106ff90611490565b60405180910390fd5b6107128282610e83565b5050565b6000600160008473ffffffffffffffffffffffffffffffffffffffff1673ffffffffffffffffffffffffffffffffffffffff16815260200190815260200160002060008373ffffffffffffffffffffffffffffffffffffffff1673ffffffffffffffffffffffffffffffffffffffff16815260200190815260200160002054905092915050565b6107a5610d3f565b80600660006101000a81548173ffffffffffffffffffffffffffffffffffffffff021916908373ffffffffffffffffffffffffffffffffffffffff16021790555050565b6107f1610d3f565b600073ffffffffffffffffffffffffffffffffffffffff168173ffffffffffffffffffffffffffffffffffffffff1603610860576040517f08c379a000000000000000000000000000000000000000000000000000000000815260040161085790611522565b60405180910390fd5b61086981610dbd565b50565b600033905090565b600073ffffffffffffffffffffffffffffffffffffffff168373ffffffffffffffffffffffffffffffffffffffff16036108e3576040517f08c379a00000000000000000000000000000000000000000000000000000000081526004016108da906115b4565b60405180910390fd5b600073ffffffffffffffffffffffffffffffffffffffff168273ffffffffffffffffffffffffffffffffffffffff1603610952576040517f08c379a000000000000000000000000000000000000000000000000000000000815260040161094990611646565b60405180910390fd5b80600160008573ffffffffffffffffffffffffffffffffffffffff1673ffffffffffffffffffffffffffffffffffffffff16815260200190815260200160002060008473ffffffffffffffffffffffffffffffffffffffff1673ffffffffffffffffffffffffffffffffffffffff168152602001908152602001600020819055508173ffffffffffffffffffffffffffffffffffffffff168373ffffffffffffffffffffffffffffffffffffffff167f8c5be1e5ebec7d5bd14f71427d1e84f3dd0314c0f7b2291e5b200ac8c7c3b92583604051610a3091906111b3565b60405180910390a3505050565b6000610a498484610716565b90507fffffffffffffffffffffffffffffffffffffffffffffffffffffffffffffffff8114610ac35781811015610ab5576040517f08c379a0000000000000000000000000000000000000000000000000000000008152600401610aac906116b2565b60405180910390fd5b610ac28484848403610874565b5b50505050565b600073ffffffffffffffffffffffffffffffffffffffff168373ffffffffffffffffffffffffffffffffffffffff1603610b38576040517f08c379a0000000000000000000000000000000000000000000000000000000008152600401610b2f90611744565b60405180910390fd5b600073ffffffffffffffffffffffffffffffffffffffff168273ffffffffffffffffffffffffffffffffffffffff1603610ba7576040517f08c379a0000000000000000000000000000000000000000000000000000000008152600401610b9e906117d6565b60405180910390fd5b610bb2838383610fd9565b60008060008573ffffffffffffffffffffffffffffffffffffffff1673ffffffffffffffffffffffffffffffffffffffff16815260200190815260200160002054905081811015610c38576040517f08c379a0000000000000000000000000000000000000000000000000000000008152600401610c2f90611868565b60405180910390fd5b8181036000808673ffffffffffffffffffffffffffffffffffffffff1673ffffffffffffffffffffffffffffffffffffffff16815260200190815260200160002081905550816000808573ffffffffffffffffffffffffffffffffffffffff1673ffffffffffffffffffffffffffffffffffffffff168152602001908152602001600020600082825401925050819055508273ffffffffffffffffffffffffffffffffffffffff168473ffffffffffffffffffffffffffffffffffffffff167fddf252ad1be2c89b69c2b068fc378daa952ba7f163c4a11628f55a4df523b3ef84604051610d2691906111b3565b60405180910390a3610d39848484610fde565b50505050565b610d4761086c565b73ffffffffffffffffffffffffffffffffffffffff16610d65610522565b73ffffffffffffffffffffffffffffffffffffffff1614610dbb576040517f08c379a0000000000000000000000000000000000000000000000000000000008152600401610db2906118d4565b60405180910390fd5b565b6000600560009054906101000a900473ffffffffffffffffffffffffffffffffffffffff16905081600560006101000a81548173ffffffffffffffffffffffffffffffffffffffff021916908373ffffffffffffffffffffffffffffffffffffffff1602179055508173ffffffffffffffffffffffffffffffffffffffff168173ffffffffffffffffffffffffffffffffffffffff167f8be0079c531659141344cd1fd0a4f28419497f9722a3daafe3b4186f6b6457e060405160405180910390a35050565b600073ffffffffffffffffffffffffffffffffffffffff168273ffffffffffffffffffffffffffffffffffffffff1603610ef2576040517f08c379a0000000000000000000000000000000000000000000000000000000008152600401610ee990611940565b60405180910390fd5b610efe60008383610fd9565b8060026000828254610f10919061137e565b92505081905550806000808473ffffffffffffffffffffffffffffffffffffffff1673ffffffffffffffffffffffffffffffffffffffff168152602001908152602001600020600082825401925050819055508173ffffffffffffffffffffffffffffffffffffffff16600073ffffffffffffffffffffffffffffffffffffffff167fddf252ad1be2c89b69c2b068fc378daa952ba7f163c4a11628f55a4df523b3ef83604051610fc191906111b3565b60405180910390a3610fd560008383610fde565b5050565b505050565b505050565b600081519050919050565b600082825260208201905092915050565b60005b8381101561101d578082015181840152602081019050611002565b60008484015250505050565b6000601f19601f8301169050919050565b600061104582610fe3565b61104f8185610fee565b935061105f818560208601610fff565b61106881611029565b840191505092915050565b6000602082019050818103600083015261108d818461103a565b905092915050565b600080fd5b600073ffffffffffffffffffffffffffffffffffffffff82169050919050565b60006110c58261109a565b9050919050565b6110d5816110ba565b81146110e057600080fd5b50565b6000813590506110f2816110cc565b92915050565b6000819050919050565b61110b816110f8565b811461111657600080fd5b50565b60008135905061112881611102565b92915050565b6000806040838503121561114557611144611095565b5b6000611153858286016110e3565b925050602061116485828601611119565b9150509250929050565b60008115159050919050565b6111838161116e565b82525050565b600060208201905061119e600083018461117a565b92915050565b6111ad816110f8565b82525050565b60006020820190506111c860008301846111a4565b92915050565b6111d7816110ba565b82525050565b60006020820190506111f260008301846111ce565b92915050565b60008060006060848603121561121157611210611095565b5b600061121f868287016110e3565b9350506020611230868287016110e3565b925050604061124186828701611119565b9150509250925092565b600060ff82169050919050565b6112618161124b565b82525050565b600060208201905061127c6000830184611258565b92915050565b60006020828403121561129857611297611095565b5b60006112a6848285016110e3565b91505092915050565b600080604083850312156112c6576112c5611095565b5b60006112d4858286016110e3565b92505060206112e5858286016110e3565b9150509250929050565b7f4e487b7100000000000000000000000000000000000000000000000000000000600052602260045260246000fd5b6000600282049050600182168061133657607f821691505b602082108103611349576113486112ef565b5b50919050565b7f4e487b7100000000000000000000000000000000000000000000000000000000600052601160045260246000fd5b6000611389826110f8565b9150611394836110f8565b92508282019050808211156113ac576113ab61134f565b5b92915050565b7f45524332303a2064656372656173656420616c6c6f77616e63652062656c6f7760008201527f207a65726f000000000000000000000000000000000000000000000000000000602082015250565b600061140e602583610fee565b9150611419826113b2565b604082019050919050565b6000602082019050818103600083015261143d81611401565b9050919050565b7f4f6e6c792041726b614d61737465722063616e206d696e740000000000000000600082015250565b600061147a601883610fee565b915061148582611444565b602082019050919050565b600060208201905081810360008301526114a98161146d565b9050919050565b7f4f776e61626c653a206e6577206f776e657220697320746865207a65726f206160008201527f6464726573730000000000000000000000000000000000000000000000000000602082015250565b600061150c602683610fee565b9150611517826114b0565b604082019050919050565b6000602082019050818103600083015261153b816114ff565b9050919050565b7f45524332303a20617070726f76652066726f6d20746865207a65726f2061646460008201527f7265737300000000000000000000000000000000000000000000000000000000602082015250565b600061159e602483610fee565b91506115a982611542565b604082019050919050565b600060208201905081810360008301526115cd81611591565b9050919050565b7f45524332303a20617070726f766520746f20746865207a65726f20616464726560008201527f7373000000000000000000000000000000000000000000000000000000000000602082015250565b6000611630602283610fee565b915061163b826115d4565b604082019050919050565b6000602082019050818103600083015261165f81611623565b9050919050565b7f45524332303a20696e73756666696369656e7420616c6c6f77616e6365000000600082015250565b600061169c601d83610fee565b91506116a782611666565b602082019050919050565b600060208201905081810360008301526116cb8161168f565b9050919050565b7f45524332303a207472616e736665722066726f6d20746865207a65726f20616460008201527f6472657373000000000000000000000000000000000000000000000000000000602082015250565b600061172e602583610fee565b9150611739826116d2565b604082019050919050565b6000602082019050818103600083015261175d81611721565b9050919050565b7f45524332303a207472616e7366657220746f20746865207a65726f206164647260008201527f6573730000000000000000000000000000000000000000000000000000000000602082015250565b60006117c0602383610fee565b91506117cb82611764565b604082019050919050565b600060208201905081810360008301526117ef816117b3565b9050919050565b7f45524332303a207472616e7366657220616d6f756e742065786365656473206260008201527f616c616e63650000000000000000000000000000000000000000000000000000602082015250565b6000611852602683610fee565b915061185d826117f6565b604082019050919050565b6000602082019050818103600083015261188181611845565b9050919050565b7f4f776e61626c653a2063616c6c6572206973206e6f7420746865206f776e6572600082015250565b60006118be602083610fee565b91506118c982611888565b602082019050919050565b600060208201905081810360008301526118ed816118b1565b9050919050565b7f45524332303a206d696e7420746f20746865207a65726f206164647265737300600082015250565b600061192a601f83610fee565b9150611935826118f4565b602082019050919050565b600060208201905081810360008301526119598161191d565b905091905056fea2646970667358221220cfa868ea9814c1546d6053707e50e4b04d15be1099eea4a53bb39c5c8b8d78cf64736f6c63430008120033",
  "linkReferences": {},
  "deployedLinkReferences": {}
}