{
  "_format": "hh-sol-artifact-1",
  "contractName": "ArkaERC20",
  "sourceName": "contracts/ArkaERC20.sol",
  "abi": [
    {
      "inputs": [],
      "stateMutability": "nonpayable",
      "type": "constructor"
    },
    {
      "anonymous": false,
      "inputs": [
        {
          "indexed": true,
          "internalType": "address",
          "name": "owner",
          "type": "address"
        },
        {
          "indexed": true,
          "internalType": "address",
          "name": "spender",
          "type": "address"
        },
        {
          "indexed": false,
          "internalType": "uint256",
          "name": "value",
          "type": "uint256"
        }
      ],
      "name": "Approval",
      "type": "event"
    },
    {
      "anonymous": false,
      "inputs": [
        {
          "indexed": true,
          "internalType": "address",
          "name": "previousOwner",
          "type": "address"
        },
        {
          "indexed": true,
          "internalType": "address",
          "name": "newOwner",
          "type": "address"
        }
      ],
      "name": "OwnershipTransferred",
      "type": "event"
    },
    {
      "anonymous": false,
      "inputs": [
        {
          "indexed": true,
          "internalType": "address",
          "name": "from",
          "type": "address"
        },
        {
          "indexed": true,
          "internalType": "address",
          "name": "to",
          "type": "address"
        },
        {
          "indexed": false,
          "internalType": "uint256",
          "name": "value",
          "type": "uint256"
        }
      ],
      "name": "Transfer",
      "type": "event"
    },
    {
      "inputs": [
        {
          "internalType": "address",
          "name": "owner",
          "type": "address"
        },
        {
          "internalType": "address",
          "name": "spender",
          "type": "address"
        }
      ],
      "name": "allowance",
      "outputs": [
        {
          "internalType": "uint256",
          "name": "",
          "type": "uint256"
        }
      ],
      "stateMutability": "view",
      "type": "function"
    },
    {
      "inputs": [
        {
          "internalType": "address",
          "name": "spender",
          "type": "address"
        },
        {
          "internalType": "uint256",
          "name": "amount",
          "type": "uint256"
        }
      ],
      "name": "approve",
      "outputs": [
        {
          "internalType": "bool",
          "name": "",
          "type": "bool"
        }
      ],
      "stateMutability": "nonpayable",
      "type": "function"
    },
    {
      "inputs": [],
      "name": "arkaMaster",
      "outputs": [
        {
          "internalType": "address",
          "name": "",
          "type": "address"
        }
      ],
      "stateMutability": "view",
      "type": "function"
    },
    {
      "inputs": [
        {
          "internalType": "address",
          "name": "account",
          "type": "address"
        }
      ],
      "name": "balanceOf",
      "outputs": [
        {
          "internalType": "uint256",
          "name": "",
          "type": "uint256"
        }
      ],
      "stateMutability": "view",
      "type": "function"
    },
    {
      "inputs": [],
      "name": "decimals",
      "outputs": [
        {
          "internalType": "uint8",
          "name": "",
          "type": "uint8"
        }
      ],
      "stateMutability": "view",
      "type": "function"
    },
    {
      "inputs": [
        {
          "internalType": "address",
          "name": "spender",
          "type": "address"
        },
        {
          "internalType": "uint256",
          "name": "subtractedValue",
          "type": "uint256"
        }
      ],
      "name": "decreaseAllowance",
      "outputs": [
        {
          "internalType": "bool",
          "name": "",
          "type": "bool"
        }
      ],
      "stateMutability": "nonpayable",
      "type": "function"
    },
    {
      "inputs": [
        {
          "internalType": "address",
          "name": "spender",
          "type": "address"
        },
        {
          "internalType": "uint256",
          "name": "addedValue",
          "type": "uint256"
        }
      ],
      "name": "increaseAllowance",
      "outputs": [
        {
          "internalType": "bool",
          "name": "",
          "type": "bool"
        }
      ],
      "stateMutability": "nonpayable",
      "type": "function"
    },
    {
      "inputs": [
        {
          "internalType": "address",
          "name": "_account",
          "type": "address"
        },
        {
          "internalType": "uint256",
          "name": "_amount",
          "type": "uint256"
        }
      ],
      "name": "mintArka",
      "outputs": [],
      "stateMutability": "nonpayable",
      "type": "function"
    },
    {
      "inputs": [],
      "name": "name",
      "outputs": [
        {
          "internalType": "string",
          "name": "",
          "type": "string"
        }
      ],
      "stateMutability": "view",
      "type": "function"
    },
    {
      "inputs": [],
      "name": "owner",
      "outputs": [
        {
          "internalType": "address",
          "name": "",
          "type": "address"
        }
      ],
      "stateMutability": "view",
      "type": "function"
    },
    {
      "inputs": [],
      "name": "renounceOwnership",
      "outputs": [],
      "stateMutability": "nonpayable",
      "type": "function"
    },
    {
      "inputs": [
        {
          "internalType": "address",
          "name": "_arkaMaster",
          "type": "address"
        }
      ],
      "name": "setArkaMaster",
      "outputs": [],
      "stateMutability": "nonpayable",
      "type": "function"
    },
    {
      "inputs": [],
      "name": "symbol",
      "outputs": [
        {
          "internalType": "string",
          "name": "",
          "type": "string"
        }
      ],
      "stateMutability": "view",
      "type": "function"
    },
    {
      "inputs": [],
      "name": "totalSupply",
      "outputs": [
        {
          "internalType": "uint256",
          "name": "",
          "type": "uint256"
        }
      ],
      "stateMutability": "view",
      "type": "function"
    },
    {
      "inputs": [
        {
          "internalType": "address",
          "name": "recipient",
          "type": "address"
        },
        {
          "internalType": "uint256",
          "name": "amount",
          "type": "uint256"
        }
      ],
      "name": "transfer",
      "outputs": [
        {
          "internalType": "bool",
          "name": "",
          "type": "bool"
        }
      ],
      "stateMutability": "nonpayable",
      "type": "function"
    },
    {
      "inputs": [
        {
          "internalType": "address",
          "name": "sender",
          "type": "address"
        },
        {
          "internalType": "address",
          "name": "recipient",
          "type": "address"
        },
        {
          "internalType": "uint256",
          "name": "amount",
          "type": "uint256"
        }
      ],
      "name": "transferFrom",
      "outputs": [
        {
          "internalType": "bool",
          "name": "",
          "type": "bool"
        }
      ],
      "stateMutability": "nonpayable",
      "type": "function"
    },
    {
      "inputs": [
        {
          "internalType": "address",
          "name": "newOwner",
          "type": "address"
        }
      ],
      "name": "transferOwnership",
      "outputs": [],
      "stateMutability": "nonpayable",
      "type": "function"
    }
  ],
  "bytecode": "0x60806040523480156200001157600080fd5b506040518060400160405280600481526020017f41726b61000000000000000000000000000000000000000000000000000000008152506040518060400160405280600381526020017f41524b000000000000000000000000000000000000000000000000000000000081525081600390816200008f9190620005ae565b508060049081620000a19190620005ae565b505050620000c4620000b8620000e460201b60201c565b620000ec60201b60201c565b620000de33670de0b6b3a7640000620001b260201b60201c565b620007b0565b600033905090565b6000600560009054906101000a900473ffffffffffffffffffffffffffffffffffffffff16905081600560006101000a81548173ffffffffffffffffffffffffffffffffffffffff021916908373ffffffffffffffffffffffffffffffffffffffff1602179055508173ffffffffffffffffffffffffffffffffffffffff168173ffffffffffffffffffffffffffffffffffffffff167f8be0079c531659141344cd1fd0a4f28419497f9722a3daafe3b4186f6b6457e060405160405180910390a35050565b600073ffffffffffffffffffffffffffffffffffffffff168273ffffffffffffffffffffffffffffffffffffffff160362000224576040517f08c379a00000000000000000000000000000000000000000000000000000000081526004016200021b90620006f6565b60405180910390fd5b62000238600083836200032a60201b60201c565b80600260008282546200024c919062000747565b92505081905550806000808473ffffffffffffffffffffffffffffffffffffffff1673ffffffffffffffffffffffffffffffffffffffff1681526020019081526020016000206000828254620002a3919062000747565b925050819055508173ffffffffffffffffffffffffffffffffffffffff16600073ffffffffffffffffffffffffffffffffffffffff167fddf252ad1be2c89b69c2b068fc378daa952ba7f163c4a11628f55a4df523b3ef836040516200030a919062000793565b60405180910390a362000326600083836200032f60201b60201c565b5050565b505050565b505050565b600081519050919050565b7f4e487b7100000000000000000000000000000000000000000000000000000000600052604160045260246000fd5b7f4e487b7100000000000000000000000000000000000000000000000000000000600052602260045260246000fd5b60006002820490506001821680620003b657607f821691505b602082108103620003cc57620003cb6200036e565b5b50919050565b60008190508160005260206000209050919050565b60006020601f8301049050919050565b600082821b905092915050565b600060088302620004367fffffffffffffffffffffffffffffffffffffffffffffffffffffffffffffffff82620003f7565b620004428683620003f7565b95508019841693508086168417925050509392505050565b6000819050919050565b6000819050919050565b60006200048f6200048962000483846200045a565b62000464565b6200045a565b9050919050565b6000819050919050565b620004ab836200046e565b620004c3620004ba8262000496565b84845462000404565b825550505050565b600090565b620004da620004cb565b620004e7818484620004a0565b505050565b5b818110156200050f5762000503600082620004d0565b600181019050620004ed565b5050565b601f8211156200055e576200052881620003d2565b6200053384620003e7565b8101602085101562000543578190505b6200055b6200055285620003e7565b830182620004ec565b50505b505050565b600082821c905092915050565b6000620005836000198460080262000563565b1980831691505092915050565b60006200059e838362000570565b9150826002028217905092915050565b620005b98262000334565b67ffffffffffffffff811115620005d557620005d46200033f565b5b620005e182546200039d565b620005ee82828562000513565b600060209050601f83116001811462000626576000841562000611578287015190505b6200061d858262000590565b8655506200068d565b601f1984166200063686620003d2565b60005b82811015620006605784890151825560018201915060208501945060208101905062000639565b868310156200068057848901516200067c601f89168262000570565b8355505b6001600288020188555050505b505050505050565b600082825260208201905092915050565b7f45524332303a206d696e7420746f20746865207a65726f206164647265737300600082015250565b6000620006de601f8362000695565b9150620006eb82620006a6565b602082019050919050565b600060208201905081810360008301526200071181620006cf565b9050919050565b7f4e487b7100000000000000000000000000000000000000000000000000000000600052601160045260246000fd5b600062000754826200045a565b915062000761836200045a565b92508282019050808211156200077c576200077b62000718565b5b92915050565b6200078d816200045a565b82525050565b6000602082019050620007aa600083018462000782565b92915050565b611bc880620007c06000396000f3fe608060405234801561001057600080fd5b506004361061010b5760003560e01c8063715018a6116100a2578063a9059cbb11610071578063a9059cbb146102be578063b1501e3b146102ee578063dd62ed3e1461030a578063efd81af91461033a578063f2fde38b146103565761010b565b8063715018a6146102485780638da5cb5b1461025257806395d89b4114610270578063a457c2d71461028e5761010b565b806323b872dd116100de57806323b872dd1461019a578063313ce567146101ca57806339509351146101e857806370a08231146102185761010b565b806306fdde0314610110578063095ea7b31461012e57806318160ddd1461015e5780631a4b1cd31461017c575b600080fd5b610118610372565b604051610125919061127f565b60405180910390f35b6101486004803603810190610143919061133a565b610404565b6040516101559190611395565b60405180910390f35b610166610422565b60405161017391906113bf565b60405180910390f35b61018461042c565b60405161019191906113e9565b60405180910390f35b6101b460048036038101906101af9190611404565b610452565b6040516101c19190611395565b60405180910390f35b6101d261054a565b6040516101df9190611473565b60405180910390f35b61020260048036038101906101fd919061133a565b610553565b60405161020f9190611395565b60405180910390f35b610232600480360381019061022d919061148e565b6105ff565b60405161023f91906113bf565b60405180910390f35b610250610647565b005b61025a6106cf565b60405161026791906113e9565b60405180910390f35b6102786106f9565b604051610285919061127f565b60405180910390f35b6102a860048036038101906102a3919061133a565b61078b565b6040516102b59190611395565b60405180910390f35b6102d860048036038101906102d3919061133a565b610876565b6040516102e59190611395565b60405180910390f35b6103086004803603810190610303919061133a565b610894565b005b610324600480360381019061031f91906114bb565b610932565b60405161033191906113bf565b60405180910390f35b610354600480360381019061034f919061148e565b6109b9565b005b610370600480360381019061036b919061148e565b610a79565b005b6060600380546103819061152a565b80601f01602080910402602001604051908101604052809291908181526020018280546103ad9061152a565b80156103fa5780601f106103cf576101008083540402835291602001916103fa565b820191906000526020600020905b8154815290600101906020018083116103dd57829003601f168201915b5050505050905090565b6000610418610411610b70565b8484610b78565b6001905092915050565b6000600254905090565b600660009054906101000a900473ffffffffffffffffffffffffffffffffffffffff1681565b600061045f848484610d41565b6000600160008673ffffffffffffffffffffffffffffffffffffffff1673ffffffffffffffffffffffffffffffffffffffff16815260200190815260200160002060006104aa610b70565b73ffffffffffffffffffffffffffffffffffffffff1673ffffffffffffffffffffffffffffffffffffffff1681526020019081526020016000205490508281101561052a576040517f08c379a0000000000000000000000000000000000000000000000000000000008152600401610521906115cd565b60405180910390fd5b61053e85610536610b70565b858403610b78565b60019150509392505050565b60006012905090565b60006105f5610560610b70565b84846001600061056e610b70565b73ffffffffffffffffffffffffffffffffffffffff1673ffffffffffffffffffffffffffffffffffffffff16815260200190815260200160002060008873ffffffffffffffffffffffffffffffffffffffff1673ffffffffffffffffffffffffffffffffffffffff168152602001908152602001600020546105f0919061161c565b610b78565b6001905092915050565b60008060008373ffffffffffffffffffffffffffffffffffffffff1673ffffffffffffffffffffffffffffffffffffffff168152602001908152602001600020549050919050565b61064f610b70565b73ffffffffffffffffffffffffffffffffffffffff1661066d6106cf565b73ffffffffffffffffffffffffffffffffffffffff16146106c3576040517f08c379a00000000000000000000000000000000000000000000000000000000081526004016106ba9061169c565b60405180910390fd5b6106cd6000610fc0565b565b6000600560009054906101000a900473ffffffffffffffffffffffffffffffffffffffff16905090565b6060600480546107089061152a565b80601f01602080910402602001604051908101604052809291908181526020018280546107349061152a565b80156107815780601f1061075657610100808354040283529160200191610781565b820191906000526020600020905b81548152906001019060200180831161076457829003601f168201915b5050505050905090565b6000806001600061079a610b70565b73ffffffffffffffffffffffffffffffffffffffff1673ffffffffffffffffffffffffffffffffffffffff16815260200190815260200160002060008573ffffffffffffffffffffffffffffffffffffffff1673ffffffffffffffffffffffffffffffffffffffff16815260200190815260200160002054905082811015610857576040517f08c379a000000000000000000000000000000000000000000000000000000000815260040161084e9061172e565b60405180910390fd5b61086b610862610b70565b85858403610b78565b600191505092915050565b600061088a610883610b70565b8484610d41565b6001905092915050565b600660009054906101000a900473ffffffffffffffffffffffffffffffffffffffff1673ffffffffffffffffffffffffffffffffffffffff163373ffffffffffffffffffffffffffffffffffffffff1614610924576040517f08c379a000000000000000000000000000000000000000000000000000000000815260040161091b9061179a565b60405180910390fd5b61092e8282611086565b5050565b6000600160008473ffffffffffffffffffffffffffffffffffffffff1673ffffffffffffffffffffffffffffffffffffffff16815260200190815260200160002060008373ffffffffffffffffffffffffffffffffffffffff1673ffffffffffffffffffffffffffffffffffffffff16815260200190815260200160002054905092915050565b6109c1610b70565b73ffffffffffffffffffffffffffffffffffffffff166109df6106cf565b73ffffffffffffffffffffffffffffffffffffffff1614610a35576040517f08c379a0000000000000000000000000000000000000000000000000000000008152600401610a2c9061169c565b60405180910390fd5b80600660006101000a81548173ffffffffffffffffffffffffffffffffffffffff021916908373ffffffffffffffffffffffffffffffffffffffff16021790555050565b610a81610b70565b73ffffffffffffffffffffffffffffffffffffffff16610a9f6106cf565b73ffffffffffffffffffffffffffffffffffffffff1614610af5576040517f08c379a0000000000000000000000000000000000000000000000000000000008152600401610aec9061169c565b60405180910390fd5b600073ffffffffffffffffffffffffffffffffffffffff168173ffffffffffffffffffffffffffffffffffffffff1603610b64576040517f08c379a0000000000000000000000000000000000000000000000000000000008152600401610b5b9061182c565b60405180910390fd5b610b6d81610fc0565b50565b600033905090565b600073ffffffffffffffffffffffffffffffffffffffff168373ffffffffffffffffffffffffffffffffffffffff1603610be7576040517f08c379a0000000000000000000000000000000000000000000000000000000008152600401610bde906118be565b60405180910390fd5b600073ffffffffffffffffffffffffffffffffffffffff168273ffffffffffffffffffffffffffffffffffffffff1603610c56576040517f08c379a0000000000000000000000000000000000000000000000000000000008152600401610c4d90611950565b60405180910390fd5b80600160008573ffffffffffffffffffffffffffffffffffffffff1673ffffffffffffffffffffffffffffffffffffffff16815260200190815260200160002060008473ffffffffffffffffffffffffffffffffffffffff1673ffffffffffffffffffffffffffffffffffffffff168152602001908152602001600020819055508173ffffffffffffffffffffffffffffffffffffffff168373ffffffffffffffffffffffffffffffffffffffff167f8c5be1e5ebec7d5bd14f71427d1e84f3dd0314c0f7b2291e5b200ac8c7c3b92583604051610d3491906113bf565b60405180910390a3505050565b600073ffffffffffffffffffffffffffffffffffffffff168373ffffffffffffffffffffffffffffffffffffffff1603610db0576040517f08c379a0000000000000000000000000000000000000000000000000000000008152600401610da7906119e2565b60405180910390fd5b600073ffffffffffffffffffffffffffffffffffffffff168273ffffffffffffffffffffffffffffffffffffffff1603610e1f576040517f08c379a0000000000000000000000000000000000000000000000000000000008152600401610e1690611a74565b60405180910390fd5b610e2a8383836111e5565b60008060008573ffffffffffffffffffffffffffffffffffffffff1673ffffffffffffffffffffffffffffffffffffffff16815260200190815260200160002054905081811015610eb0576040517f08c379a0000000000000000000000000000000000000000000000000000000008152600401610ea790611b06565b60405180910390fd5b8181036000808673ffffffffffffffffffffffffffffffffffffffff1673ffffffffffffffffffffffffffffffffffffffff16815260200190815260200160002081905550816000808573ffffffffffffffffffffffffffffffffffffffff1673ffffffffffffffffffffffffffffffffffffffff1681526020019081526020016000206000828254610f43919061161c565b925050819055508273ffffffffffffffffffffffffffffffffffffffff168473ffffffffffffffffffffffffffffffffffffffff167fddf252ad1be2c89b69c2b068fc378daa952ba7f163c4a11628f55a4df523b3ef84604051610fa791906113bf565b60405180910390a3610fba8484846111ea565b50505050565b6000600560009054906101000a900473ffffffffffffffffffffffffffffffffffffffff16905081600560006101000a81548173ffffffffffffffffffffffffffffffffffffffff021916908373ffffffffffffffffffffffffffffffffffffffff1602179055508173ffffffffffffffffffffffffffffffffffffffff168173ffffffffffffffffffffffffffffffffffffffff167f8be0079c531659141344cd1fd0a4f28419497f9722a3daafe3b4186f6b6457e060405160405180910390a35050565b600073ffffffffffffffffffffffffffffffffffffffff168273ffffffffffffffffffffffffffffffffffffffff16036110f5576040517f08c379a00000000000000000000000000000000000000000000000000000000081526004016110ec90611b72565b60405180910390fd5b611101600083836111e5565b8060026000828254611113919061161c565b92505081905550806000808473ffffffffffffffffffffffffffffffffffffffff1673ffffffffffffffffffffffffffffffffffffffff1681526020019081526020016000206000828254611168919061161c565b925050819055508173ffffffffffffffffffffffffffffffffffffffff16600073ffffffffffffffffffffffffffffffffffffffff167fddf252ad1be2c89b69c2b068fc378daa952ba7f163c4a11628f55a4df523b3ef836040516111cd91906113bf565b60405180910390a36111e1600083836111ea565b5050565b505050565b505050565b600081519050919050565b600082825260208201905092915050565b60005b8381101561122957808201518184015260208101905061120e565b60008484015250505050565b6000601f19601f8301169050919050565b6000611251826111ef565b61125b81856111fa565b935061126b81856020860161120b565b61127481611235565b840191505092915050565b600060208201905081810360008301526112998184611246565b905092915050565b600080fd5b600073ffffffffffffffffffffffffffffffffffffffff82169050919050565b60006112d1826112a6565b9050919050565b6112e1816112c6565b81146112ec57600080fd5b50565b6000813590506112fe816112d8565b92915050565b6000819050919050565b61131781611304565b811461132257600080fd5b50565b6000813590506113348161130e565b92915050565b60008060408385031215611351576113506112a1565b5b600061135f858286016112ef565b925050602061137085828601611325565b9150509250929050565b60008115159050919050565b61138f8161137a565b82525050565b60006020820190506113aa6000830184611386565b92915050565b6113b981611304565b82525050565b60006020820190506113d460008301846113b0565b92915050565b6113e3816112c6565b82525050565b60006020820190506113fe60008301846113da565b92915050565b60008060006060848603121561141d5761141c6112a1565b5b600061142b868287016112ef565b935050602061143c868287016112ef565b925050604061144d86828701611325565b9150509250925092565b600060ff82169050919050565b61146d81611457565b82525050565b60006020820190506114886000830184611464565b92915050565b6000602082840312156114a4576114a36112a1565b5b60006114b2848285016112ef565b91505092915050565b600080604083850312156114d2576114d16112a1565b5b60006114e0858286016112ef565b92505060206114f1858286016112ef565b9150509250929050565b7f4e487b7100000000000000000000000000000000000000000000000000000000600052602260045260246000fd5b6000600282049050600182168061154257607f821691505b602082108103611555576115546114fb565b5b50919050565b7f45524332303a207472616e7366657220616d6f756e742065786365656473206160008201527f6c6c6f77616e6365000000000000000000000000000000000000000000000000602082015250565b60006115b76028836111fa565b91506115c28261155b565b604082019050919050565b600060208201905081810360008301526115e6816115aa565b9050919050565b7f4e487b7100000000000000000000000000000000000000000000000000000000600052601160045260246000fd5b600061162782611304565b915061163283611304565b925082820190508082111561164a576116496115ed565b5b92915050565b7f4f776e61626c653a2063616c6c6572206973206e6f7420746865206f776e6572600082015250565b60006116866020836111fa565b915061169182611650565b602082019050919050565b600060208201905081810360008301526116b581611679565b9050919050565b7f45524332303a2064656372656173656420616c6c6f77616e63652062656c6f7760008201527f207a65726f000000000000000000000000000000000000000000000000000000602082015250565b60006117186025836111fa565b9150611723826116bc565b604082019050919050565b600060208201905081810360008301526117478161170b565b9050919050565b7f4f6e6c792041726b614d61737465722063616e206d696e740000000000000000600082015250565b60006117846018836111fa565b915061178f8261174e565b602082019050919050565b600060208201905081810360008301526117b381611777565b9050919050565b7f4f776e61626c653a206e6577206f776e657220697320746865207a65726f206160008201527f6464726573730000000000000000000000000000000000000000000000000000602082015250565b60006118166026836111fa565b9150611821826117ba565b604082019050919050565b6000602082019050818103600083015261184581611809565b9050919050565b7f45524332303a20617070726f76652066726f6d20746865207a65726f2061646460008201527f7265737300000000000000000000000000000000000000000000000000000000602082015250565b60006118a86024836111fa565b91506118b38261184c565b604082019050919050565b600060208201905081810360008301526118d78161189b565b9050919050565b7f45524332303a20617070726f766520746f20746865207a65726f20616464726560008201527f7373000000000000000000000000000000000000000000000000000000000000602082015250565b600061193a6022836111fa565b9150611945826118de565b604082019050919050565b600060208201905081810360008301526119698161192d565b9050919050565b7f45524332303a207472616e736665722066726f6d20746865207a65726f20616460008201527f6472657373000000000000000000000000000000000000000000000000000000602082015250565b60006119cc6025836111fa565b91506119d782611970565b604082019050919050565b600060208201905081810360008301526119fb816119bf565b9050919050565b7f45524332303a207472616e7366657220746f20746865207a65726f206164647260008201527f6573730000000000000000000000000000000000000000000000000000000000602082015250565b6000611a5e6023836111fa565b9150611a6982611a02565b604082019050919050565b60006020820190508181036000830152611a8d81611a51565b9050919050565b7f45524332303a207472616e7366657220616d6f756e742065786365656473206260008201527f616c616e63650000000000000000000000000000000000000000000000000000602082015250565b6000611af06026836111fa565b9150611afb82611a94565b604082019050919050565b60006020820190508181036000830152611b1f81611ae3565b9050919050565b7f45524332303a206d696e7420746f20746865207a65726f206164647265737300600082015250565b6000611b5c601f836111fa565b9150611b6782611b26565b602082019050919050565b60006020820190508181036000830152611b8b81611b4f565b905091905056fea26469706673582212205dd28e2f6dfe8bb43c4f6ad491a4cd250d61f90c3b5f5c7b417fc71f39ff3ca064736f6c63430008120033",
  "linkReferences": {},
  "deployedLinkReferences": {}
}