{
  "_format": "hh-sol-artifact-1",
  "contractName": "ArkaRewards",
  "sourceName": "contracts/ArkaRewards.sol",
  "abi": [
    {
      "inputs": [
        {
          "internalType": "address",
          "name": "_stakingToken",
          "type": "address"
        },
        {
          "internalType": "address",
          "name": "_rewardToken",
          "type": "address"
        }
      ],
      "stateMutability": "nonpayable",
      "type": "constructor"
    },
    {
      "anonymous": false,
      "inputs": [
        {
          "indexed": true,
          "internalType": "address",
          "name": "user",
          "type": "address"
        },
        {
          "indexed": false,
          "internalType": "uint256",
          "name": "amount",
          "type": "uint256"
        }
      ],
      "name": "NewStake",
      "type": "event"
    },
    {
      "anonymous": false,
      "inputs": [
        {
          "indexed": true,
          "internalType": "address",
          "name": "previousOwner",
          "type": "address"
        },
        {
          "indexed": true,
          "internalType": "address",
          "name": "newOwner",
          "type": "address"
        }
      ],
      "name": "OwnershipTransferred",
      "type": "event"
    },
    {
      "anonymous": false,
      "inputs": [
        {
          "indexed": true,
          "internalType": "address",
          "name": "user",
          "type": "address"
        },
        {
          "indexed": false,
          "internalType": "uint256",
          "name": "reward",
          "type": "uint256"
        }
      ],
      "name": "RewardPaid",
      "type": "event"
    },
    {
      "anonymous": false,
      "inputs": [
        {
          "indexed": false,
          "internalType": "uint256",
          "name": "newDuration",
          "type": "uint256"
        }
      ],
      "name": "RewardsDurationUpdated",
      "type": "event"
    },
    {
      "anonymous": false,
      "inputs": [
        {
          "indexed": true,
          "internalType": "address",
          "name": "user",
          "type": "address"
        },
        {
          "indexed": false,
          "internalType": "uint256",
          "name": "amount",
          "type": "uint256"
        }
      ],
      "name": "StakeInitiated",
      "type": "event"
    },
    {
      "anonymous": false,
      "inputs": [
        {
          "indexed": true,
          "internalType": "address",
          "name": "user",
          "type": "address"
        },
        {
          "indexed": false,
          "internalType": "uint256",
          "name": "amount",
          "type": "uint256"
        }
      ],
      "name": "StakeWithdrawn",
      "type": "event"
    },
    {
      "inputs": [],
      "name": "arkaToken",
      "outputs": [
        {
          "internalType": "contract IERC20",
          "name": "",
          "type": "address"
        }
      ],
      "stateMutability": "view",
      "type": "function"
    },
    {
      "inputs": [
        {
          "internalType": "address",
          "name": "",
          "type": "address"
        }
      ],
      "name": "balanceOf",
      "outputs": [
        {
          "internalType": "uint256",
          "name": "",
          "type": "uint256"
        }
      ],
      "stateMutability": "view",
      "type": "function"
    },
    {
      "inputs": [],
      "name": "computeRewardPerToken",
      "outputs": [
        {
          "internalType": "uint256",
          "name": "",
          "type": "uint256"
        }
      ],
      "stateMutability": "view",
      "type": "function"
    },
    {
      "inputs": [],
      "name": "duration",
      "outputs": [
        {
          "internalType": "uint256",
          "name": "",
          "type": "uint256"
        }
      ],
      "stateMutability": "view",
      "type": "function"
    },
    {
      "inputs": [
        {
          "internalType": "address",
          "name": "_account",
          "type": "address"
        }
      ],
      "name": "earned",
      "outputs": [
        {
          "internalType": "uint256",
          "name": "",
          "type": "uint256"
        }
      ],
      "stateMutability": "view",
      "type": "function"
    },
    {
      "inputs": [],
      "name": "finishAt",
      "outputs": [
        {
          "internalType": "uint256",
          "name": "",
          "type": "uint256"
        }
      ],
      "stateMutability": "view",
      "type": "function"
    },
    {
      "inputs": [],
      "name": "getReward",
      "outputs": [],
      "stateMutability": "nonpayable",
      "type": "function"
    },
    {
      "inputs": [],
      "name": "lastTimeRewardApplicable",
      "outputs": [
        {
          "internalType": "uint256",
          "name": "",
          "type": "uint256"
        }
      ],
      "stateMutability": "view",
      "type": "function"
    },
    {
      "inputs": [
        {
          "internalType": "uint256",
          "name": "_amount",
          "type": "uint256"
        }
      ],
      "name": "notifyRewardAmount",
      "outputs": [],
      "stateMutability": "nonpayable",
      "type": "function"
    },
    {
      "inputs": [],
      "name": "owner",
      "outputs": [
        {
          "internalType": "address",
          "name": "",
          "type": "address"
        }
      ],
      "stateMutability": "view",
      "type": "function"
    },
    {
      "inputs": [],
      "name": "renounceOwnership",
      "outputs": [],
      "stateMutability": "nonpayable",
      "type": "function"
    },
    {
      "inputs": [],
      "name": "rewardPerToken",
      "outputs": [
        {
          "internalType": "uint256",
          "name": "",
          "type": "uint256"
        }
      ],
      "stateMutability": "view",
      "type": "function"
    },
    {
      "inputs": [],
      "name": "rewardRate",
      "outputs": [
        {
          "internalType": "uint256",
          "name": "",
          "type": "uint256"
        }
      ],
      "stateMutability": "view",
      "type": "function"
    },
    {
      "inputs": [
        {
          "internalType": "address",
          "name": "",
          "type": "address"
        }
      ],
      "name": "rewards",
      "outputs": [
        {
          "internalType": "uint256",
          "name": "",
          "type": "uint256"
        }
      ],
      "stateMutability": "view",
      "type": "function"
    },
    {
      "inputs": [],
      "name": "rewardsToken",
      "outputs": [
        {
          "internalType": "contract IERC20",
          "name": "",
          "type": "address"
        }
      ],
      "stateMutability": "view",
      "type": "function"
    },
    {
      "inputs": [
        {
          "internalType": "uint256",
          "name": "_duration",
          "type": "uint256"
        }
      ],
      "name": "setRewardsDuration",
      "outputs": [],
      "stateMutability": "nonpayable",
      "type": "function"
    },
    {
      "inputs": [
        {
          "internalType": "uint256",
          "name": "_amount",
          "type": "uint256"
        }
      ],
      "name": "stake",
      "outputs": [],
      "stateMutability": "nonpayable",
      "type": "function"
    },
    {
      "inputs": [],
      "name": "totalSupply",
      "outputs": [
        {
          "internalType": "uint256",
          "name": "",
          "type": "uint256"
        }
      ],
      "stateMutability": "view",
      "type": "function"
    },
    {
      "inputs": [
        {
          "internalType": "address",
          "name": "newOwner",
          "type": "address"
        }
      ],
      "name": "transferOwnership",
      "outputs": [],
      "stateMutability": "nonpayable",
      "type": "function"
    },
    {
      "inputs": [],
      "name": "updatedAt",
      "outputs": [
        {
          "internalType": "uint256",
          "name": "",
          "type": "uint256"
        }
      ],
      "stateMutability": "view",
      "type": "function"
    },
    {
      "inputs": [
        {
          "internalType": "address",
          "name": "",
          "type": "address"
        }
      ],
      "name": "userRewardPerTokenPaid",
      "outputs": [
        {
          "internalType": "uint256",
          "name": "",
          "type": "uint256"
        }
      ],
      "stateMutability": "view",
      "type": "function"
    },
    {
      "inputs": [
        {
          "internalType": "uint256",
          "name": "_amount",
          "type": "uint256"
        }
      ],
      "name": "withdraw",
      "outputs": [],
      "stateMutability": "nonpayable",
      "type": "function"
    }
  ],
  "bytecode": "0x60c06040523480156200001157600080fd5b5060405162001c9738038062001c978339818101604052810190620000379190620001fd565b620000576200004b620000c760201b60201c565b620000cf60201b60201c565b8173ffffffffffffffffffffffffffffffffffffffff1660808173ffffffffffffffffffffffffffffffffffffffff16815250508073ffffffffffffffffffffffffffffffffffffffff1660a08173ffffffffffffffffffffffffffffffffffffffff1681525050505062000244565b600033905090565b60008060009054906101000a900473ffffffffffffffffffffffffffffffffffffffff169050816000806101000a81548173ffffffffffffffffffffffffffffffffffffffff021916908373ffffffffffffffffffffffffffffffffffffffff1602179055508173ffffffffffffffffffffffffffffffffffffffff168173ffffffffffffffffffffffffffffffffffffffff167f8be0079c531659141344cd1fd0a4f28419497f9722a3daafe3b4186f6b6457e060405160405180910390a35050565b600080fd5b600073ffffffffffffffffffffffffffffffffffffffff82169050919050565b6000620001c58262000198565b9050919050565b620001d781620001b8565b8114620001e357600080fd5b50565b600081519050620001f781620001cc565b92915050565b6000806040838503121562000217576200021662000193565b5b60006200022785828601620001e6565b92505060206200023a85828601620001e6565b9150509250929050565b60805160a051611a11620002866000396000818161095901528181610bd9015261111c0152600081816106ae01528181610ced0152610f380152611a116000f3fe608060405234801561001057600080fd5b50600436106101415760003560e01c8063715018a6116100b85780638da5cb5b1161007c5780638da5cb5b14610342578063a694fc3a14610360578063cc1a378f1461037c578063cd3daf9d14610398578063d1af0c7d146103b6578063f2fde38b146103d457610141565b8063715018a6146102ae5780637519ab50146102b85780637b0a47ee146102d657806380faa57d146102f45780638b8763471461031257610141565b80633c6b16ab1161010a5780633c6b16ab146101fe5780633d18b9121461021a5780635fbe093a1461022457806367d3b488146102425780636d153cb11461026057806370a082311461027e57610141565b80628cc262146101465780630700037d146101765780630fb5a6b4146101a657806318160ddd146101c45780632e1a7d4d146101e2575b600080fd5b610160600480360381019061015b919061137e565b6103f0565b60405161016d91906113c4565b60405180910390f35b610190600480360381019061018b919061137e565b6104f2565b60405161019d91906113c4565b60405180910390f35b6101ae61050a565b6040516101bb91906113c4565b60405180910390f35b6101cc610510565b6040516101d991906113c4565b60405180910390f35b6101fc60048036038101906101f7919061140b565b610516565b005b6102186004803603810190610213919061140b565b61074f565b005b610222610a61565b005b61022c610c7b565b60405161023991906113c4565b60405180910390f35b61024a610ce5565b60405161025791906113c4565b60405180910390f35b610268610ceb565b6040516102759190611497565b60405180910390f35b6102986004803603810190610293919061137e565b610d0f565b6040516102a591906113c4565b60405180910390f35b6102b6610d27565b005b6102c0610daf565b6040516102cd91906113c4565b60405180910390f35b6102de610db5565b6040516102eb91906113c4565b60405180910390f35b6102fc610dbb565b60405161030991906113c4565b60405180910390f35b61032c6004803603810190610327919061137e565b610dce565b60405161033991906113c4565b60405180910390f35b61034a610de6565b60405161035791906114c1565b60405180910390f35b61037a6004803603810190610375919061140b565b610e0f565b005b6103966004803603810190610391919061140b565b61104a565b005b6103a0611114565b6040516103ad91906113c4565b60405180910390f35b6103be61111a565b6040516103cb9190611497565b60405180910390f35b6103ee60048036038101906103e9919061137e565b61113e565b005b6000670de0b6b3a7640000600760008473ffffffffffffffffffffffffffffffffffffffff1673ffffffffffffffffffffffffffffffffffffffff16815260200190815260200160002054610443610c7b565b61044d919061150b565b600960008573ffffffffffffffffffffffffffffffffffffffff1673ffffffffffffffffffffffffffffffffffffffff16815260200190815260200160002054610497919061153f565b6104a191906115b0565b600860008473ffffffffffffffffffffffffffffffffffffffff1673ffffffffffffffffffffffffffffffffffffffff168152602001908152602001600020546104eb91906115e1565b9050919050565b60086020528060005260406000206000915090505481565b60015481565b60065481565b3361051f610c7b565b60058190555061052d610dbb565b600381905550600073ffffffffffffffffffffffffffffffffffffffff168173ffffffffffffffffffffffffffffffffffffffff16146105fa57610570816103f0565b600860008373ffffffffffffffffffffffffffffffffffffffff1673ffffffffffffffffffffffffffffffffffffffff16815260200190815260200160002081905550600554600760008373ffffffffffffffffffffffffffffffffffffffff1673ffffffffffffffffffffffffffffffffffffffff168152602001908152602001600020819055505b6000821161063d576040517f08c379a000000000000000000000000000000000000000000000000000000000815260040161063490611672565b60405180910390fd5b81600960003373ffffffffffffffffffffffffffffffffffffffff1673ffffffffffffffffffffffffffffffffffffffff168152602001908152602001600020600082825461068c919061150b565b9250508190555081600660008282546106a5919061150b565b925050819055507f000000000000000000000000000000000000000000000000000000000000000073ffffffffffffffffffffffffffffffffffffffff1663a9059cbb33846040518363ffffffff1660e01b8152600401610707929190611692565b6020604051808303816000875af1158015610726573d6000803e3d6000fd5b505050506040513d601f19601f8201168201806040525081019061074a91906116f3565b505050565b610757611235565b73ffffffffffffffffffffffffffffffffffffffff16610775610de6565b73ffffffffffffffffffffffffffffffffffffffff16146107cb576040517f08c379a00000000000000000000000000000000000000000000000000000000081526004016107c29061176c565b60405180910390fd5b60006107d5610c7b565b6005819055506107e3610dbb565b600381905550600073ffffffffffffffffffffffffffffffffffffffff168173ffffffffffffffffffffffffffffffffffffffff16146108b057610826816103f0565b600860008373ffffffffffffffffffffffffffffffffffffffff1673ffffffffffffffffffffffffffffffffffffffff16815260200190815260200160002081905550600554600760008373ffffffffffffffffffffffffffffffffffffffff1673ffffffffffffffffffffffffffffffffffffffff168152602001908152602001600020819055505b60025442106108d257600154826108c791906115b0565b600481905550610912565b6000600454426002546108e5919061150b565b6108ef919061153f565b9050600154818461090091906115e1565b61090a91906115b0565b600481905550505b600060045411610957576040517f08c379a000000000000000000000000000000000000000000000000000000000815260040161094e906117d8565b60405180910390fd5b7f000000000000000000000000000000000000000000000000000000000000000073ffffffffffffffffffffffffffffffffffffffff166370a08231306040518263ffffffff1660e01b81526004016109b091906114c1565b602060405180830381865afa1580156109cd573d6000803e3d6000fd5b505050506040513d601f19601f820116820180604052508101906109f1919061180d565b600154600454610a01919061153f565b1115610a42576040517f08c379a0000000000000000000000000000000000000000000000000000000008152600401610a3990611886565b60405180910390fd5b60015442610a5091906115e1565b600281905550426003819055505050565b33610a6a610c7b565b600581905550610a78610dbb565b600381905550600073ffffffffffffffffffffffffffffffffffffffff168173ffffffffffffffffffffffffffffffffffffffff1614610b4557610abb816103f0565b600860008373ffffffffffffffffffffffffffffffffffffffff1673ffffffffffffffffffffffffffffffffffffffff16815260200190815260200160002081905550600554600760008373ffffffffffffffffffffffffffffffffffffffff1673ffffffffffffffffffffffffffffffffffffffff168152602001908152602001600020819055505b6000600860003373ffffffffffffffffffffffffffffffffffffffff1673ffffffffffffffffffffffffffffffffffffffff1681526020019081526020016000205490506000811115610c77576000600860003373ffffffffffffffffffffffffffffffffffffffff1673ffffffffffffffffffffffffffffffffffffffff168152602001908152602001600020819055507f000000000000000000000000000000000000000000000000000000000000000073ffffffffffffffffffffffffffffffffffffffff1663a9059cbb33836040518363ffffffff1660e01b8152600401610c32929190611692565b6020604051808303816000875af1158015610c51573d6000803e3d6000fd5b505050506040513d601f19601f82011682018060405250810190610c7591906116f3565b505b5050565b60008060065403610c90576005549050610ce2565b600654670de0b6b3a7640000600354610ca7610dbb565b610cb1919061150b565b600454610cbe919061153f565b610cc8919061153f565b610cd291906115b0565b600554610cdf91906115e1565b90505b90565b60025481565b7f000000000000000000000000000000000000000000000000000000000000000081565b60096020528060005260406000206000915090505481565b610d2f611235565b73ffffffffffffffffffffffffffffffffffffffff16610d4d610de6565b73ffffffffffffffffffffffffffffffffffffffff1614610da3576040517f08c379a0000000000000000000000000000000000000000000000000000000008152600401610d9a9061176c565b60405180910390fd5b610dad600061123d565b565b60035481565b60045481565b6000610dc960025442611301565b905090565b60076020528060005260406000206000915090505481565b60008060009054906101000a900473ffffffffffffffffffffffffffffffffffffffff16905090565b33610e18610c7b565b600581905550610e26610dbb565b600381905550600073ffffffffffffffffffffffffffffffffffffffff168173ffffffffffffffffffffffffffffffffffffffff1614610ef357610e69816103f0565b600860008373ffffffffffffffffffffffffffffffffffffffff1673ffffffffffffffffffffffffffffffffffffffff16815260200190815260200160002081905550600554600760008373ffffffffffffffffffffffffffffffffffffffff1673ffffffffffffffffffffffffffffffffffffffff168152602001908152602001600020819055505b60008211610f36576040517f08c379a0000000000000000000000000000000000000000000000000000000008152600401610f2d90611672565b60405180910390fd5b7f000000000000000000000000000000000000000000000000000000000000000073ffffffffffffffffffffffffffffffffffffffff166323b872dd3330856040518463ffffffff1660e01b8152600401610f93939291906118a6565b6020604051808303816000875af1158015610fb2573d6000803e3d6000fd5b505050506040513d601f19601f82011682018060405250810190610fd691906116f3565b5081600960003373ffffffffffffffffffffffffffffffffffffffff1673ffffffffffffffffffffffffffffffffffffffff168152602001908152602001600020600082825461102691906115e1565b92505081905550816006600082825461103f91906115e1565b925050819055505050565b611052611235565b73ffffffffffffffffffffffffffffffffffffffff16611070610de6565b73ffffffffffffffffffffffffffffffffffffffff16146110c6576040517f08c379a00000000000000000000000000000000000000000000000000000000081526004016110bd9061176c565b60405180910390fd5b426002541061110a576040517f08c379a000000000000000000000000000000000000000000000000000000000815260040161110190611929565b60405180910390fd5b8060018190555050565b60055481565b7f000000000000000000000000000000000000000000000000000000000000000081565b611146611235565b73ffffffffffffffffffffffffffffffffffffffff16611164610de6565b73ffffffffffffffffffffffffffffffffffffffff16146111ba576040517f08c379a00000000000000000000000000000000000000000000000000000000081526004016111b19061176c565b60405180910390fd5b600073ffffffffffffffffffffffffffffffffffffffff168173ffffffffffffffffffffffffffffffffffffffff1603611229576040517f08c379a0000000000000000000000000000000000000000000000000000000008152600401611220906119bb565b60405180910390fd5b6112328161123d565b50565b600033905090565b60008060009054906101000a900473ffffffffffffffffffffffffffffffffffffffff169050816000806101000a81548173ffffffffffffffffffffffffffffffffffffffff021916908373ffffffffffffffffffffffffffffffffffffffff1602179055508173ffffffffffffffffffffffffffffffffffffffff168173ffffffffffffffffffffffffffffffffffffffff167f8be0079c531659141344cd1fd0a4f28419497f9722a3daafe3b4186f6b6457e060405160405180910390a35050565b6000818311156113115781611313565b825b905092915050565b600080fd5b600073ffffffffffffffffffffffffffffffffffffffff82169050919050565b600061134b82611320565b9050919050565b61135b81611340565b811461136657600080fd5b50565b60008135905061137881611352565b92915050565b6000602082840312156113945761139361131b565b5b60006113a284828501611369565b91505092915050565b6000819050919050565b6113be816113ab565b82525050565b60006020820190506113d960008301846113b5565b92915050565b6113e8816113ab565b81146113f357600080fd5b50565b600081359050611405816113df565b92915050565b6000602082840312156114215761142061131b565b5b600061142f848285016113f6565b91505092915050565b6000819050919050565b600061145d61145861145384611320565b611438565b611320565b9050919050565b600061146f82611442565b9050919050565b600061148182611464565b9050919050565b61149181611476565b82525050565b60006020820190506114ac6000830184611488565b92915050565b6114bb81611340565b82525050565b60006020820190506114d660008301846114b2565b92915050565b7f4e487b7100000000000000000000000000000000000000000000000000000000600052601160045260246000fd5b6000611516826113ab565b9150611521836113ab565b9250828203905081811115611539576115386114dc565b5b92915050565b600061154a826113ab565b9150611555836113ab565b9250828202611563816113ab565b9150828204841483151761157a576115796114dc565b5b5092915050565b7f4e487b7100000000000000000000000000000000000000000000000000000000600052601260045260246000fd5b60006115bb826113ab565b91506115c6836113ab565b9250826115d6576115d5611581565b5b828204905092915050565b60006115ec826113ab565b91506115f7836113ab565b925082820190508082111561160f5761160e6114dc565b5b92915050565b600082825260208201905092915050565b7f616d6f756e74203d203000000000000000000000000000000000000000000000600082015250565b600061165c600a83611615565b915061166782611626565b602082019050919050565b6000602082019050818103600083015261168b8161164f565b9050919050565b60006040820190506116a760008301856114b2565b6116b460208301846113b5565b9392505050565b60008115159050919050565b6116d0816116bb565b81146116db57600080fd5b50565b6000815190506116ed816116c7565b92915050565b6000602082840312156117095761170861131b565b5b6000611717848285016116de565b91505092915050565b7f4f776e61626c653a2063616c6c6572206973206e6f7420746865206f776e6572600082015250565b6000611756602083611615565b915061176182611720565b602082019050919050565b6000602082019050818103600083015261178581611749565b9050919050565b7f7265776172642072617465203d20300000000000000000000000000000000000600082015250565b60006117c2600f83611615565b91506117cd8261178c565b602082019050919050565b600060208201905081810360008301526117f1816117b5565b9050919050565b600081519050611807816113df565b92915050565b6000602082840312156118235761182261131b565b5b6000611831848285016117f8565b91505092915050565b7f72657761726420616d6f756e74203e2062616c616e6365000000000000000000600082015250565b6000611870601783611615565b915061187b8261183a565b602082019050919050565b6000602082019050818103600083015261189f81611863565b9050919050565b60006060820190506118bb60008301866114b2565b6118c860208301856114b2565b6118d560408301846113b5565b949350505050565b7f726577617264206475726174696f6e206e6f742066696e697368656400000000600082015250565b6000611913601c83611615565b915061191e826118dd565b602082019050919050565b6000602082019050818103600083015261194281611906565b9050919050565b7f4f776e61626c653a206e6577206f776e657220697320746865207a65726f206160008201527f6464726573730000000000000000000000000000000000000000000000000000602082015250565b60006119a5602683611615565b91506119b082611949565b604082019050919050565b600060208201905081810360008301526119d481611998565b905091905056fea26469706673582212204eb81db21c8319e768cca55303a9568fdacff8dc30f15f13e3b0de85f92817cb64736f6c63430008120033",
  "linkReferences": {},
  "deployedLinkReferences": {}
}