{
  "_format": "hh-sol-artifact-1",
  "contractName": "ArkaStaking",
  "sourceName": "contracts/ArkaStaking.sol",
  "abi": [
    {
      "inputs": [
        {
          "internalType": "address",
          "name": "_stakingToken",
          "type": "address"
        }
      ],
      "stateMutability": "payable",
      "type": "constructor"
    },
    {
      "anonymous": false,
      "inputs": [
        {
          "indexed": true,
          "internalType": "address",
          "name": "user",
          "type": "address"
        },
        {
          "indexed": false,
          "internalType": "uint256",
          "name": "amount",
          "type": "uint256"
        }
      ],
      "name": "Deposit",
      "type": "event"
    },
    {
      "anonymous": false,
      "inputs": [
        {
          "indexed": true,
          "internalType": "address",
          "name": "user",
          "type": "address"
        }
      ],
      "name": "RewardClaimed",
      "type": "event"
    },
    {
      "anonymous": false,
      "inputs": [],
      "name": "TransferUnclaimedReward",
      "type": "event"
    },
    {
      "anonymous": false,
      "inputs": [
        {
          "indexed": true,
          "internalType": "address",
          "name": "user",
          "type": "address"
        }
      ],
      "name": "Withdraw",
      "type": "event"
    },
    {
      "inputs": [],
      "name": "amountReward",
      "outputs": [
        {
          "internalType": "uint256",
          "name": "",
          "type": "uint256"
        }
      ],
      "stateMutability": "view",
      "type": "function"
    },
    {
      "inputs": [],
      "name": "arkaToken",
      "outputs": [
        {
          "internalType": "contract IERC20",
          "name": "",
          "type": "address"
        }
      ],
      "stateMutability": "view",
      "type": "function"
    },
    {
      "inputs": [
        {
          "internalType": "address",
          "name": "_account",
          "type": "address"
        }
      ],
      "name": "calculateRewardForAccount",
      "outputs": [
        {
          "internalType": "uint256",
          "name": "",
          "type": "uint256"
        }
      ],
      "stateMutability": "view",
      "type": "function"
    },
    {
      "inputs": [],
      "name": "claimReward",
      "outputs": [],
      "stateMutability": "nonpayable",
      "type": "function"
    },
    {
      "inputs": [
        {
          "internalType": "uint256",
          "name": "_amount",
          "type": "uint256"
        }
      ],
      "name": "deposit",
      "outputs": [],
      "stateMutability": "nonpayable",
      "type": "function"
    },
    {
      "inputs": [],
      "name": "duration",
      "outputs": [
        {
          "internalType": "uint256",
          "name": "",
          "type": "uint256"
        }
      ],
      "stateMutability": "view",
      "type": "function"
    },
    {
      "inputs": [],
      "name": "finishAt",
      "outputs": [
        {
          "internalType": "uint256",
          "name": "",
          "type": "uint256"
        }
      ],
      "stateMutability": "view",
      "type": "function"
    },
    {
      "inputs": [],
      "name": "rewardPerToken",
      "outputs": [
        {
          "internalType": "uint256",
          "name": "",
          "type": "uint256"
        }
      ],
      "stateMutability": "view",
      "type": "function"
    },
    {
      "inputs": [],
      "name": "rewardRate",
      "outputs": [
        {
          "internalType": "uint256",
          "name": "",
          "type": "uint256"
        }
      ],
      "stateMutability": "view",
      "type": "function"
    },
    {
      "inputs": [
        {
          "internalType": "address",
          "name": "",
          "type": "address"
        }
      ],
      "name": "rewards",
      "outputs": [
        {
          "internalType": "uint256",
          "name": "",
          "type": "uint256"
        }
      ],
      "stateMutability": "view",
      "type": "function"
    },
    {
      "inputs": [
        {
          "internalType": "address",
          "name": "",
          "type": "address"
        }
      ],
      "name": "stakeBalanceOf",
      "outputs": [
        {
          "internalType": "uint256",
          "name": "",
          "type": "uint256"
        }
      ],
      "stateMutability": "view",
      "type": "function"
    },
    {
      "inputs": [],
      "name": "totalSupply",
      "outputs": [
        {
          "internalType": "uint256",
          "name": "",
          "type": "uint256"
        }
      ],
      "stateMutability": "view",
      "type": "function"
    },
    {
      "inputs": [],
      "name": "transferUnclaimedReward",
      "outputs": [],
      "stateMutability": "nonpayable",
      "type": "function"
    },
    {
      "inputs": [],
      "name": "updatedAt",
      "outputs": [
        {
          "internalType": "uint256",
          "name": "",
          "type": "uint256"
        }
      ],
      "stateMutability": "view",
      "type": "function"
    },
    {
      "inputs": [
        {
          "internalType": "address",
          "name": "",
          "type": "address"
        }
      ],
      "name": "userRewardPerTokenPaid",
      "outputs": [
        {
          "internalType": "uint256",
          "name": "",
          "type": "uint256"
        }
      ],
      "stateMutability": "view",
      "type": "function"
    },
    {
      "inputs": [],
      "name": "withdraw",
      "outputs": [],
      "stateMutability": "nonpayable",
      "type": "function"
    }
  ],
  "bytecode": "0x60a0604052604051620018063803806200180683398181016040528101906200002991906200019b565b336000806101000a81548173ffffffffffffffffffffffffffffffffffffffff021916908373ffffffffffffffffffffffffffffffffffffffff1602179055508073ffffffffffffffffffffffffffffffffffffffff1660808173ffffffffffffffffffffffffffffffffffffffff168152505061025860028190555034600181905550600254600154620000bf919062000235565b6005819055506000600554116200010d576040517f08c379a00000000000000000000000000000000000000000000000000000000081526004016200010490620002ce565b60405180910390fd5b600254426200011d9190620002f0565b60038190555042600481905550506200032b565b600080fd5b600073ffffffffffffffffffffffffffffffffffffffff82169050919050565b6000620001638262000136565b9050919050565b620001758162000156565b81146200018157600080fd5b50565b60008151905062000195816200016a565b92915050565b600060208284031215620001b457620001b362000131565b5b6000620001c48482850162000184565b91505092915050565b6000819050919050565b7f4e487b7100000000000000000000000000000000000000000000000000000000600052601260045260246000fd5b7f4e487b7100000000000000000000000000000000000000000000000000000000600052601160045260246000fd5b60006200024282620001cd565b91506200024f83620001cd565b925082620002625762000261620001d7565b5b828204905092915050565b600082825260208201905092915050565b7f7265776172642072617465203d20300000000000000000000000000000000000600082015250565b6000620002b6600f836200026d565b9150620002c3826200027e565b602082019050919050565b60006020820190508181036000830152620002e981620002a7565b9050919050565b6000620002fd82620001cd565b91506200030a83620001cd565b925082820190508082111562000325576200032462000206565b5b92915050565b6080516114b162000355600039600081816105cc01528181610793015261091a01526114b16000f3fe608060405234801561001057600080fd5b50600436106100ff5760003560e01c80637519ab5011610097578063b6b55f2511610066578063b6b55f251461027a578063b88a802f14610296578063cd3daf9d146102a0578063d91de40a146102be576100ff565b80637519ab50146101de5780637b0a47ee146101fc5780638b8763471461021a578063af46aa081461024a576100ff565b80632f3b6ad3116100d35780632f3b6ad31461017a5780633ccfd60b1461019857806367d3b488146101a25780636d153cb1146101c0576100ff565b8062882442146101045780630700037d1461010e5780630fb5a6b41461013e57806318160ddd1461015c575b600080fd5b61010c6102ee565b005b61012860048036038101906101239190610f0d565b6104bc565b6040516101359190610f53565b60405180910390f35b6101466104d4565b6040516101539190610f53565b60405180910390f35b6101646104da565b6040516101719190610f53565b60405180910390f35b6101826104e0565b60405161018f9190610f53565b60405180910390f35b6101a06104e6565b005b6101aa61078b565b6040516101b79190610f53565b60405180910390f35b6101c8610791565b6040516101d59190610fcd565b60405180910390f35b6101e66107b5565b6040516101f39190610f53565b60405180910390f35b6102046107bb565b6040516102119190610f53565b60405180910390f35b610234600480360381019061022f9190610f0d565b6107c1565b6040516102419190610f53565b60405180910390f35b610264600480360381019061025f9190610f0d565b6107d9565b6040516102719190610f53565b60405180910390f35b610294600480360381019061028f9190611014565b6107f1565b005b61029e610a7a565b005b6102a8610d1e565b6040516102b59190610f53565b60405180910390f35b6102d860048036038101906102d39190610f0d565b610d24565b6040516102e59190610f53565b60405180910390f35b60008054906101000a900473ffffffffffffffffffffffffffffffffffffffff1673ffffffffffffffffffffffffffffffffffffffff163373ffffffffffffffffffffffffffffffffffffffff161461037c576040517f08c379a0000000000000000000000000000000000000000000000000000000008152600401610373906110c4565b60405180910390fd5b60035442116103c0576040517f08c379a00000000000000000000000000000000000000000000000000000000081526004016103b790611130565b60405180910390fd5b60008060009054906101000a900473ffffffffffffffffffffffffffffffffffffffff1673ffffffffffffffffffffffffffffffffffffffff164760405161040790611181565b60006040518083038185875af1925050503d8060008114610444576040519150601f19603f3d011682016040523d82523d6000602084013e610449565b606091505b505090508061048d576040517f08c379a0000000000000000000000000000000000000000000000000000000008152600401610484906111e2565b60405180910390fd5b7fe007339840c4e4afd03253f3dd3d52a230ff107abe2db735e4c6cb04f6a510f660405160405180910390a150565b60096020528060005260406000206000915090505481565b60025481565b60075481565b60015481565b336104ef610e26565b6006819055506104fd610e8f565b600481905550600073ffffffffffffffffffffffffffffffffffffffff168173ffffffffffffffffffffffffffffffffffffffff16146105ca5761054081610d24565b600960008373ffffffffffffffffffffffffffffffffffffffff1673ffffffffffffffffffffffffffffffffffffffff16815260200190815260200160002081905550600654600860008373ffffffffffffffffffffffffffffffffffffffff1673ffffffffffffffffffffffffffffffffffffffff168152602001908152602001600020819055505b7f000000000000000000000000000000000000000000000000000000000000000073ffffffffffffffffffffffffffffffffffffffff1663a9059cbb33600a60003373ffffffffffffffffffffffffffffffffffffffff1673ffffffffffffffffffffffffffffffffffffffff168152602001908152602001600020546040518363ffffffff1660e01b8152600401610664929190611211565b6020604051808303816000875af1158015610683573d6000803e3d6000fd5b505050506040513d601f19601f820116820180604052508101906106a79190611272565b50600a60003373ffffffffffffffffffffffffffffffffffffffff1673ffffffffffffffffffffffffffffffffffffffff16815260200190815260200160002054600760008282546106f991906112ce565b925050819055506000600a60003373ffffffffffffffffffffffffffffffffffffffff1673ffffffffffffffffffffffffffffffffffffffff168152602001908152602001600020819055503373ffffffffffffffffffffffffffffffffffffffff167ff67611512e0a2d90c96fd3f08dca4971bc45fba9dc679eabe839a32abbe58a8e60405160405180910390a250565b60035481565b7f000000000000000000000000000000000000000000000000000000000000000081565b60045481565b60055481565b60086020528060005260406000206000915090505481565b600a6020528060005260406000206000915090505481565b336107fa610e26565b600681905550610808610e8f565b600481905550600073ffffffffffffffffffffffffffffffffffffffff168173ffffffffffffffffffffffffffffffffffffffff16146108d55761084b81610d24565b600960008373ffffffffffffffffffffffffffffffffffffffff1673ffffffffffffffffffffffffffffffffffffffff16815260200190815260200160002081905550600654600860008373ffffffffffffffffffffffffffffffffffffffff1673ffffffffffffffffffffffffffffffffffffffff168152602001908152602001600020819055505b60008211610918576040517f08c379a000000000000000000000000000000000000000000000000000000000815260040161090f9061134e565b60405180910390fd5b7f000000000000000000000000000000000000000000000000000000000000000073ffffffffffffffffffffffffffffffffffffffff166323b872dd3330856040518463ffffffff1660e01b81526004016109759392919061136e565b6020604051808303816000875af1158015610994573d6000803e3d6000fd5b505050506040513d601f19601f820116820180604052508101906109b89190611272565b5081600a60003373ffffffffffffffffffffffffffffffffffffffff1673ffffffffffffffffffffffffffffffffffffffff1681526020019081526020016000206000828254610a0891906113a5565b925050819055508160076000828254610a2191906113a5565b925050819055503373ffffffffffffffffffffffffffffffffffffffff167fe1fffcc4923d04b559f4d29a8bfc6cda04eb5b0d3c460751c2402c5c5cc9109c83604051610a6e9190610f53565b60405180910390a25050565b33610a83610e26565b600681905550610a91610e8f565b600481905550600073ffffffffffffffffffffffffffffffffffffffff168173ffffffffffffffffffffffffffffffffffffffff1614610b5e57610ad481610d24565b600960008373ffffffffffffffffffffffffffffffffffffffff1673ffffffffffffffffffffffffffffffffffffffff16815260200190815260200160002081905550600654600860008373ffffffffffffffffffffffffffffffffffffffff1673ffffffffffffffffffffffffffffffffffffffff168152602001908152602001600020819055505b6000600960003373ffffffffffffffffffffffffffffffffffffffff1673ffffffffffffffffffffffffffffffffffffffff168152602001908152602001600020541115610cd85760003373ffffffffffffffffffffffffffffffffffffffff16600960003373ffffffffffffffffffffffffffffffffffffffff1673ffffffffffffffffffffffffffffffffffffffff16815260200190815260200160002054604051610c0b90611181565b60006040518083038185875af1925050503d8060008114610c48576040519150601f19603f3d011682016040523d82523d6000602084013e610c4d565b606091505b5050905080610c91576040517f08c379a0000000000000000000000000000000000000000000000000000000008152600401610c88906111e2565b60405180910390fd5b6000600960003373ffffffffffffffffffffffffffffffffffffffff1673ffffffffffffffffffffffffffffffffffffffff16815260200190815260200160002081905550505b3373ffffffffffffffffffffffffffffffffffffffff167fea61a2a22523394f29506de20cc9db2e881f096477982d51012058ec9032714a60405160405180910390a250565b60065481565b6000670de0b6b3a7640000600860008473ffffffffffffffffffffffffffffffffffffffff1673ffffffffffffffffffffffffffffffffffffffff16815260200190815260200160002054610d77610e26565b610d8191906112ce565b600a60008573ffffffffffffffffffffffffffffffffffffffff1673ffffffffffffffffffffffffffffffffffffffff16815260200190815260200160002054610dcb91906113d9565b610dd5919061144a565b600960008473ffffffffffffffffffffffffffffffffffffffff1673ffffffffffffffffffffffffffffffffffffffff16815260200190815260200160002054610e1f91906113a5565b9050919050565b60008060075403610e3a5760009050610e8c565b600754670de0b6b3a7640000600454610e51610e8f565b610e5b91906112ce565b600554610e6891906113d9565b610e7291906113d9565b610e7c919061144a565b600654610e8991906113a5565b90505b90565b6000426003541115610ea15742610ea5565b6003545b905090565b600080fd5b600073ffffffffffffffffffffffffffffffffffffffff82169050919050565b6000610eda82610eaf565b9050919050565b610eea81610ecf565b8114610ef557600080fd5b50565b600081359050610f0781610ee1565b92915050565b600060208284031215610f2357610f22610eaa565b5b6000610f3184828501610ef8565b91505092915050565b6000819050919050565b610f4d81610f3a565b82525050565b6000602082019050610f686000830184610f44565b92915050565b6000819050919050565b6000610f93610f8e610f8984610eaf565b610f6e565b610eaf565b9050919050565b6000610fa582610f78565b9050919050565b6000610fb782610f9a565b9050919050565b610fc781610fac565b82525050565b6000602082019050610fe26000830184610fbe565b92915050565b610ff181610f3a565b8114610ffc57600080fd5b50565b60008135905061100e81610fe8565b92915050565b60006020828403121561102a57611029610eaa565b5b600061103884828501610fff565b91505092915050565b600082825260208201905092915050565b7f4f6e6c79206f776e65722063616e207472616e7366657220756e636c61696d6560008201527f6420726577617264730000000000000000000000000000000000000000000000602082015250565b60006110ae602983611041565b91506110b982611052565b604082019050919050565b600060208201905081810360008301526110dd816110a1565b9050919050565b7f546865207374616b696e67206973206e6f742066696e69736865642079657400600082015250565b600061111a601f83611041565b9150611125826110e4565b602082019050919050565b600060208201905081810360008301526111498161110d565b9050919050565b600081905092915050565b50565b600061116b600083611150565b91506111768261115b565b600082019050919050565b600061118c8261115e565b9150819050919050565b7f4661696c656420746f2073656e64204574686572000000000000000000000000600082015250565b60006111cc601483611041565b91506111d782611196565b602082019050919050565b600060208201905081810360008301526111fb816111bf565b9050919050565b61120b81610ecf565b82525050565b60006040820190506112266000830185611202565b6112336020830184610f44565b9392505050565b60008115159050919050565b61124f8161123a565b811461125a57600080fd5b50565b60008151905061126c81611246565b92915050565b60006020828403121561128857611287610eaa565b5b60006112968482850161125d565b91505092915050565b7f4e487b7100000000000000000000000000000000000000000000000000000000600052601160045260246000fd5b60006112d982610f3a565b91506112e483610f3a565b92508282039050818111156112fc576112fb61129f565b5b92915050565b7f616d6f756e74203d203000000000000000000000000000000000000000000000600082015250565b6000611338600a83611041565b915061134382611302565b602082019050919050565b600060208201905081810360008301526113678161132b565b9050919050565b60006060820190506113836000830186611202565b6113906020830185611202565b61139d6040830184610f44565b949350505050565b60006113b082610f3a565b91506113bb83610f3a565b92508282019050808211156113d3576113d261129f565b5b92915050565b60006113e482610f3a565b91506113ef83610f3a565b92508282026113fd81610f3a565b915082820484148315176114145761141361129f565b5b5092915050565b7f4e487b7100000000000000000000000000000000000000000000000000000000600052601260045260246000fd5b600061145582610f3a565b915061146083610f3a565b9250826114705761146f61141b565b5b82820490509291505056fea2646970667358221220f69d84d51263843f763d72fbd6f696d7d006d6c3f4284e4061b1e799c924e1b364736f6c63430008120033",
  "linkReferences": {},
  "deployedLinkReferences": {}
}