{
  "_format": "hh-sol-artifact-1",
  "contractName": "ArkaStaking",
  "sourceName": "contracts/ArkaStaking.sol",
  "abi": [
    {
      "inputs": [
        {
          "internalType": "address",
          "name": "_stakingToken",
          "type": "address"
        }
      ],
      "stateMutability": "payable",
      "type": "constructor"
    },
    {
      "anonymous": false,
      "inputs": [
        {
          "indexed": true,
          "internalType": "address",
          "name": "user",
          "type": "address"
        },
        {
          "indexed": false,
          "internalType": "uint256",
          "name": "amount",
          "type": "uint256"
        }
      ],
      "name": "NewStake",
      "type": "event"
    },
    {
      "anonymous": false,
      "inputs": [
        {
          "indexed": true,
          "internalType": "address",
          "name": "previousOwner",
          "type": "address"
        },
        {
          "indexed": true,
          "internalType": "address",
          "name": "newOwner",
          "type": "address"
        }
      ],
      "name": "OwnershipTransferred",
      "type": "event"
    },
    {
      "anonymous": false,
      "inputs": [
        {
          "indexed": true,
          "internalType": "address",
          "name": "user",
          "type": "address"
        },
        {
          "indexed": false,
          "internalType": "uint256",
          "name": "reward",
          "type": "uint256"
        }
      ],
      "name": "RewardPaid",
      "type": "event"
    },
    {
      "anonymous": false,
      "inputs": [
        {
          "indexed": false,
          "internalType": "uint256",
          "name": "newDuration",
          "type": "uint256"
        }
      ],
      "name": "RewardsDurationUpdated",
      "type": "event"
    },
    {
      "anonymous": false,
      "inputs": [
        {
          "indexed": true,
          "internalType": "address",
          "name": "user",
          "type": "address"
        },
        {
          "indexed": false,
          "internalType": "uint256",
          "name": "amount",
          "type": "uint256"
        }
      ],
      "name": "StakeInitiated",
      "type": "event"
    },
    {
      "anonymous": false,
      "inputs": [
        {
          "indexed": true,
          "internalType": "address",
          "name": "user",
          "type": "address"
        },
        {
          "indexed": false,
          "internalType": "uint256",
          "name": "amount",
          "type": "uint256"
        }
      ],
      "name": "StakeWithdrawn",
      "type": "event"
    },
    {
      "inputs": [],
      "name": "amountReward",
      "outputs": [
        {
          "internalType": "uint256",
          "name": "",
          "type": "uint256"
        }
      ],
      "stateMutability": "view",
      "type": "function"
    },
    {
      "inputs": [],
      "name": "arkaToken",
      "outputs": [
        {
          "internalType": "contract IERC20",
          "name": "",
          "type": "address"
        }
      ],
      "stateMutability": "view",
      "type": "function"
    },
    {
      "inputs": [
        {
          "internalType": "address",
          "name": "_account",
          "type": "address"
        }
      ],
      "name": "calculateRewardForAccount",
      "outputs": [
        {
          "internalType": "uint256",
          "name": "",
          "type": "uint256"
        }
      ],
      "stateMutability": "view",
      "type": "function"
    },
    {
      "inputs": [],
      "name": "calculateRewardPerToken",
      "outputs": [
        {
          "internalType": "uint256",
          "name": "",
          "type": "uint256"
        }
      ],
      "stateMutability": "view",
      "type": "function"
    },
    {
      "inputs": [],
      "name": "claimReward",
      "outputs": [],
      "stateMutability": "nonpayable",
      "type": "function"
    },
    {
      "inputs": [
        {
          "internalType": "uint256",
          "name": "_amount",
          "type": "uint256"
        }
      ],
      "name": "deposit",
      "outputs": [],
      "stateMutability": "nonpayable",
      "type": "function"
    },
    {
      "inputs": [],
      "name": "duration",
      "outputs": [
        {
          "internalType": "uint256",
          "name": "",
          "type": "uint256"
        }
      ],
      "stateMutability": "view",
      "type": "function"
    },
    {
      "inputs": [],
      "name": "finishAt",
      "outputs": [
        {
          "internalType": "uint256",
          "name": "",
          "type": "uint256"
        }
      ],
      "stateMutability": "view",
      "type": "function"
    },
    {
      "inputs": [],
      "name": "lastTimeRewardApplicable",
      "outputs": [
        {
          "internalType": "uint256",
          "name": "",
          "type": "uint256"
        }
      ],
      "stateMutability": "view",
      "type": "function"
    },
    {
      "inputs": [],
      "name": "owner",
      "outputs": [
        {
          "internalType": "address",
          "name": "",
          "type": "address"
        }
      ],
      "stateMutability": "view",
      "type": "function"
    },
    {
      "inputs": [],
      "name": "renounceOwnership",
      "outputs": [],
      "stateMutability": "nonpayable",
      "type": "function"
    },
    {
      "inputs": [],
      "name": "rewardPerToken",
      "outputs": [
        {
          "internalType": "uint256",
          "name": "",
          "type": "uint256"
        }
      ],
      "stateMutability": "view",
      "type": "function"
    },
    {
      "inputs": [],
      "name": "rewardRate",
      "outputs": [
        {
          "internalType": "uint256",
          "name": "",
          "type": "uint256"
        }
      ],
      "stateMutability": "view",
      "type": "function"
    },
    {
      "inputs": [
        {
          "internalType": "address",
          "name": "",
          "type": "address"
        }
      ],
      "name": "rewards",
      "outputs": [
        {
          "internalType": "uint256",
          "name": "",
          "type": "uint256"
        }
      ],
      "stateMutability": "view",
      "type": "function"
    },
    {
      "inputs": [
        {
          "internalType": "address",
          "name": "",
          "type": "address"
        }
      ],
      "name": "stakeBalanceOf",
      "outputs": [
        {
          "internalType": "uint256",
          "name": "",
          "type": "uint256"
        }
      ],
      "stateMutability": "view",
      "type": "function"
    },
    {
      "inputs": [],
      "name": "totalSupply",
      "outputs": [
        {
          "internalType": "uint256",
          "name": "",
          "type": "uint256"
        }
      ],
      "stateMutability": "view",
      "type": "function"
    },
    {
      "inputs": [
        {
          "internalType": "address",
          "name": "newOwner",
          "type": "address"
        }
      ],
      "name": "transferOwnership",
      "outputs": [],
      "stateMutability": "nonpayable",
      "type": "function"
    },
    {
      "inputs": [],
      "name": "updatedAt",
      "outputs": [
        {
          "internalType": "uint256",
          "name": "",
          "type": "uint256"
        }
      ],
      "stateMutability": "view",
      "type": "function"
    },
    {
      "inputs": [
        {
          "internalType": "address",
          "name": "",
          "type": "address"
        }
      ],
      "name": "userRewardPerTokenPaid",
      "outputs": [
        {
          "internalType": "uint256",
          "name": "",
          "type": "uint256"
        }
      ],
      "stateMutability": "view",
      "type": "function"
    },
    {
      "inputs": [],
      "name": "withdraw",
      "outputs": [],
      "stateMutability": "nonpayable",
      "type": "function"
    }
  ],
  "bytecode": "0x60a06040526040516200194338038062001943833981810160405281019062000029919062000248565b620000496200003d6200011260201b60201c565b6200011a60201b60201c565b8073ffffffffffffffffffffffffffffffffffffffff1660808173ffffffffffffffffffffffffffffffffffffffff168152505062093a8060028190555034600181905550600254600154620000a09190620002e2565b600581905550600060055411620000ee576040517f08c379a0000000000000000000000000000000000000000000000000000000008152600401620000e5906200037b565b60405180910390fd5b60025442620000fe91906200039d565b6003819055504260048190555050620003d8565b600033905090565b60008060009054906101000a900473ffffffffffffffffffffffffffffffffffffffff169050816000806101000a81548173ffffffffffffffffffffffffffffffffffffffff021916908373ffffffffffffffffffffffffffffffffffffffff1602179055508173ffffffffffffffffffffffffffffffffffffffff168173ffffffffffffffffffffffffffffffffffffffff167f8be0079c531659141344cd1fd0a4f28419497f9722a3daafe3b4186f6b6457e060405160405180910390a35050565b600080fd5b600073ffffffffffffffffffffffffffffffffffffffff82169050919050565b60006200021082620001e3565b9050919050565b620002228162000203565b81146200022e57600080fd5b50565b600081519050620002428162000217565b92915050565b600060208284031215620002615762000260620001de565b5b6000620002718482850162000231565b91505092915050565b6000819050919050565b7f4e487b7100000000000000000000000000000000000000000000000000000000600052601260045260246000fd5b7f4e487b7100000000000000000000000000000000000000000000000000000000600052601160045260246000fd5b6000620002ef826200027a565b9150620002fc836200027a565b9250826200030f576200030e62000284565b5b828204905092915050565b600082825260208201905092915050565b7f7265776172642072617465203d20300000000000000000000000000000000000600082015250565b600062000363600f836200031a565b915062000370826200032b565b602082019050919050565b60006020820190508181036000830152620003968162000354565b9050919050565b6000620003aa826200027a565b9150620003b7836200027a565b9250828201905080821115620003d257620003d1620002b3565b5b92915050565b60805161154162000402600039600081816104a10152818161068e01526108e101526115416000f3fe608060405234801561001057600080fd5b506004361061012c5760003560e01c80637b0a47ee116100ad578063b6b55f2511610071578063b6b55f2514610301578063b88a802f1461031d578063cd3daf9d14610327578063d91de40a14610345578063f2fde38b146103755761012c565b80637b0a47ee1461024757806380faa57d146102655780638b876347146102835780638da5cb5b146102b3578063af46aa08146102d15761012c565b8063639793fa116100f4578063639793fa146101c557806367d3b488146101e35780636d153cb114610201578063715018a61461021f5780637519ab50146102295761012c565b80630700037d146101315780630fb5a6b41461016157806318160ddd1461017f5780632f3b6ad31461019d5780633ccfd60b146101bb575b600080fd5b61014b60048036038101906101469190610f82565b610391565b6040516101589190610fc8565b60405180910390f35b6101696103a9565b6040516101769190610fc8565b60405180910390f35b6101876103af565b6040516101949190610fc8565b60405180910390f35b6101a56103b5565b6040516101b29190610fc8565b60405180910390f35b6101c36103bb565b005b6101cd61061d565b6040516101da9190610fc8565b60405180910390f35b6101eb610686565b6040516101f89190610fc8565b60405180910390f35b61020961068c565b6040516102169190611042565b60405180910390f35b6102276106b0565b005b610231610738565b60405161023e9190610fc8565b60405180910390f35b61024f61073e565b60405161025c9190610fc8565b60405180910390f35b61026d610744565b60405161027a9190610fc8565b60405180910390f35b61029d60048036038101906102989190610f82565b61075f565b6040516102aa9190610fc8565b60405180910390f35b6102bb610777565b6040516102c8919061106c565b60405180910390f35b6102eb60048036038101906102e69190610f82565b6107a0565b6040516102f89190610fc8565b60405180910390f35b61031b600480360381019061031691906110b3565b6107b8565b005b6103256109f3565b005b61032f610c54565b60405161033c9190610fc8565b60405180910390f35b61035f600480360381019061035a9190610f82565b610c5a565b60405161036c9190610fc8565b60405180910390f35b61038f600480360381019061038a9190610f82565b610d5c565b005b60096020528060005260406000206000915090505481565b60025481565b60075481565b60015481565b336103c461061d565b6006819055506103d2610744565b600481905550600073ffffffffffffffffffffffffffffffffffffffff168173ffffffffffffffffffffffffffffffffffffffff161461049f5761041581610c5a565b600960008373ffffffffffffffffffffffffffffffffffffffff1673ffffffffffffffffffffffffffffffffffffffff16815260200190815260200160002081905550600654600860008373ffffffffffffffffffffffffffffffffffffffff1673ffffffffffffffffffffffffffffffffffffffff168152602001908152602001600020819055505b7f000000000000000000000000000000000000000000000000000000000000000073ffffffffffffffffffffffffffffffffffffffff1663a9059cbb33600a60003373ffffffffffffffffffffffffffffffffffffffff1673ffffffffffffffffffffffffffffffffffffffff168152602001908152602001600020546040518363ffffffff1660e01b81526004016105399291906110e0565b6020604051808303816000875af1158015610558573d6000803e3d6000fd5b505050506040513d601f19601f8201168201806040525081019061057c9190611141565b50600a60003373ffffffffffffffffffffffffffffffffffffffff1673ffffffffffffffffffffffffffffffffffffffff16815260200190815260200160002054600760008282546105ce919061119d565b925050819055506000600a60003373ffffffffffffffffffffffffffffffffffffffff1673ffffffffffffffffffffffffffffffffffffffff1681526020019081526020016000208190555050565b600080600754036106315760009050610683565b600754670de0b6b3a7640000600454610648610744565b610652919061119d565b60055461065f91906111d1565b61066991906111d1565b6106739190611242565b6006546106809190611273565b90505b90565b60035481565b7f000000000000000000000000000000000000000000000000000000000000000081565b6106b8610e53565b73ffffffffffffffffffffffffffffffffffffffff166106d6610777565b73ffffffffffffffffffffffffffffffffffffffff161461072c576040517f08c379a000000000000000000000000000000000000000000000000000000000815260040161072390611304565b60405180910390fd5b6107366000610e5b565b565b60045481565b60055481565b6000426003541115610756574261075a565b6003545b905090565b60086020528060005260406000206000915090505481565b60008060009054906101000a900473ffffffffffffffffffffffffffffffffffffffff16905090565b600a6020528060005260406000206000915090505481565b336107c161061d565b6006819055506107cf610744565b600481905550600073ffffffffffffffffffffffffffffffffffffffff168173ffffffffffffffffffffffffffffffffffffffff161461089c5761081281610c5a565b600960008373ffffffffffffffffffffffffffffffffffffffff1673ffffffffffffffffffffffffffffffffffffffff16815260200190815260200160002081905550600654600860008373ffffffffffffffffffffffffffffffffffffffff1673ffffffffffffffffffffffffffffffffffffffff168152602001908152602001600020819055505b600082116108df576040517f08c379a00000000000000000000000000000000000000000000000000000000081526004016108d690611370565b60405180910390fd5b7f000000000000000000000000000000000000000000000000000000000000000073ffffffffffffffffffffffffffffffffffffffff166323b872dd3330856040518463ffffffff1660e01b815260040161093c93929190611390565b6020604051808303816000875af115801561095b573d6000803e3d6000fd5b505050506040513d601f19601f8201168201806040525081019061097f9190611141565b5081600a60003373ffffffffffffffffffffffffffffffffffffffff1673ffffffffffffffffffffffffffffffffffffffff16815260200190815260200160002060008282546109cf9190611273565b9250508190555081600760008282546109e89190611273565b925050819055505050565b336109fc61061d565b600681905550610a0a610744565b600481905550600073ffffffffffffffffffffffffffffffffffffffff168173ffffffffffffffffffffffffffffffffffffffff1614610ad757610a4d81610c5a565b600960008373ffffffffffffffffffffffffffffffffffffffff1673ffffffffffffffffffffffffffffffffffffffff16815260200190815260200160002081905550600654600860008373ffffffffffffffffffffffffffffffffffffffff1673ffffffffffffffffffffffffffffffffffffffff168152602001908152602001600020819055505b6000600960003373ffffffffffffffffffffffffffffffffffffffff1673ffffffffffffffffffffffffffffffffffffffff168152602001908152602001600020541115610c515760003373ffffffffffffffffffffffffffffffffffffffff16600960003373ffffffffffffffffffffffffffffffffffffffff1673ffffffffffffffffffffffffffffffffffffffff16815260200190815260200160002054604051610b84906113f8565b60006040518083038185875af1925050503d8060008114610bc1576040519150601f19603f3d011682016040523d82523d6000602084013e610bc6565b606091505b5050905080610c0a576040517f08c379a0000000000000000000000000000000000000000000000000000000008152600401610c0190611459565b60405180910390fd5b6000600960003373ffffffffffffffffffffffffffffffffffffffff1673ffffffffffffffffffffffffffffffffffffffff16815260200190815260200160002081905550505b50565b60065481565b6000670de0b6b3a7640000600860008473ffffffffffffffffffffffffffffffffffffffff1673ffffffffffffffffffffffffffffffffffffffff16815260200190815260200160002054610cad61061d565b610cb7919061119d565b600a60008573ffffffffffffffffffffffffffffffffffffffff1673ffffffffffffffffffffffffffffffffffffffff16815260200190815260200160002054610d0191906111d1565b610d0b9190611242565b600960008473ffffffffffffffffffffffffffffffffffffffff1673ffffffffffffffffffffffffffffffffffffffff16815260200190815260200160002054610d559190611273565b9050919050565b610d64610e53565b73ffffffffffffffffffffffffffffffffffffffff16610d82610777565b73ffffffffffffffffffffffffffffffffffffffff1614610dd8576040517f08c379a0000000000000000000000000000000000000000000000000000000008152600401610dcf90611304565b60405180910390fd5b600073ffffffffffffffffffffffffffffffffffffffff168173ffffffffffffffffffffffffffffffffffffffff1603610e47576040517f08c379a0000000000000000000000000000000000000000000000000000000008152600401610e3e906114eb565b60405180910390fd5b610e5081610e5b565b50565b600033905090565b60008060009054906101000a900473ffffffffffffffffffffffffffffffffffffffff169050816000806101000a81548173ffffffffffffffffffffffffffffffffffffffff021916908373ffffffffffffffffffffffffffffffffffffffff1602179055508173ffffffffffffffffffffffffffffffffffffffff168173ffffffffffffffffffffffffffffffffffffffff167f8be0079c531659141344cd1fd0a4f28419497f9722a3daafe3b4186f6b6457e060405160405180910390a35050565b600080fd5b600073ffffffffffffffffffffffffffffffffffffffff82169050919050565b6000610f4f82610f24565b9050919050565b610f5f81610f44565b8114610f6a57600080fd5b50565b600081359050610f7c81610f56565b92915050565b600060208284031215610f9857610f97610f1f565b5b6000610fa684828501610f6d565b91505092915050565b6000819050919050565b610fc281610faf565b82525050565b6000602082019050610fdd6000830184610fb9565b92915050565b6000819050919050565b6000611008611003610ffe84610f24565b610fe3565b610f24565b9050919050565b600061101a82610fed565b9050919050565b600061102c8261100f565b9050919050565b61103c81611021565b82525050565b60006020820190506110576000830184611033565b92915050565b61106681610f44565b82525050565b6000602082019050611081600083018461105d565b92915050565b61109081610faf565b811461109b57600080fd5b50565b6000813590506110ad81611087565b92915050565b6000602082840312156110c9576110c8610f1f565b5b60006110d78482850161109e565b91505092915050565b60006040820190506110f5600083018561105d565b6111026020830184610fb9565b9392505050565b60008115159050919050565b61111e81611109565b811461112957600080fd5b50565b60008151905061113b81611115565b92915050565b60006020828403121561115757611156610f1f565b5b60006111658482850161112c565b91505092915050565b7f4e487b7100000000000000000000000000000000000000000000000000000000600052601160045260246000fd5b60006111a882610faf565b91506111b383610faf565b92508282039050818111156111cb576111ca61116e565b5b92915050565b60006111dc82610faf565b91506111e783610faf565b92508282026111f581610faf565b9150828204841483151761120c5761120b61116e565b5b5092915050565b7f4e487b7100000000000000000000000000000000000000000000000000000000600052601260045260246000fd5b600061124d82610faf565b915061125883610faf565b92508261126857611267611213565b5b828204905092915050565b600061127e82610faf565b915061128983610faf565b92508282019050808211156112a1576112a061116e565b5b92915050565b600082825260208201905092915050565b7f4f776e61626c653a2063616c6c6572206973206e6f7420746865206f776e6572600082015250565b60006112ee6020836112a7565b91506112f9826112b8565b602082019050919050565b6000602082019050818103600083015261131d816112e1565b9050919050565b7f616d6f756e74203d203000000000000000000000000000000000000000000000600082015250565b600061135a600a836112a7565b915061136582611324565b602082019050919050565b600060208201905081810360008301526113898161134d565b9050919050565b60006060820190506113a5600083018661105d565b6113b2602083018561105d565b6113bf6040830184610fb9565b949350505050565b600081905092915050565b50565b60006113e26000836113c7565b91506113ed826113d2565b600082019050919050565b6000611403826113d5565b9150819050919050565b7f4661696c656420746f2073656e64204574686572000000000000000000000000600082015250565b60006114436014836112a7565b915061144e8261140d565b602082019050919050565b6000602082019050818103600083015261147281611436565b9050919050565b7f4f776e61626c653a206e6577206f776e657220697320746865207a65726f206160008201527f6464726573730000000000000000000000000000000000000000000000000000602082015250565b60006114d56026836112a7565b91506114e082611479565b604082019050919050565b60006020820190508181036000830152611504816114c8565b905091905056fea264697066735822122059c952f73f7de67b2cf658994bf8c9ce852bae392cb83f94431ce5ff8e52e90964736f6c63430008120033",
  "linkReferences": {},
  "deployedLinkReferences": {}
}