{
  "_format": "hh-sol-artifact-1",
  "contractName": "ArkaStaking",
  "sourceName": "contracts/ArkaStaking.sol",
  "abi": [
    {
      "inputs": [
        {
          "internalType": "address",
          "name": "_stakingToken",
          "type": "address"
        }
      ],
      "stateMutability": "payable",
      "type": "constructor"
    },
    {
      "anonymous": false,
      "inputs": [
        {
          "indexed": true,
          "internalType": "address",
          "name": "user",
          "type": "address"
        },
        {
          "indexed": false,
          "internalType": "uint256",
          "name": "amount",
          "type": "uint256"
        }
      ],
      "name": "NewStake",
      "type": "event"
    },
    {
      "anonymous": false,
      "inputs": [
        {
          "indexed": true,
          "internalType": "address",
          "name": "previousOwner",
          "type": "address"
        },
        {
          "indexed": true,
          "internalType": "address",
          "name": "newOwner",
          "type": "address"
        }
      ],
      "name": "OwnershipTransferred",
      "type": "event"
    },
    {
      "anonymous": false,
      "inputs": [
        {
          "indexed": true,
          "internalType": "address",
          "name": "user",
          "type": "address"
        },
        {
          "indexed": false,
          "internalType": "uint256",
          "name": "reward",
          "type": "uint256"
        }
      ],
      "name": "RewardPaid",
      "type": "event"
    },
    {
      "anonymous": false,
      "inputs": [
        {
          "indexed": false,
          "internalType": "uint256",
          "name": "newDuration",
          "type": "uint256"
        }
      ],
      "name": "RewardsDurationUpdated",
      "type": "event"
    },
    {
      "anonymous": false,
      "inputs": [
        {
          "indexed": true,
          "internalType": "address",
          "name": "user",
          "type": "address"
        },
        {
          "indexed": false,
          "internalType": "uint256",
          "name": "amount",
          "type": "uint256"
        }
      ],
      "name": "StakeInitiated",
      "type": "event"
    },
    {
      "anonymous": false,
      "inputs": [
        {
          "indexed": true,
          "internalType": "address",
          "name": "user",
          "type": "address"
        },
        {
          "indexed": false,
          "internalType": "uint256",
          "name": "amount",
          "type": "uint256"
        }
      ],
      "name": "StakeWithdrawn",
      "type": "event"
    },
    {
      "inputs": [],
      "name": "amountReward",
      "outputs": [
        {
          "internalType": "uint256",
          "name": "",
          "type": "uint256"
        }
      ],
      "stateMutability": "view",
      "type": "function"
    },
    {
      "inputs": [],
      "name": "arkaToken",
      "outputs": [
        {
          "internalType": "contract IERC20",
          "name": "",
          "type": "address"
        }
      ],
      "stateMutability": "view",
      "type": "function"
    },
    {
      "inputs": [
        {
          "internalType": "address",
          "name": "_account",
          "type": "address"
        }
      ],
      "name": "calculateRewardForAccount",
      "outputs": [
        {
          "internalType": "uint256",
          "name": "",
          "type": "uint256"
        }
      ],
      "stateMutability": "view",
      "type": "function"
    },
    {
      "inputs": [],
      "name": "claimReward",
      "outputs": [],
      "stateMutability": "nonpayable",
      "type": "function"
    },
    {
      "inputs": [
        {
          "internalType": "uint256",
          "name": "_amount",
          "type": "uint256"
        }
      ],
      "name": "deposit",
      "outputs": [],
      "stateMutability": "nonpayable",
      "type": "function"
    },
    {
      "inputs": [],
      "name": "duration",
      "outputs": [
        {
          "internalType": "uint256",
          "name": "",
          "type": "uint256"
        }
      ],
      "stateMutability": "view",
      "type": "function"
    },
    {
      "inputs": [],
      "name": "finishAt",
      "outputs": [
        {
          "internalType": "uint256",
          "name": "",
          "type": "uint256"
        }
      ],
      "stateMutability": "view",
      "type": "function"
    },
    {
      "inputs": [],
      "name": "owner",
      "outputs": [
        {
          "internalType": "address",
          "name": "",
          "type": "address"
        }
      ],
      "stateMutability": "view",
      "type": "function"
    },
    {
      "inputs": [],
      "name": "renounceOwnership",
      "outputs": [],
      "stateMutability": "nonpayable",
      "type": "function"
    },
    {
      "inputs": [],
      "name": "rewardPerToken",
      "outputs": [
        {
          "internalType": "uint256",
          "name": "",
          "type": "uint256"
        }
      ],
      "stateMutability": "view",
      "type": "function"
    },
    {
      "inputs": [],
      "name": "rewardRate",
      "outputs": [
        {
          "internalType": "uint256",
          "name": "",
          "type": "uint256"
        }
      ],
      "stateMutability": "view",
      "type": "function"
    },
    {
      "inputs": [
        {
          "internalType": "address",
          "name": "",
          "type": "address"
        }
      ],
      "name": "rewards",
      "outputs": [
        {
          "internalType": "uint256",
          "name": "",
          "type": "uint256"
        }
      ],
      "stateMutability": "view",
      "type": "function"
    },
    {
      "inputs": [
        {
          "internalType": "address",
          "name": "",
          "type": "address"
        }
      ],
      "name": "stakeBalanceOf",
      "outputs": [
        {
          "internalType": "uint256",
          "name": "",
          "type": "uint256"
        }
      ],
      "stateMutability": "view",
      "type": "function"
    },
    {
      "inputs": [],
      "name": "totalSupply",
      "outputs": [
        {
          "internalType": "uint256",
          "name": "",
          "type": "uint256"
        }
      ],
      "stateMutability": "view",
      "type": "function"
    },
    {
      "inputs": [
        {
          "internalType": "address",
          "name": "newOwner",
          "type": "address"
        }
      ],
      "name": "transferOwnership",
      "outputs": [],
      "stateMutability": "nonpayable",
      "type": "function"
    },
    {
      "inputs": [],
      "name": "transferUnclaimedReward",
      "outputs": [],
      "stateMutability": "nonpayable",
      "type": "function"
    },
    {
      "inputs": [],
      "name": "updatedAt",
      "outputs": [
        {
          "internalType": "uint256",
          "name": "",
          "type": "uint256"
        }
      ],
      "stateMutability": "view",
      "type": "function"
    },
    {
      "inputs": [
        {
          "internalType": "address",
          "name": "",
          "type": "address"
        }
      ],
      "name": "userRewardPerTokenPaid",
      "outputs": [
        {
          "internalType": "uint256",
          "name": "",
          "type": "uint256"
        }
      ],
      "stateMutability": "view",
      "type": "function"
    },
    {
      "inputs": [],
      "name": "withdraw",
      "outputs": [],
      "stateMutability": "nonpayable",
      "type": "function"
    }
  ],
  "bytecode": "0x60a060405260405162001ae738038062001ae7833981810160405281019062000029919062000248565b620000496200003d6200011260201b60201c565b6200011a60201b60201c565b8073ffffffffffffffffffffffffffffffffffffffff1660808173ffffffffffffffffffffffffffffffffffffffff168152505062093a8060028190555034600181905550600254600154620000a09190620002e2565b600581905550600060055411620000ee576040517f08c379a0000000000000000000000000000000000000000000000000000000008152600401620000e5906200037b565b60405180910390fd5b60025442620000fe91906200039d565b6003819055504260048190555050620003d8565b600033905090565b60008060009054906101000a900473ffffffffffffffffffffffffffffffffffffffff169050816000806101000a81548173ffffffffffffffffffffffffffffffffffffffff021916908373ffffffffffffffffffffffffffffffffffffffff1602179055508173ffffffffffffffffffffffffffffffffffffffff168173ffffffffffffffffffffffffffffffffffffffff167f8be0079c531659141344cd1fd0a4f28419497f9722a3daafe3b4186f6b6457e060405160405180910390a35050565b600080fd5b600073ffffffffffffffffffffffffffffffffffffffff82169050919050565b60006200021082620001e3565b9050919050565b620002228162000203565b81146200022e57600080fd5b50565b600081519050620002428162000217565b92915050565b600060208284031215620002615762000260620001de565b5b6000620002718482850162000231565b91505092915050565b6000819050919050565b7f4e487b7100000000000000000000000000000000000000000000000000000000600052601260045260246000fd5b7f4e487b7100000000000000000000000000000000000000000000000000000000600052601160045260246000fd5b6000620002ef826200027a565b9150620002fc836200027a565b9250826200030f576200030e62000284565b5b828204905092915050565b600082825260208201905092915050565b7f7265776172642072617465203d20300000000000000000000000000000000000600082015250565b600062000363600f836200031a565b915062000370826200032b565b602082019050919050565b60006020820190508181036000830152620003968162000354565b9050919050565b6000620003aa826200027a565b9150620003b7836200027a565b9250828201905080821115620003d257620003d1620002b3565b5b92915050565b6080516116e562000402600039600081816105d90152818161075d015261099501526116e56000f3fe608060405234801561001057600080fd5b50600436106101205760003560e01c80637519ab50116100ad578063b6b55f2511610071578063b6b55f25146102c3578063b88a802f146102df578063cd3daf9d146102e9578063d91de40a14610307578063f2fde38b1461033757610120565b80637519ab50146102095780637b0a47ee146102275780638b876347146102455780638da5cb5b14610275578063af46aa081461029357610120565b80632f3b6ad3116100f45780632f3b6ad31461019b5780633ccfd60b146101b957806367d3b488146101c35780636d153cb1146101e1578063715018a6146101ff57610120565b8062882442146101255780630700037d1461012f5780630fb5a6b41461015f57806318160ddd1461017d575b600080fd5b61012d610353565b005b610149600480360381019061014491906110ba565b6104c9565b6040516101569190611100565b60405180910390f35b6101676104e1565b6040516101749190611100565b60405180910390f35b6101856104e7565b6040516101929190611100565b60405180910390f35b6101a36104ed565b6040516101b09190611100565b60405180910390f35b6101c16104f3565b005b6101cb610755565b6040516101d89190611100565b60405180910390f35b6101e961075b565b6040516101f6919061117a565b60405180910390f35b61020761077f565b005b610211610807565b60405161021e9190611100565b60405180910390f35b61022f61080d565b60405161023c9190611100565b60405180910390f35b61025f600480360381019061025a91906110ba565b610813565b60405161026c9190611100565b60405180910390f35b61027d61082b565b60405161028a91906111a4565b60405180910390f35b6102ad60048036038101906102a891906110ba565b610854565b6040516102ba9190611100565b60405180910390f35b6102dd60048036038101906102d891906111eb565b61086c565b005b6102e7610aa7565b005b6102f1610d08565b6040516102fe9190611100565b60405180910390f35b610321600480360381019061031c91906110ba565b610d0e565b60405161032e9190611100565b60405180910390f35b610351600480360381019061034c91906110ba565b610e10565b005b61035b610f07565b73ffffffffffffffffffffffffffffffffffffffff1661037961082b565b73ffffffffffffffffffffffffffffffffffffffff16146103cf576040517f08c379a00000000000000000000000000000000000000000000000000000000081526004016103c690611275565b60405180910390fd5b6003544211610413576040517f08c379a000000000000000000000000000000000000000000000000000000000815260040161040a906112e1565b60405180910390fd5b600061041d61082b565b73ffffffffffffffffffffffffffffffffffffffff164760405161044090611332565b60006040518083038185875af1925050503d806000811461047d576040519150601f19603f3d011682016040523d82523d6000602084013e610482565b606091505b50509050806104c6576040517f08c379a00000000000000000000000000000000000000000000000000000000081526004016104bd90611393565b60405180910390fd5b50565b60096020528060005260406000206000915090505481565b60025481565b60075481565b60015481565b336104fc610f0f565b60068190555061050a610f78565b600481905550600073ffffffffffffffffffffffffffffffffffffffff168173ffffffffffffffffffffffffffffffffffffffff16146105d75761054d81610d0e565b600960008373ffffffffffffffffffffffffffffffffffffffff1673ffffffffffffffffffffffffffffffffffffffff16815260200190815260200160002081905550600654600860008373ffffffffffffffffffffffffffffffffffffffff1673ffffffffffffffffffffffffffffffffffffffff168152602001908152602001600020819055505b7f000000000000000000000000000000000000000000000000000000000000000073ffffffffffffffffffffffffffffffffffffffff1663a9059cbb33600a60003373ffffffffffffffffffffffffffffffffffffffff1673ffffffffffffffffffffffffffffffffffffffff168152602001908152602001600020546040518363ffffffff1660e01b81526004016106719291906113b3565b6020604051808303816000875af1158015610690573d6000803e3d6000fd5b505050506040513d601f19601f820116820180604052508101906106b49190611414565b50600a60003373ffffffffffffffffffffffffffffffffffffffff1673ffffffffffffffffffffffffffffffffffffffff16815260200190815260200160002054600760008282546107069190611470565b925050819055506000600a60003373ffffffffffffffffffffffffffffffffffffffff1673ffffffffffffffffffffffffffffffffffffffff1681526020019081526020016000208190555050565b60035481565b7f000000000000000000000000000000000000000000000000000000000000000081565b610787610f07565b73ffffffffffffffffffffffffffffffffffffffff166107a561082b565b73ffffffffffffffffffffffffffffffffffffffff16146107fb576040517f08c379a00000000000000000000000000000000000000000000000000000000081526004016107f290611275565b60405180910390fd5b6108056000610f93565b565b60045481565b60055481565b60086020528060005260406000206000915090505481565b60008060009054906101000a900473ffffffffffffffffffffffffffffffffffffffff16905090565b600a6020528060005260406000206000915090505481565b33610875610f0f565b600681905550610883610f78565b600481905550600073ffffffffffffffffffffffffffffffffffffffff168173ffffffffffffffffffffffffffffffffffffffff1614610950576108c681610d0e565b600960008373ffffffffffffffffffffffffffffffffffffffff1673ffffffffffffffffffffffffffffffffffffffff16815260200190815260200160002081905550600654600860008373ffffffffffffffffffffffffffffffffffffffff1673ffffffffffffffffffffffffffffffffffffffff168152602001908152602001600020819055505b60008211610993576040517f08c379a000000000000000000000000000000000000000000000000000000000815260040161098a906114f0565b60405180910390fd5b7f000000000000000000000000000000000000000000000000000000000000000073ffffffffffffffffffffffffffffffffffffffff166323b872dd3330856040518463ffffffff1660e01b81526004016109f093929190611510565b6020604051808303816000875af1158015610a0f573d6000803e3d6000fd5b505050506040513d601f19601f82011682018060405250810190610a339190611414565b5081600a60003373ffffffffffffffffffffffffffffffffffffffff1673ffffffffffffffffffffffffffffffffffffffff1681526020019081526020016000206000828254610a839190611547565b925050819055508160076000828254610a9c9190611547565b925050819055505050565b33610ab0610f0f565b600681905550610abe610f78565b600481905550600073ffffffffffffffffffffffffffffffffffffffff168173ffffffffffffffffffffffffffffffffffffffff1614610b8b57610b0181610d0e565b600960008373ffffffffffffffffffffffffffffffffffffffff1673ffffffffffffffffffffffffffffffffffffffff16815260200190815260200160002081905550600654600860008373ffffffffffffffffffffffffffffffffffffffff1673ffffffffffffffffffffffffffffffffffffffff168152602001908152602001600020819055505b6000600960003373ffffffffffffffffffffffffffffffffffffffff1673ffffffffffffffffffffffffffffffffffffffff168152602001908152602001600020541115610d055760003373ffffffffffffffffffffffffffffffffffffffff16600960003373ffffffffffffffffffffffffffffffffffffffff1673ffffffffffffffffffffffffffffffffffffffff16815260200190815260200160002054604051610c3890611332565b60006040518083038185875af1925050503d8060008114610c75576040519150601f19603f3d011682016040523d82523d6000602084013e610c7a565b606091505b5050905080610cbe576040517f08c379a0000000000000000000000000000000000000000000000000000000008152600401610cb590611393565b60405180910390fd5b6000600960003373ffffffffffffffffffffffffffffffffffffffff1673ffffffffffffffffffffffffffffffffffffffff16815260200190815260200160002081905550505b50565b60065481565b6000670de0b6b3a7640000600860008473ffffffffffffffffffffffffffffffffffffffff1673ffffffffffffffffffffffffffffffffffffffff16815260200190815260200160002054610d61610f0f565b610d6b9190611470565b600a60008573ffffffffffffffffffffffffffffffffffffffff1673ffffffffffffffffffffffffffffffffffffffff16815260200190815260200160002054610db5919061157b565b610dbf91906115ec565b600960008473ffffffffffffffffffffffffffffffffffffffff1673ffffffffffffffffffffffffffffffffffffffff16815260200190815260200160002054610e099190611547565b9050919050565b610e18610f07565b73ffffffffffffffffffffffffffffffffffffffff16610e3661082b565b73ffffffffffffffffffffffffffffffffffffffff1614610e8c576040517f08c379a0000000000000000000000000000000000000000000000000000000008152600401610e8390611275565b60405180910390fd5b600073ffffffffffffffffffffffffffffffffffffffff168173ffffffffffffffffffffffffffffffffffffffff1603610efb576040517f08c379a0000000000000000000000000000000000000000000000000000000008152600401610ef29061168f565b60405180910390fd5b610f0481610f93565b50565b600033905090565b60008060075403610f235760009050610f75565b600754670de0b6b3a7640000600454610f3a610f78565b610f449190611470565b600554610f51919061157b565b610f5b919061157b565b610f6591906115ec565b600654610f729190611547565b90505b90565b6000426003541115610f8a5742610f8e565b6003545b905090565b60008060009054906101000a900473ffffffffffffffffffffffffffffffffffffffff169050816000806101000a81548173ffffffffffffffffffffffffffffffffffffffff021916908373ffffffffffffffffffffffffffffffffffffffff1602179055508173ffffffffffffffffffffffffffffffffffffffff168173ffffffffffffffffffffffffffffffffffffffff167f8be0079c531659141344cd1fd0a4f28419497f9722a3daafe3b4186f6b6457e060405160405180910390a35050565b600080fd5b600073ffffffffffffffffffffffffffffffffffffffff82169050919050565b60006110878261105c565b9050919050565b6110978161107c565b81146110a257600080fd5b50565b6000813590506110b48161108e565b92915050565b6000602082840312156110d0576110cf611057565b5b60006110de848285016110a5565b91505092915050565b6000819050919050565b6110fa816110e7565b82525050565b600060208201905061111560008301846110f1565b92915050565b6000819050919050565b600061114061113b6111368461105c565b61111b565b61105c565b9050919050565b600061115282611125565b9050919050565b600061116482611147565b9050919050565b61117481611159565b82525050565b600060208201905061118f600083018461116b565b92915050565b61119e8161107c565b82525050565b60006020820190506111b96000830184611195565b92915050565b6111c8816110e7565b81146111d357600080fd5b50565b6000813590506111e5816111bf565b92915050565b60006020828403121561120157611200611057565b5b600061120f848285016111d6565b91505092915050565b600082825260208201905092915050565b7f4f776e61626c653a2063616c6c6572206973206e6f7420746865206f776e6572600082015250565b600061125f602083611218565b915061126a82611229565b602082019050919050565b6000602082019050818103600083015261128e81611252565b9050919050565b7f6e6f742066696e69736865642079657400000000000000000000000000000000600082015250565b60006112cb601083611218565b91506112d682611295565b602082019050919050565b600060208201905081810360008301526112fa816112be565b9050919050565b600081905092915050565b50565b600061131c600083611301565b91506113278261130c565b600082019050919050565b600061133d8261130f565b9150819050919050565b7f4661696c656420746f2073656e64204574686572000000000000000000000000600082015250565b600061137d601483611218565b915061138882611347565b602082019050919050565b600060208201905081810360008301526113ac81611370565b9050919050565b60006040820190506113c86000830185611195565b6113d560208301846110f1565b9392505050565b60008115159050919050565b6113f1816113dc565b81146113fc57600080fd5b50565b60008151905061140e816113e8565b92915050565b60006020828403121561142a57611429611057565b5b6000611438848285016113ff565b91505092915050565b7f4e487b7100000000000000000000000000000000000000000000000000000000600052601160045260246000fd5b600061147b826110e7565b9150611486836110e7565b925082820390508181111561149e5761149d611441565b5b92915050565b7f616d6f756e74203d203000000000000000000000000000000000000000000000600082015250565b60006114da600a83611218565b91506114e5826114a4565b602082019050919050565b60006020820190508181036000830152611509816114cd565b9050919050565b60006060820190506115256000830186611195565b6115326020830185611195565b61153f60408301846110f1565b949350505050565b6000611552826110e7565b915061155d836110e7565b925082820190508082111561157557611574611441565b5b92915050565b6000611586826110e7565b9150611591836110e7565b925082820261159f816110e7565b915082820484148315176115b6576115b5611441565b5b5092915050565b7f4e487b7100000000000000000000000000000000000000000000000000000000600052601260045260246000fd5b60006115f7826110e7565b9150611602836110e7565b925082611612576116116115bd565b5b828204905092915050565b7f4f776e61626c653a206e6577206f776e657220697320746865207a65726f206160008201527f6464726573730000000000000000000000000000000000000000000000000000602082015250565b6000611679602683611218565b91506116848261161d565b604082019050919050565b600060208201905081810360008301526116a88161166c565b905091905056fea264697066735822122086bc57b9718e48eb60d24b395aadf40cbea64a9b897fa189b268d12f0c3d31d664736f6c63430008120033",
  "linkReferences": {},
  "deployedLinkReferences": {}
}