{
  "_format": "hh-sol-artifact-1",
  "contractName": "ArkaStaking",
  "sourceName": "contracts/ArkaStaking.sol",
  "abi": [
    {
      "inputs": [
        {
          "internalType": "address",
          "name": "_stakingToken",
          "type": "address"
        }
      ],
      "stateMutability": "payable",
      "type": "constructor"
    },
    {
      "anonymous": false,
      "inputs": [
        {
          "indexed": true,
          "internalType": "address",
          "name": "user",
          "type": "address"
        },
        {
          "indexed": false,
          "internalType": "uint256",
          "name": "amount",
          "type": "uint256"
        }
      ],
      "name": "Deposit",
      "type": "event"
    },
    {
      "anonymous": false,
      "inputs": [
        {
          "indexed": true,
          "internalType": "address",
          "name": "user",
          "type": "address"
        }
      ],
      "name": "RewardClaimed",
      "type": "event"
    },
    {
      "anonymous": false,
      "inputs": [],
      "name": "TransferUnclaimedReward",
      "type": "event"
    },
    {
      "anonymous": false,
      "inputs": [
        {
          "indexed": true,
          "internalType": "address",
          "name": "user",
          "type": "address"
        }
      ],
      "name": "Withdraw",
      "type": "event"
    },
    {
      "inputs": [],
      "name": "amountReward",
      "outputs": [
        {
          "internalType": "uint256",
          "name": "",
          "type": "uint256"
        }
      ],
      "stateMutability": "view",
      "type": "function"
    },
    {
      "inputs": [],
      "name": "arkaToken",
      "outputs": [
        {
          "internalType": "contract IERC20",
          "name": "",
          "type": "address"
        }
      ],
      "stateMutability": "view",
      "type": "function"
    },
    {
      "inputs": [
        {
          "internalType": "address",
          "name": "_account",
          "type": "address"
        }
      ],
      "name": "calculateRewardForAccount",
      "outputs": [
        {
          "internalType": "uint256",
          "name": "",
          "type": "uint256"
        }
      ],
      "stateMutability": "view",
      "type": "function"
    },
    {
      "inputs": [],
      "name": "claimReward",
      "outputs": [],
      "stateMutability": "nonpayable",
      "type": "function"
    },
    {
      "inputs": [
        {
          "internalType": "uint256",
          "name": "_amount",
          "type": "uint256"
        }
      ],
      "name": "deposit",
      "outputs": [],
      "stateMutability": "nonpayable",
      "type": "function"
    },
    {
      "inputs": [],
      "name": "duration",
      "outputs": [
        {
          "internalType": "uint256",
          "name": "",
          "type": "uint256"
        }
      ],
      "stateMutability": "view",
      "type": "function"
    },
    {
      "inputs": [],
      "name": "finishAt",
      "outputs": [
        {
          "internalType": "uint256",
          "name": "",
          "type": "uint256"
        }
      ],
      "stateMutability": "view",
      "type": "function"
    },
    {
      "inputs": [],
      "name": "rewardPerToken",
      "outputs": [
        {
          "internalType": "uint256",
          "name": "",
          "type": "uint256"
        }
      ],
      "stateMutability": "view",
      "type": "function"
    },
    {
      "inputs": [],
      "name": "rewardRate",
      "outputs": [
        {
          "internalType": "uint256",
          "name": "",
          "type": "uint256"
        }
      ],
      "stateMutability": "view",
      "type": "function"
    },
    {
      "inputs": [
        {
          "internalType": "address",
          "name": "",
          "type": "address"
        }
      ],
      "name": "rewards",
      "outputs": [
        {
          "internalType": "uint256",
          "name": "",
          "type": "uint256"
        }
      ],
      "stateMutability": "view",
      "type": "function"
    },
    {
      "inputs": [
        {
          "internalType": "address",
          "name": "",
          "type": "address"
        }
      ],
      "name": "stakeBalanceOf",
      "outputs": [
        {
          "internalType": "uint256",
          "name": "",
          "type": "uint256"
        }
      ],
      "stateMutability": "view",
      "type": "function"
    },
    {
      "inputs": [],
      "name": "totalSupply",
      "outputs": [
        {
          "internalType": "uint256",
          "name": "",
          "type": "uint256"
        }
      ],
      "stateMutability": "view",
      "type": "function"
    },
    {
      "inputs": [],
      "name": "transferUnclaimedReward",
      "outputs": [],
      "stateMutability": "nonpayable",
      "type": "function"
    },
    {
      "inputs": [],
      "name": "updatedAt",
      "outputs": [
        {
          "internalType": "uint256",
          "name": "",
          "type": "uint256"
        }
      ],
      "stateMutability": "view",
      "type": "function"
    },
    {
      "inputs": [
        {
          "internalType": "address",
          "name": "",
          "type": "address"
        }
      ],
      "name": "userRewardPerTokenPaid",
      "outputs": [
        {
          "internalType": "uint256",
          "name": "",
          "type": "uint256"
        }
      ],
      "stateMutability": "view",
      "type": "function"
    },
    {
      "inputs": [],
      "name": "withdraw",
      "outputs": [],
      "stateMutability": "nonpayable",
      "type": "function"
    }
  ],
  "bytecode": "0x60a060405260405162001b4038038062001b4083398181016040528101906200002991906200019b565b336000806101000a81548173ffffffffffffffffffffffffffffffffffffffff021916908373ffffffffffffffffffffffffffffffffffffffff1602179055508073ffffffffffffffffffffffffffffffffffffffff1660808173ffffffffffffffffffffffffffffffffffffffff168152505061025860028190555034600181905550600254600154620000bf919062000235565b6005819055506000600554116200010d576040517f08c379a00000000000000000000000000000000000000000000000000000000081526004016200010490620002ce565b60405180910390fd5b600254426200011d9190620002f0565b60038190555042600481905550506200032b565b600080fd5b600073ffffffffffffffffffffffffffffffffffffffff82169050919050565b6000620001638262000136565b9050919050565b620001758162000156565b81146200018157600080fd5b50565b60008151905062000195816200016a565b92915050565b600060208284031215620001b457620001b362000131565b5b6000620001c48482850162000184565b91505092915050565b6000819050919050565b7f4e487b7100000000000000000000000000000000000000000000000000000000600052601260045260246000fd5b7f4e487b7100000000000000000000000000000000000000000000000000000000600052601160045260246000fd5b60006200024282620001cd565b91506200024f83620001cd565b925082620002625762000261620001d7565b5b828204905092915050565b600082825260208201905092915050565b7f7265776172642072617465203d20300000000000000000000000000000000000600082015250565b6000620002b6600f836200026d565b9150620002c3826200027e565b602082019050919050565b60006020820190508181036000830152620002e981620002a7565b9050919050565b6000620002fd82620001cd565b91506200030a83620001cd565b925082820190508082111562000325576200032462000206565b5b92915050565b6080516117eb620003556000396000818161060a015281816107d101526109d601526117eb6000f3fe608060405234801561001057600080fd5b50600436106100ff5760003560e01c80637519ab5011610097578063b6b55f2511610066578063b6b55f251461027a578063b88a802f14610296578063cd3daf9d146102a0578063d91de40a146102be576100ff565b80637519ab50146101de5780637b0a47ee146101fc5780638b8763471461021a578063af46aa081461024a576100ff565b80632f3b6ad3116100d35780632f3b6ad31461017a5780633ccfd60b1461019857806367d3b488146101a25780636d153cb1146101c0576100ff565b8062882442146101045780630700037d1461010e5780630fb5a6b41461013e57806318160ddd1461015c575b600080fd5b61010c6102ee565b005b61012860048036038101906101239190611168565b6104bc565b60405161013591906111ae565b60405180910390f35b6101466104d4565b60405161015391906111ae565b60405180910390f35b6101646104da565b60405161017191906111ae565b60405180910390f35b6101826104e0565b60405161018f91906111ae565b60405180910390f35b6101a06104e6565b005b6101aa6107c9565b6040516101b791906111ae565b60405180910390f35b6101c86107cf565b6040516101d59190611228565b60405180910390f35b6101e66107f3565b6040516101f391906111ae565b60405180910390f35b6102046107f9565b60405161021191906111ae565b60405180910390f35b610234600480360381019061022f9190611168565b6107ff565b60405161024191906111ae565b60405180910390f35b610264600480360381019061025f9190611168565b610817565b60405161027191906111ae565b60405180910390f35b610294600480360381019061028f919061126f565b61082f565b005b61029e610b36565b005b6102a8610e18565b6040516102b591906111ae565b60405180910390f35b6102d860048036038101906102d39190611168565b610e1e565b6040516102e591906111ae565b60405180910390f35b60008054906101000a900473ffffffffffffffffffffffffffffffffffffffff1673ffffffffffffffffffffffffffffffffffffffff163373ffffffffffffffffffffffffffffffffffffffff161461037c576040517f08c379a00000000000000000000000000000000000000000000000000000000081526004016103739061131f565b60405180910390fd5b60035442116103c0576040517f08c379a00000000000000000000000000000000000000000000000000000000081526004016103b79061138b565b60405180910390fd5b60008060009054906101000a900473ffffffffffffffffffffffffffffffffffffffff1673ffffffffffffffffffffffffffffffffffffffff1647604051610407906113dc565b60006040518083038185875af1925050503d8060008114610444576040519150601f19603f3d011682016040523d82523d6000602084013e610449565b606091505b505090508061048d576040517f08c379a00000000000000000000000000000000000000000000000000000000081526004016104849061143d565b60405180910390fd5b7fe007339840c4e4afd03253f3dd3d52a230ff107abe2db735e4c6cb04f6a510f660405160405180910390a150565b60096020528060005260406000206000915090505481565b60025481565b60075481565b60015481565b336105256040518060400160405280601181526020017f64616e7320757064617465526577617264000000000000000000000000000000815250610f20565b61052d610fb9565b60068190555061053b611022565b600481905550600073ffffffffffffffffffffffffffffffffffffffff168173ffffffffffffffffffffffffffffffffffffffff16146106085761057e81610e1e565b600960008373ffffffffffffffffffffffffffffffffffffffff1673ffffffffffffffffffffffffffffffffffffffff16815260200190815260200160002081905550600654600860008373ffffffffffffffffffffffffffffffffffffffff1673ffffffffffffffffffffffffffffffffffffffff168152602001908152602001600020819055505b7f000000000000000000000000000000000000000000000000000000000000000073ffffffffffffffffffffffffffffffffffffffff1663a9059cbb33600a60003373ffffffffffffffffffffffffffffffffffffffff1673ffffffffffffffffffffffffffffffffffffffff168152602001908152602001600020546040518363ffffffff1660e01b81526004016106a292919061146c565b6020604051808303816000875af11580156106c1573d6000803e3d6000fd5b505050506040513d601f19601f820116820180604052508101906106e591906114cd565b50600a60003373ffffffffffffffffffffffffffffffffffffffff1673ffffffffffffffffffffffffffffffffffffffff16815260200190815260200160002054600760008282546107379190611529565b925050819055506000600a60003373ffffffffffffffffffffffffffffffffffffffff1673ffffffffffffffffffffffffffffffffffffffff168152602001908152602001600020819055503373ffffffffffffffffffffffffffffffffffffffff167ff67611512e0a2d90c96fd3f08dca4971bc45fba9dc679eabe839a32abbe58a8e60405160405180910390a250565b60035481565b7f000000000000000000000000000000000000000000000000000000000000000081565b60045481565b60055481565b60086020528060005260406000206000915090505481565b600a6020528060005260406000206000915090505481565b3361086e6040518060400160405280601181526020017f64616e7320757064617465526577617264000000000000000000000000000000815250610f20565b610876610fb9565b600681905550610884611022565b600481905550600073ffffffffffffffffffffffffffffffffffffffff168173ffffffffffffffffffffffffffffffffffffffff1614610951576108c781610e1e565b600960008373ffffffffffffffffffffffffffffffffffffffff1673ffffffffffffffffffffffffffffffffffffffff16815260200190815260200160002081905550600654600860008373ffffffffffffffffffffffffffffffffffffffff1673ffffffffffffffffffffffffffffffffffffffff168152602001908152602001600020819055505b6109916040518060400160405280600c81526020017f64616e73206465706f7369740000000000000000000000000000000000000000815250338461103d565b600082116109d4576040517f08c379a00000000000000000000000000000000000000000000000000000000081526004016109cb906115a9565b60405180910390fd5b7f000000000000000000000000000000000000000000000000000000000000000073ffffffffffffffffffffffffffffffffffffffff166323b872dd3330856040518463ffffffff1660e01b8152600401610a31939291906115c9565b6020604051808303816000875af1158015610a50573d6000803e3d6000fd5b505050506040513d601f19601f82011682018060405250810190610a7491906114cd565b5081600a60003373ffffffffffffffffffffffffffffffffffffffff1673ffffffffffffffffffffffffffffffffffffffff1681526020019081526020016000206000828254610ac49190611600565b925050819055508160076000828254610add9190611600565b925050819055503373ffffffffffffffffffffffffffffffffffffffff167fe1fffcc4923d04b559f4d29a8bfc6cda04eb5b0d3c460751c2402c5c5cc9109c83604051610b2a91906111ae565b60405180910390a25050565b33610b756040518060400160405280601181526020017f64616e7320757064617465526577617264000000000000000000000000000000815250610f20565b610b7d610fb9565b600681905550610b8b611022565b600481905550600073ffffffffffffffffffffffffffffffffffffffff168173ffffffffffffffffffffffffffffffffffffffff1614610c5857610bce81610e1e565b600960008373ffffffffffffffffffffffffffffffffffffffff1673ffffffffffffffffffffffffffffffffffffffff16815260200190815260200160002081905550600654600860008373ffffffffffffffffffffffffffffffffffffffff1673ffffffffffffffffffffffffffffffffffffffff168152602001908152602001600020819055505b6000600960003373ffffffffffffffffffffffffffffffffffffffff1673ffffffffffffffffffffffffffffffffffffffff168152602001908152602001600020541115610dd25760003373ffffffffffffffffffffffffffffffffffffffff16600960003373ffffffffffffffffffffffffffffffffffffffff1673ffffffffffffffffffffffffffffffffffffffff16815260200190815260200160002054604051610d05906113dc565b60006040518083038185875af1925050503d8060008114610d42576040519150601f19603f3d011682016040523d82523d6000602084013e610d47565b606091505b5050905080610d8b576040517f08c379a0000000000000000000000000000000000000000000000000000000008152600401610d829061143d565b60405180910390fd5b6000600960003373ffffffffffffffffffffffffffffffffffffffff1673ffffffffffffffffffffffffffffffffffffffff16815260200190815260200160002081905550505b3373ffffffffffffffffffffffffffffffffffffffff167fea61a2a22523394f29506de20cc9db2e881f096477982d51012058ec9032714a60405160405180910390a250565b60065481565b6000670de0b6b3a7640000600860008473ffffffffffffffffffffffffffffffffffffffff1673ffffffffffffffffffffffffffffffffffffffff16815260200190815260200160002054610e71610fb9565b610e7b9190611529565b600a60008573ffffffffffffffffffffffffffffffffffffffff1673ffffffffffffffffffffffffffffffffffffffff16815260200190815260200160002054610ec59190611634565b610ecf91906116a5565b600960008473ffffffffffffffffffffffffffffffffffffffff1673ffffffffffffffffffffffffffffffffffffffff16815260200190815260200160002054610f199190611600565b9050919050565b610fb681604051602401610f349190611755565b6040516020818303038152906040527f41304fac000000000000000000000000000000000000000000000000000000007bffffffffffffffffffffffffffffffffffffffffffffffffffffffff19166020820180517bffffffffffffffffffffffffffffffffffffffffffffffffffffffff83818316178352505050506110dc565b50565b60008060075403610fcd576000905061101f565b600754670de0b6b3a7640000600454610fe4611022565b610fee9190611529565b600554610ffb9190611634565b6110059190611634565b61100f91906116a5565b60065461101c9190611600565b90505b90565b60004260035411156110345742611038565b6003545b905090565b6110d783838360405160240161105593929190611777565b6040516020818303038152906040527f0d26b925000000000000000000000000000000000000000000000000000000007bffffffffffffffffffffffffffffffffffffffffffffffffffffffff19166020820180517bffffffffffffffffffffffffffffffffffffffffffffffffffffffff83818316178352505050506110dc565b505050565b60008151905060006a636f6e736f6c652e6c6f679050602083016000808483855afa5050505050565b600080fd5b600073ffffffffffffffffffffffffffffffffffffffff82169050919050565b60006111358261110a565b9050919050565b6111458161112a565b811461115057600080fd5b50565b6000813590506111628161113c565b92915050565b60006020828403121561117e5761117d611105565b5b600061118c84828501611153565b91505092915050565b6000819050919050565b6111a881611195565b82525050565b60006020820190506111c3600083018461119f565b92915050565b6000819050919050565b60006111ee6111e96111e48461110a565b6111c9565b61110a565b9050919050565b6000611200826111d3565b9050919050565b6000611212826111f5565b9050919050565b61122281611207565b82525050565b600060208201905061123d6000830184611219565b92915050565b61124c81611195565b811461125757600080fd5b50565b60008135905061126981611243565b92915050565b60006020828403121561128557611284611105565b5b60006112938482850161125a565b91505092915050565b600082825260208201905092915050565b7f4f6e6c79206f776e65722063616e207472616e7366657220756e636c61696d6560008201527f6420726577617264730000000000000000000000000000000000000000000000602082015250565b600061130960298361129c565b9150611314826112ad565b604082019050919050565b60006020820190508181036000830152611338816112fc565b9050919050565b7f546865207374616b696e67206973206e6f742066696e69736865642079657400600082015250565b6000611375601f8361129c565b91506113808261133f565b602082019050919050565b600060208201905081810360008301526113a481611368565b9050919050565b600081905092915050565b50565b60006113c66000836113ab565b91506113d1826113b6565b600082019050919050565b60006113e7826113b9565b9150819050919050565b7f4661696c656420746f2073656e64204574686572000000000000000000000000600082015250565b600061142760148361129c565b9150611432826113f1565b602082019050919050565b600060208201905081810360008301526114568161141a565b9050919050565b6114668161112a565b82525050565b6000604082019050611481600083018561145d565b61148e602083018461119f565b9392505050565b60008115159050919050565b6114aa81611495565b81146114b557600080fd5b50565b6000815190506114c7816114a1565b92915050565b6000602082840312156114e3576114e2611105565b5b60006114f1848285016114b8565b91505092915050565b7f4e487b7100000000000000000000000000000000000000000000000000000000600052601160045260246000fd5b600061153482611195565b915061153f83611195565b9250828203905081811115611557576115566114fa565b5b92915050565b7f616d6f756e74203d203000000000000000000000000000000000000000000000600082015250565b6000611593600a8361129c565b915061159e8261155d565b602082019050919050565b600060208201905081810360008301526115c281611586565b9050919050565b60006060820190506115de600083018661145d565b6115eb602083018561145d565b6115f8604083018461119f565b949350505050565b600061160b82611195565b915061161683611195565b925082820190508082111561162e5761162d6114fa565b5b92915050565b600061163f82611195565b915061164a83611195565b925082820261165881611195565b9150828204841483151761166f5761166e6114fa565b5b5092915050565b7f4e487b7100000000000000000000000000000000000000000000000000000000600052601260045260246000fd5b60006116b082611195565b91506116bb83611195565b9250826116cb576116ca611676565b5b828204905092915050565b600081519050919050565b60005b838110156116ff5780820151818401526020810190506116e4565b60008484015250505050565b6000601f19601f8301169050919050565b6000611727826116d6565b611731818561129c565b93506117418185602086016116e1565b61174a8161170b565b840191505092915050565b6000602082019050818103600083015261176f818461171c565b905092915050565b60006060820190508181036000830152611791818661171c565b90506117a0602083018561145d565b6117ad604083018461119f565b94935050505056fea2646970667358221220549202eecb9b6e602be926214edc198395af3beb599fe778061af1ab15b4bf3564736f6c63430008120033",
  "linkReferences": {},
  "deployedLinkReferences": {}
}